{
  "address": "0xD9A82668BdFF9a44Bc4cba9B6abd23E234824527",
  "abi": [
    {
      "inputs": [
        {
          "internalType": "address",
          "name": "_owner",
          "type": "address"
        }
      ],
      "stateMutability": "nonpayable",
      "type": "constructor"
    },
    {
      "anonymous": false,
      "inputs": [
        {
          "indexed": true,
          "internalType": "address",
          "name": "owner",
          "type": "address"
        },
        {
          "indexed": true,
          "internalType": "address",
          "name": "approved",
          "type": "address"
        },
        {
          "indexed": true,
          "internalType": "uint256",
          "name": "tokenId",
          "type": "uint256"
        }
      ],
      "name": "Approval",
      "type": "event"
    },
    {
      "anonymous": false,
      "inputs": [
        {
          "indexed": true,
          "internalType": "address",
          "name": "owner",
          "type": "address"
        },
        {
          "indexed": true,
          "internalType": "address",
          "name": "operator",
          "type": "address"
        },
        {
          "indexed": false,
          "internalType": "bool",
          "name": "approved",
          "type": "bool"
        }
      ],
      "name": "ApprovalForAll",
      "type": "event"
    },
    {
      "anonymous": false,
      "inputs": [
        {
          "indexed": false,
          "internalType": "int128",
          "name": "x",
          "type": "int128"
        },
        {
          "indexed": false,
          "internalType": "int128",
          "name": "y",
          "type": "int128"
        },
        {
          "indexed": false,
          "internalType": "address",
          "name": "buyedAddress",
          "type": "address"
        }
      ],
      "name": "Buy",
      "type": "event"
    },
    {
      "anonymous": false,
      "inputs": [
        {
          "indexed": false,
          "internalType": "int128",
          "name": "x",
          "type": "int128"
        },
        {
          "indexed": false,
          "internalType": "int128",
          "name": "y",
          "type": "int128"
        },
        {
          "indexed": false,
          "internalType": "address",
          "name": "givedAddress",
          "type": "address"
        }
      ],
      "name": "GiveTo",
      "type": "event"
    },
    {
      "anonymous": false,
      "inputs": [
        {
          "indexed": true,
          "internalType": "address",
          "name": "previousOwner",
          "type": "address"
        },
        {
          "indexed": true,
          "internalType": "address",
          "name": "newOwner",
          "type": "address"
        }
      ],
      "name": "OwnershipTransferred",
      "type": "event"
    },
    {
      "anonymous": false,
      "inputs": [
        {
          "indexed": false,
          "internalType": "int128",
          "name": "x",
          "type": "int128"
        },
        {
          "indexed": false,
          "internalType": "int128",
          "name": "y",
          "type": "int128"
        },
        {
          "indexed": false,
          "internalType": "string",
          "name": "slogan",
          "type": "string"
        }
      ],
      "name": "SetSlogan",
      "type": "event"
    },
    {
      "anonymous": false,
      "inputs": [
        {
          "indexed": true,
          "internalType": "address",
          "name": "from",
          "type": "address"
        },
        {
          "indexed": true,
          "internalType": "address",
          "name": "to",
          "type": "address"
        },
        {
          "indexed": true,
          "internalType": "uint256",
          "name": "tokenId",
          "type": "uint256"
        }
      ],
      "name": "Transfer",
      "type": "event"
    },
    {
      "inputs": [],
      "name": "PRICE",
      "outputs": [
        {
          "internalType": "uint256",
          "name": "",
          "type": "uint256"
        }
      ],
      "stateMutability": "view",
      "type": "function"
    },
    {
      "inputs": [
        {
          "internalType": "address",
          "name": "to",
          "type": "address"
        },
        {
          "internalType": "uint256",
          "name": "tokenId",
          "type": "uint256"
        }
      ],
      "name": "approve",
      "outputs": [],
      "stateMutability": "nonpayable",
      "type": "function"
    },
    {
      "inputs": [
        {
          "internalType": "address",
          "name": "owner",
          "type": "address"
        }
      ],
      "name": "balanceOf",
      "outputs": [
        {
          "internalType": "uint256",
          "name": "",
          "type": "uint256"
        }
      ],
      "stateMutability": "view",
      "type": "function"
    },
    {
      "inputs": [
        {
          "internalType": "int128",
          "name": "x",
          "type": "int128"
        },
        {
          "internalType": "int128",
          "name": "y",
          "type": "int128"
        }
      ],
      "name": "buy",
      "outputs": [],
      "stateMutability": "payable",
      "type": "function"
    },
    {
      "inputs": [
        {
          "internalType": "address",
          "name": "",
          "type": "address"
        }
      ],
      "name": "buyCount",
      "outputs": [
        {
          "internalType": "uint8",
          "name": "",
          "type": "uint8"
        }
      ],
      "stateMutability": "view",
      "type": "function"
    },
    {
      "inputs": [
        {
          "internalType": "address",
          "name": "_buyedAddress",
          "type": "address"
        }
      ],
      "name": "buyLans",
      "outputs": [
        {
          "components": [
            {
              "internalType": "int128",
              "name": "x",
              "type": "int128"
            },
            {
              "internalType": "int128",
              "name": "y",
              "type": "int128"
            },
            {
              "internalType": "string",
              "name": "slogan",
              "type": "string"
            },
            {
              "internalType": "address",
              "name": "buyedAddress",
              "type": "address"
            },
            {
              "internalType": "address",
              "name": "givedAddress",
              "type": "address"
            },
            {
              "internalType": "bool",
              "name": "isBuyed",
              "type": "bool"
            },
            {
              "internalType": "bool",
              "name": "isGived",
              "type": "bool"
            }
          ],
          "internalType": "struct Land.Token[]",
          "name": "_token",
          "type": "tuple[]"
        }
      ],
      "stateMutability": "view",
      "type": "function"
    },
    {
      "inputs": [
        {
          "internalType": "address",
          "name": "",
          "type": "address"
        },
        {
          "internalType": "uint256",
          "name": "",
          "type": "uint256"
        }
      ],
      "name": "buyTokens",
      "outputs": [
        {
          "internalType": "uint256",
          "name": "",
          "type": "uint256"
        }
      ],
      "stateMutability": "view",
      "type": "function"
    },
    {
      "inputs": [
        {
          "internalType": "uint256",
          "name": "tokenId",
          "type": "uint256"
        }
      ],
      "name": "getApproved",
      "outputs": [
        {
          "internalType": "address",
          "name": "",
          "type": "address"
        }
      ],
      "stateMutability": "view",
      "type": "function"
    },
    {
      "inputs": [
        {
          "internalType": "uint256",
          "name": "tokenId",
          "type": "uint256"
        }
      ],
      "name": "getCoordinates",
      "outputs": [
        {
          "internalType": "int128",
          "name": "x",
          "type": "int128"
        },
        {
          "internalType": "int128",
          "name": "y",
          "type": "int128"
        }
      ],
      "stateMutability": "pure",
      "type": "function"
    },
    {
      "inputs": [
        {
          "internalType": "int128",
          "name": "x",
          "type": "int128"
        },
        {
          "internalType": "int128",
          "name": "y",
          "type": "int128"
        }
      ],
      "name": "getCoordinatesString",
      "outputs": [
        {
          "internalType": "string",
          "name": "data",
          "type": "string"
        }
      ],
      "stateMutability": "pure",
      "type": "function"
    },
    {
      "inputs": [],
      "name": "getEth",
      "outputs": [],
      "stateMutability": "nonpayable",
      "type": "function"
    },
    {
      "inputs": [
        {
          "internalType": "int128",
          "name": "x",
          "type": "int128"
        },
        {
          "internalType": "int128",
          "name": "y",
          "type": "int128"
        }
      ],
      "name": "getTokenId",
      "outputs": [
        {
          "internalType": "uint256",
          "name": "tokenId",
          "type": "uint256"
        }
      ],
      "stateMutability": "pure",
      "type": "function"
    },
    {
      "inputs": [
        {
          "internalType": "int128",
          "name": "x",
          "type": "int128"
        },
        {
          "internalType": "int128",
          "name": "y",
          "type": "int128"
        },
        {
          "internalType": "address",
          "name": "givedAddress",
          "type": "address"
        }
      ],
      "name": "giveTo",
      "outputs": [],
      "stateMutability": "nonpayable",
      "type": "function"
    },
    {
      "inputs": [
        {
          "internalType": "address",
          "name": "",
          "type": "address"
        }
      ],
      "name": "gived",
      "outputs": [
        {
          "internalType": "uint256",
          "name": "",
          "type": "uint256"
        }
      ],
      "stateMutability": "view",
      "type": "function"
    },
    {
      "inputs": [
        {
          "internalType": "address",
          "name": "_givedAddress",
          "type": "address"
        }
      ],
      "name": "givedLand",
      "outputs": [
        {
          "internalType": "int128",
          "name": "x",
          "type": "int128"
        },
        {
          "internalType": "int128",
          "name": "y",
          "type": "int128"
        },
        {
          "internalType": "string",
          "name": "slogan",
          "type": "string"
        },
        {
          "internalType": "address",
          "name": "buyedAddress",
          "type": "address"
        },
        {
          "internalType": "address",
          "name": "givedAddress",
          "type": "address"
        },
        {
          "internalType": "bool",
          "name": "isBuyed",
          "type": "bool"
        },
        {
          "internalType": "bool",
          "name": "isGived",
          "type": "bool"
        }
      ],
      "stateMutability": "view",
      "type": "function"
    },
    {
      "inputs": [
        {
          "internalType": "address",
          "name": "owner",
          "type": "address"
        },
        {
          "internalType": "address",
          "name": "operator",
          "type": "address"
        }
      ],
      "name": "isApprovedForAll",
      "outputs": [
        {
          "internalType": "bool",
          "name": "",
          "type": "bool"
        }
      ],
      "stateMutability": "view",
      "type": "function"
    },
    {
      "inputs": [
        {
          "internalType": "int128",
          "name": "_x",
          "type": "int128"
        },
        {
          "internalType": "int128",
          "name": "_y",
          "type": "int128"
        }
      ],
      "name": "land",
      "outputs": [
        {
          "internalType": "int128",
          "name": "x",
          "type": "int128"
        },
        {
          "internalType": "int128",
          "name": "y",
          "type": "int128"
        },
        {
          "internalType": "string",
          "name": "slogan",
          "type": "string"
        },
        {
          "internalType": "address",
          "name": "buyedAddress",
          "type": "address"
        },
        {
          "internalType": "address",
          "name": "givedAddress",
          "type": "address"
        },
        {
          "internalType": "bool",
          "name": "isBuyed",
          "type": "bool"
        },
        {
          "internalType": "bool",
          "name": "isGived",
          "type": "bool"
        }
      ],
      "stateMutability": "view",
      "type": "function"
    },
    {
      "inputs": [],
      "name": "name",
      "outputs": [
        {
          "internalType": "string",
          "name": "",
          "type": "string"
        }
      ],
      "stateMutability": "view",
      "type": "function"
    },
    {
      "inputs": [],
      "name": "owner",
      "outputs": [
        {
          "internalType": "address",
          "name": "",
          "type": "address"
        }
      ],
      "stateMutability": "view",
      "type": "function"
    },
    {
      "inputs": [
        {
          "internalType": "uint256",
          "name": "tokenId",
          "type": "uint256"
        }
      ],
      "name": "ownerOf",
      "outputs": [
        {
          "internalType": "address",
          "name": "",
          "type": "address"
        }
      ],
      "stateMutability": "view",
      "type": "function"
    },
    {
      "inputs": [],
      "name": "renounceOwnership",
      "outputs": [],
      "stateMutability": "nonpayable",
      "type": "function"
    },
    {
      "inputs": [
        {
          "internalType": "address",
          "name": "from",
          "type": "address"
        },
        {
          "internalType": "address",
          "name": "to",
          "type": "address"
        },
        {
          "internalType": "uint256",
          "name": "tokenId",
          "type": "uint256"
        }
      ],
      "name": "safeTransferFrom",
      "outputs": [],
      "stateMutability": "nonpayable",
      "type": "function"
    },
    {
      "inputs": [
        {
          "internalType": "address",
          "name": "from",
          "type": "address"
        },
        {
          "internalType": "address",
          "name": "to",
          "type": "address"
        },
        {
          "internalType": "uint256",
          "name": "tokenId",
          "type": "uint256"
        },
        {
          "internalType": "bytes",
          "name": "_data",
          "type": "bytes"
        }
      ],
      "name": "safeTransferFrom",
      "outputs": [],
      "stateMutability": "nonpayable",
      "type": "function"
    },
    {
      "inputs": [
        {
          "internalType": "address",
          "name": "operator",
          "type": "address"
        },
        {
          "internalType": "bool",
          "name": "approved",
          "type": "bool"
        }
      ],
      "name": "setApprovalForAll",
      "outputs": [],
      "stateMutability": "nonpayable",
      "type": "function"
    },
    {
      "inputs": [
        {
          "internalType": "int128",
          "name": "x",
          "type": "int128"
        },
        {
          "internalType": "int128",
          "name": "y",
          "type": "int128"
        },
        {
          "internalType": "string",
          "name": "slogan",
          "type": "string"
        }
      ],
      "name": "setSlogan",
      "outputs": [],
      "stateMutability": "nonpayable",
      "type": "function"
    },
    {
      "inputs": [
        {
          "internalType": "bytes4",
          "name": "interfaceId",
          "type": "bytes4"
        }
      ],
      "name": "supportsInterface",
      "outputs": [
        {
          "internalType": "bool",
          "name": "",
          "type": "bool"
        }
      ],
      "stateMutability": "view",
      "type": "function"
    },
    {
      "inputs": [],
      "name": "symbol",
      "outputs": [
        {
          "internalType": "string",
          "name": "",
          "type": "string"
        }
      ],
      "stateMutability": "view",
      "type": "function"
    },
    {
      "inputs": [
        {
          "internalType": "int8",
          "name": "count",
          "type": "int8"
        }
      ],
      "name": "testLands",
      "outputs": [
        {
          "components": [
            {
              "internalType": "int128",
              "name": "x",
              "type": "int128"
            },
            {
              "internalType": "int128",
              "name": "y",
              "type": "int128"
            },
            {
              "internalType": "string",
              "name": "slogan",
              "type": "string"
            },
            {
              "internalType": "address",
              "name": "buyedAddress",
              "type": "address"
            },
            {
              "internalType": "address",
              "name": "givedAddress",
              "type": "address"
            },
            {
              "internalType": "bool",
              "name": "isBuyed",
              "type": "bool"
            },
            {
              "internalType": "bool",
              "name": "isGived",
              "type": "bool"
            }
          ],
          "internalType": "struct Land.Token[]",
          "name": "_token",
          "type": "tuple[]"
        }
      ],
      "stateMutability": "view",
      "type": "function"
    },
    {
      "inputs": [
        {
          "internalType": "uint256",
          "name": "index",
          "type": "uint256"
        }
      ],
      "name": "tokenByIndex",
      "outputs": [
        {
          "internalType": "uint256",
          "name": "",
          "type": "uint256"
        }
      ],
      "stateMutability": "view",
      "type": "function"
    },
    {
      "inputs": [
        {
          "internalType": "address",
          "name": "owner",
          "type": "address"
        },
        {
          "internalType": "uint256",
          "name": "index",
          "type": "uint256"
        }
      ],
      "name": "tokenOfOwnerByIndex",
      "outputs": [
        {
          "internalType": "uint256",
          "name": "",
          "type": "uint256"
        }
      ],
      "stateMutability": "view",
      "type": "function"
    },
    {
      "inputs": [
        {
          "internalType": "uint256",
          "name": "tokenId",
          "type": "uint256"
        }
      ],
      "name": "tokenURI",
      "outputs": [
        {
          "internalType": "string",
          "name": "result",
          "type": "string"
        }
      ],
      "stateMutability": "view",
      "type": "function"
    },
    {
      "inputs": [
        {
          "internalType": "uint256",
          "name": "",
          "type": "uint256"
        }
      ],
      "name": "tokens",
      "outputs": [
        {
          "internalType": "int128",
          "name": "x",
          "type": "int128"
        },
        {
          "internalType": "int128",
          "name": "y",
          "type": "int128"
        },
        {
          "internalType": "string",
          "name": "slogan",
          "type": "string"
        },
        {
          "internalType": "address",
          "name": "buyedAddress",
          "type": "address"
        },
        {
          "internalType": "address",
          "name": "givedAddress",
          "type": "address"
        },
        {
          "internalType": "bool",
          "name": "isBuyed",
          "type": "bool"
        },
        {
          "internalType": "bool",
          "name": "isGived",
          "type": "bool"
        }
      ],
      "stateMutability": "view",
      "type": "function"
    },
    {
      "inputs": [],
      "name": "totalSupply",
      "outputs": [
        {
          "internalType": "uint256",
          "name": "",
          "type": "uint256"
        }
      ],
      "stateMutability": "view",
      "type": "function"
    },
    {
      "inputs": [
        {
          "internalType": "address",
          "name": "from",
          "type": "address"
        },
        {
          "internalType": "address",
          "name": "to",
          "type": "address"
        },
        {
          "internalType": "uint256",
          "name": "tokenId",
          "type": "uint256"
        }
      ],
      "name": "transferFrom",
      "outputs": [],
      "stateMutability": "nonpayable",
      "type": "function"
    },
    {
      "inputs": [
        {
          "internalType": "address",
          "name": "newOwner",
          "type": "address"
        }
      ],
      "name": "transferOwnership",
      "outputs": [],
      "stateMutability": "nonpayable",
      "type": "function"
    }
  ],
  "transactionHash": "0xdd180b0b335d787255d67b1704add476a40e16e00aa1f671fe98d3322721a8a4",
  "args": [
    "0xAce84e2A50EfcF847c3a1d21018cecc2075E4a78"
  ],
  "solcInputHash": "7c817f5329d8b7d54bd1a530ae60eb2f",
  "bytecode": "0x60806040523480156200001157600080fd5b506040516200474638038062004746833981016040819052620000349162000b27565b6040518060400160405280600481526020016313185b9960e21b815250604051806040016040528060048152602001631310539160e21b81525081600090805190602001906200008692919062000a81565b5080516200009c90600190602084019062000a81565b505050620000b9620000b3620002b260201b60201c565b620002b6565b620000c48162000308565b6040805160e0810182526000808252602080830182815284518083018652838152948401948552606084018390526001600160a01b0386166080850152600160a0850181905260c0850152828052600b825283519051600f91820b6001600160801b03908116600160801b9290930b1602177fdf7de25b7f1fd6d0b5205f0e18f1f35bd7b8d84cce336588d184533ce43a6f769081559351805192949262000190927fdf7de25b7f1fd6d0b5205f0e18f1f35bd7b8d84cce336588d184533ce43a6f7792019062000a81565b5060608201516002820180546001600160a01b039283166001600160a01b031990911617905560808301516003909201805460a085015160c0909501511515600160a81b0260ff60a81b19951515600160a01b026001600160a81b03199092169484169490941717939093169190911790915582166000908152600c60205260409020819055620002228282620003dd565b604080516000808252602082018190528183015290517fe20b07b22286906698dfaed9341c2187f29ec7e118f5283cd0b81d3796fc0c179181900360600190a160408051600080825260208201526001600160a01b0384168183015290517f315581f8fced1d4d8d321a598f896b9f857c52dfefae7188fbfde64900d62d9b9181900360600190a1505062000c82565b3390565b600a80546001600160a01b038381166001600160a01b0319831681179093556040519116919082907f8be0079c531659141344cd1fd0a4f28419497f9722a3daafe3b4186f6b6457e090600090a35050565b600a546001600160a01b03163314620003685760405162461bcd60e51b815260206004820181905260248201527f4f776e61626c653a2063616c6c6572206973206e6f7420746865206f776e657260448201526064015b60405180910390fd5b6001600160a01b038116620003cf5760405162461bcd60e51b815260206004820152602660248201527f4f776e61626c653a206e6577206f776e657220697320746865207a65726f206160448201526564647265737360d01b60648201526084016200035f565b620003da81620002b6565b50565b620003ff8282604051806020016040528060008152506200040360201b60201c565b5050565b6200040f83836200047b565b6200041e6000848484620005d1565b620004765760405162461bcd60e51b815260206004820152603260248201526000805160206200472683398151915260448201527131b2b4bb32b91034b6b83632b6b2b73a32b960711b60648201526084016200035f565b505050565b6001600160a01b038216620004d35760405162461bcd60e51b815260206004820181905260248201527f4552433732313a206d696e7420746f20746865207a65726f206164647265737360448201526064016200035f565b6000818152600260205260409020546001600160a01b0316156200053a5760405162461bcd60e51b815260206004820152601c60248201527f4552433732313a20746f6b656e20616c7265616479206d696e7465640000000060448201526064016200035f565b62000548600083836200073a565b6001600160a01b03821660009081526003602052604081208054600192906200057390849062000bfa565b909155505060008181526002602052604080822080546001600160a01b0319166001600160a01b03861690811790915590518392907fddf252ad1be2c89b69c2b068fc378daa952ba7f163c4a11628f55a4df523b3ef908290a45050565b6000620005f2846001600160a01b03166200081660201b620021d21760201c565b156200072e57604051630a85bd0160e11b81526001600160a01b0385169063150b7a02906200062c90339089908890889060040162000b81565b602060405180830381600087803b1580156200064757600080fd5b505af19250505080156200067a575060408051601f3d908101601f19168201909252620006779181019062000b57565b60015b62000713573d808015620006ab576040519150601f19603f3d011682016040523d82523d6000602084013e620006b0565b606091505b5080516200070b5760405162461bcd60e51b815260206004820152603260248201526000805160206200472683398151915260448201527131b2b4bb32b91034b6b83632b6b2b73a32b960711b60648201526084016200035f565b805181602001fd5b6001600160e01b031916630a85bd0160e11b14905062000732565b5060015b949350505050565b620007528383836200047660201b620009941760201c565b6001600160a01b038316620007b057620007aa81600880546000838152600960205260408120829055600182018355919091527ff3f7a9fe364faab93b216da50a3214154f22a0a2b415b23a84c8169e8b636ee30155565b620007d6565b816001600160a01b0316836001600160a01b031614620007d657620007d683826200081c565b6001600160a01b038216620007f0576200047681620008c9565b826001600160a01b0316826001600160a01b0316146200047657620004768282620009a7565b3b151590565b600060016200083684620009f860201b62000f121760201c565b62000842919062000c15565b60008381526007602052604090205490915080821462000896576001600160a01b03841660009081526006602090815260408083208584528252808320548484528184208190558352600790915290208190555b5060009182526007602090815260408084208490556001600160a01b039094168352600681528383209183525290812055565b600854600090620008dd9060019062000c15565b600083815260096020526040812054600880549394509092849081106200091457634e487b7160e01b600052603260045260246000fd5b9060005260206000200154905080600883815481106200094457634e487b7160e01b600052603260045260246000fd5b60009182526020808320909101929092558281526009909152604080822084905585825281205560088054806200098b57634e487b7160e01b600052603160045260246000fd5b6001900381819060005260206000200160009055905550505050565b6000620009bf83620009f860201b62000f121760201c565b6001600160a01b039093166000908152600660209081526040808320868452825280832085905593825260079052919091209190915550565b60006001600160a01b03821662000a655760405162461bcd60e51b815260206004820152602a60248201527f4552433732313a2062616c616e636520717565727920666f7220746865207a65604482015269726f206164647265737360b01b60648201526084016200035f565b506001600160a01b031660009081526003602052604090205490565b82805462000a8f9062000c2f565b90600052602060002090601f01602090048101928262000ab3576000855562000afe565b82601f1062000ace57805160ff191683800117855562000afe565b8280016001018555821562000afe579182015b8281111562000afe57825182559160200191906001019062000ae1565b5062000b0c92915062000b10565b5090565b5b8082111562000b0c576000815560010162000b11565b60006020828403121562000b39578081fd5b81516001600160a01b038116811462000b50578182fd5b9392505050565b60006020828403121562000b69578081fd5b81516001600160e01b03198116811462000b50578182fd5b600060018060a01b0380871683526020818716818501528560408501526080606085015284519150816080850152825b8281101562000bcf5785810182015185820160a00152810162000bb1565b8281111562000be1578360a084870101525b5050601f01601f19169190910160a00195945050505050565b6000821982111562000c105762000c1062000c6c565b500190565b60008282101562000c2a5762000c2a62000c6c565b500390565b600181811c9082168062000c4457607f821691505b6020821081141562000c6657634e487b7160e01b600052602260045260246000fd5b50919050565b634e487b7160e01b600052601160045260246000fd5b613a948062000c926000396000f3fe6080604052600436106102045760003560e01c80637a98b16b11610118578063b88d4fde116100a0578063cf2650251161006f578063cf26502514610632578063d019b71314610652578063e8d3581614610672578063e985e9c514610692578063f2fde38b146106db57600080fd5b8063b88d4fde146105bd578063be29010d146105dd578063c87b56dd146105fd578063cb05b93e1461061d57600080fd5b80638da5cb5b116100e75780638da5cb5b1461050857806395d89b41146105265780639fefe7f41461053b578063a22cb4651461057d578063b3271d651461059d57600080fd5b80637a98b16b1461049c5780637e5a6be8146104af5780638b9c06b8146104cf5780638d859f3e146104ef57600080fd5b80632f745c591161019b5780634f6ccce71161016a5780634f6ccce7146103fa5780636352211e1461041a57806365f73bd71461043a57806370a0823114610467578063715018a61461048757600080fd5b80632f745c591461035a5780633411cf521461037a57806342842e0e146103a75780634f64b2be146103c757600080fd5b8063095ea7b3116101d7578063095ea7b3146102c65780630bf37818146102e857806318160ddd1461032557806323b872dd1461033a57600080fd5b806301ffc9a71461020957806306fdde031461023e5780630752881a14610260578063081812fc1461028e575b600080fd5b34801561021557600080fd5b50610229610224366004613037565b6106fb565b60405190151581526020015b60405180910390f35b34801561024a57600080fd5b50610253610726565b60405161023591906137a4565b34801561026c57600080fd5b5061028061027b36600461300e565b6107b8565b604051908152602001610235565b34801561029a57600080fd5b506102ae6102a9366004613169565b6107e9565b6040516001600160a01b039091168152602001610235565b3480156102d257600080fd5b506102e66102e136600461300e565b610883565b005b3480156102f457600080fd5b5061030b610303366004613169565b608081901c91565b60408051600f93840b81529190920b602082015201610235565b34801561033157600080fd5b50600854610280565b34801561034657600080fd5b506102e6610355366004612f20565b610999565b34801561036657600080fd5b5061028061037536600461300e565b6109ca565b34801561038657600080fd5b50610280610395366004612ecd565b600c6020526000908152604090205481565b3480156103b357600080fd5b506102e66103c2366004612f20565b610a60565b3480156103d357600080fd5b506103e76103e2366004613169565b610a7b565b604051610235979695949392919061374e565b34801561040657600080fd5b50610280610415366004613169565b610b60565b34801561042657600080fd5b506102ae610435366004613169565b610c01565b34801561044657600080fd5b5061045a610455366004612ecd565b610c78565b6040516102359190613659565b34801561047357600080fd5b50610280610482366004612ecd565b610f12565b34801561049357600080fd5b506102e6610f99565b6102e66104aa36600461306f565b610fcf565b3480156104bb57600080fd5b506102806104ca36600461306f565b61131b565b3480156104db57600080fd5b506103e76104ea36600461306f565b611344565b3480156104fb57600080fd5b506102806402540be40081565b34801561051457600080fd5b50600a546001600160a01b03166102ae565b34801561053257600080fd5b50610253611509565b34801561054757600080fd5b5061056b610556366004612ecd565b600d6020526000908152604090205460ff1681565b60405160ff9091168152602001610235565b34801561058957600080fd5b506102e6610598366004612fd4565b611518565b3480156105a957600080fd5b506102e66105b8366004613098565b6115dd565b3480156105c957600080fd5b506102e66105d8366004612f5b565b6117bf565b3480156105e957600080fd5b506103e76105f8366004612ecd565b6117f7565b34801561060957600080fd5b50610253610618366004613169565b6119c4565b34801561062957600080fd5b506102e6611c66565b34801561063e57600080fd5b5061025361064d36600461306f565b611cbf565b34801561065e57600080fd5b506102e661066d3660046130da565b611e12565b34801561067e57600080fd5b5061045a61068d366004613149565b611f20565b34801561069e57600080fd5b506102296106ad366004612eee565b6001600160a01b03918216600090815260056020908152604080832093909416825291909152205460ff1690565b3480156106e757600080fd5b506102e66106f6366004612ecd565b61213a565b60006001600160e01b0319821663780e9d6360e01b14806107205750610720826121d8565b92915050565b60606000805461073590613942565b80601f016020809104026020016040519081016040528092919081815260200182805461076190613942565b80156107ae5780601f10610783576101008083540402835291602001916107ae565b820191906000526020600020905b81548152906001019060200180831161079157829003601f168201915b5050505050905090565b600e60205281600052604060002081815481106107d457600080fd5b90600052602060002001600091509150505481565b6000818152600260205260408120546001600160a01b03166108675760405162461bcd60e51b815260206004820152602c60248201527f4552433732313a20617070726f76656420717565727920666f72206e6f6e657860448201526b34b9ba32b73a103a37b5b2b760a11b60648201526084015b60405180910390fd5b506000908152600460205260409020546001600160a01b031690565b600061088e82610c01565b9050806001600160a01b0316836001600160a01b031614156108fc5760405162461bcd60e51b815260206004820152602160248201527f4552433732313a20617070726f76616c20746f2063757272656e74206f776e656044820152603960f91b606482015260840161085e565b336001600160a01b0382161480610918575061091881336106ad565b61098a5760405162461bcd60e51b815260206004820152603860248201527f4552433732313a20617070726f76652063616c6c6572206973206e6f74206f7760448201527f6e6572206e6f7220617070726f76656420666f7220616c6c0000000000000000606482015260840161085e565b6109948383612228565b505050565b6109a33382612296565b6109bf5760405162461bcd60e51b815260040161085e9061383e565b61099483838361238d565b60006109d583610f12565b8210610a375760405162461bcd60e51b815260206004820152602b60248201527f455243373231456e756d657261626c653a206f776e657220696e646578206f7560448201526a74206f6620626f756e647360a81b606482015260840161085e565b506001600160a01b03919091166000908152600660209081526040808320938352929052205490565b610994838383604051806020016040528060008152506117bf565b600b6020526000908152604090208054600182018054600f83810b94600160801b909404900b929190610aad90613942565b80601f0160208091040260200160405190810160405280929190818152602001828054610ad990613942565b8015610b265780601f10610afb57610100808354040283529160200191610b26565b820191906000526020600020905b815481529060010190602001808311610b0957829003601f168201915b505050600284015460039094015492936001600160a01b0390811693908116925060ff600160a01b820481169250600160a81b9091041687565b6000610b6b60085490565b8210610bce5760405162461bcd60e51b815260206004820152602c60248201527f455243373231456e756d657261626c653a20676c6f62616c20696e646578206f60448201526b7574206f6620626f756e647360a01b606482015260840161085e565b60088281548110610bef57634e487b7160e01b600052603260045260246000fd5b90600052602060002001549050919050565b6000818152600260205260408120546001600160a01b0316806107205760405162461bcd60e51b815260206004820152602960248201527f4552433732313a206f776e657220717565727920666f72206e6f6e657869737460448201526832b73a103a37b5b2b760b91b606482015260840161085e565b6001600160a01b0381166000908152600e60209081526040808320805482518185028101850190935280835260609493830182828015610cd757602002820191906000526020600020905b815481526020019060010190808311610cc3575b50505050509050805167ffffffffffffffff811115610d0657634e487b7160e01b600052604160045260246000fd5b604051908082528060200260200182016040528015610d6e57816020015b6040805160e0810182526000808252602080830182905260609383018490529282018190526080820181905260a0820181905260c08201528252600019909201910181610d245790505b50915060005b81518160ff161015610f0b57600b6000838360ff1681518110610da757634e487b7160e01b600052603260045260246000fd5b6020908102919091018101518252818101929092526040908101600020815160e0810183528154600f81810b810b810b8352600160801b909104810b810b900b938101939093526001810180549192840191610e0290613942565b80601f0160208091040260200160405190810160405280929190818152602001828054610e2e90613942565b8015610e7b5780601f10610e5057610100808354040283529160200191610e7b565b820191906000526020600020905b815481529060010190602001808311610e5e57829003601f168201915b505050918352505060028201546001600160a01b039081166020830152600390920154918216604082015260ff600160a01b8304811615156060830152600160a81b90920482161515608090910152845185918416908110610eed57634e487b7160e01b600052603260045260246000fd5b60200260200101819052508080610f0390613992565b915050610d74565b5050919050565b60006001600160a01b038216610f7d5760405162461bcd60e51b815260206004820152602a60248201527f4552433732313a2062616c616e636520717565727920666f7220746865207a65604482015269726f206164647265737360b01b606482015260840161085e565b506001600160a01b031660009081526003602052604090205490565b600a546001600160a01b03163314610fc35760405162461bcd60e51b815260040161085e90613809565b610fcd6000612538565b565b336000818152600c60209081526040808320548352600b9091529020600301546001600160a01b03161461103a5760405162461bcd60e51b815260206004820152601260248201527118d85b1b195c881a5cc81b9bc819da5d995960721b604482015260640161085e565b336000908152600d6020526040902054600260ff909116106110985760405162461bcd60e51b815260206004820152601760248201527618d85b1b195c881a5cc8185b1c9958591e48189d5e5959604a1b604482015260640161085e565b60006110a4838361131b565b6000818152600b6020526040902060030154909150600160a01b900460ff16156111015760405162461bcd60e51b815260206004820152600e60248201526d1d1bdad95b881a5cc8189d5e595960921b604482015260640161085e565b6402540be40034101561111357600080fd5b6040518060e0016040528084600f0b815260200183600f0b815260200160405180602001604052806000815250815260200161114c3390565b6001600160a01b0316815260006020808301829052600160408085018290526060909401839052858352600b825291839020845185830151600f90810b6001600160801b03908116600160801b029290910b161781559284015180516111b9938501929190910190612d69565b5060608201516002820180546001600160a01b0319166001600160a01b0392831617905560808301516003909201805460a085015160c090950151939092166001600160a81b031990921691909117600160a01b931515939093029290921760ff60a81b1916600160a81b91151591909102179055336000818152600e6020908152604080832080546001818101835591855283852001869055938352600d9091528120805490919061127090849060ff166138a7565b92506101000a81548160ff021916908360ff1602179055506402540be4003411156112d257336108fc6112a86402540be400346138ff565b6040518115909202916000818181858888f193505050501580156112d0573d6000803e3d6000fd5b505b60408051600f85810b825284900b6020820152338183015290517fe20b07b22286906698dfaed9341c2187f29ec7e118f5283cd0b81d3796fc0c179181900360600190a1505050565b6001600160801b03166fffffffffffffffffffffffffffffffff1960809290921b919091161790565b6000806060600080600080600061135b8a8a61131b565b6000818152600b60209081526040808320815160e0810183528154600f81810b810b810b8352600160801b909104810b810b900b93810193909352600181018054959650939492939092918401916113b290613942565b80601f01602080910402602001604051908101604052809291908181526020018280546113de90613942565b801561142b5780601f106114005761010080835404028352916020019161142b565b820191906000526020600020905b81548152906001019060200180831161140e57829003601f168201915b505050505081526020016002820160009054906101000a90046001600160a01b03166001600160a01b03166001600160a01b031681526020016003820160009054906101000a90046001600160a01b03166001600160a01b03166001600160a01b031681526020016003820160149054906101000a900460ff161515151581526020016003820160159054906101000a900460ff161515151581525050905080600001519850806020015198508060400151965080606001519550806080015194508060a0015193508060c001519250505092959891949750929550565b60606001805461073590613942565b6001600160a01b0382163314156115715760405162461bcd60e51b815260206004820152601960248201527f4552433732313a20617070726f766520746f2063616c6c657200000000000000604482015260640161085e565b3360008181526005602090815260408083206001600160a01b03871680855290835292819020805460ff191686151590811790915590519081529192917f17307eab39ab6107e8899845ad3d59bd9653f200f220920489ca2b5937696c31910160405180910390a35050565b336000818152600c60209081526040808320548352600b9091529020600301546001600160a01b0316146116485760405162461bcd60e51b815260206004820152601260248201527118d85b1b195c881a5cc81b9bc819da5d995960721b604482015260640161085e565b6000611654848461131b565b6000818152600b60205260409020600201549091506001600160a01b031633146116c05760405162461bcd60e51b815260206004820152601e60248201527f63616c6c6572206469646e2774206275796564207468697320746f6b656e0000604482015260640161085e565b6000818152600b6020526040902060030154600160a81b900460ff161561171a5760405162461bcd60e51b815260206004820152600e60248201526d1d1bdad95b881a5cc819da5d995960921b604482015260640161085e565b6000818152600b602090815260408083206003018054600161ff0160a01b0319166001600160a01b038716908117600160a81b179091558352600c9091529020819055611767828261258a565b60408051600f86810b825285900b60208201526001600160a01b038416918101919091527f315581f8fced1d4d8d321a598f896b9f857c52dfefae7188fbfde64900d62d9b906060015b60405180910390a150505050565b6117c93383612296565b6117e55760405162461bcd60e51b815260040161085e9061383e565b6117f1848484846125a8565b50505050565b6001600160a01b0381166000908152600c6020908152604080832054808452600b8352818420825160e0810184528154600f81810b810b810b8352600160801b909104810b810b900b9481019490945260018101805486956060958795869586958695929486949093908401919061186e90613942565b80601f016020809104026020016040519081016040528092919081815260200182805461189a90613942565b80156118e75780601f106118bc576101008083540402835291602001916118e7565b820191906000526020600020905b8154815290600101906020018083116118ca57829003601f168201915b505050505081526020016002820160009054906101000a90046001600160a01b03166001600160a01b03166001600160a01b031681526020016003820160009054906101000a90046001600160a01b03166001600160a01b03166001600160a01b031681526020016003820160149054906101000a900460ff161515151581526020016003820160159054906101000a900460ff161515151581525050905080600001519850806020015197508060400151965080606001519550806080015194508060a0015193508060c0015192505050919395979092949650565b6000818152600b6020526040902060030154606090600160a01b900460ff16611a1b5760405162461bcd60e51b81526020600482015260096024820152681b9bdd08189d5e595960ba1b604482015260640161085e565b608082901c826000611a2d8383611cbf565b604051602001611a3d91906133eb565b60408051808303601f190181529181526000878152600b6020522060030154909150606090600160a81b900460ff1615611b31576000868152600b60205260409020600101805460609190611a9190613942565b15159050611ad3575060408051808201909152601981527f3c6469763e6c6f6f746073206275696c6465723c2f6469763e000000000000006020820152611b07565b6000878152600b60209081526040918290209151611af59260010191016132df565b60405160208183030381529060405290505b8083604051602001611b1a9291906131c9565b604051602081830303815290604052915050611c0e565b611b39612ded565b604051641e3234bb1f60d91b60208201526531313131313160d01b6025820152651e17b234bb1f60d11b602b82015260310160408051808303601f1901815291815290825251611b8d9084906020016132a2565b60408051601f1981840301815291815260208381019283528151641e3234bb1f60d91b818301526519191919191960d11b6025820152651e17b234bb1f60d11b602b8201528251601181830301815260319091018352848301819052845193519251611bfb949392016131f8565b6040516020818303038152906040529150505b600081604051602001611c219190613432565b6040516020818303038152906040529050611c3b816125db565b604051602001611c4b91906133a6565b60405160208183030381529060405295505050505050919050565b600a546001600160a01b03163314611c905760405162461bcd60e51b815260040161085e90613809565b60405133904780156108fc02916000818181858888f19350505050158015611cbc573d6000803e3d6000fd5b50565b60606000604051806020016040528060008152509050600084600f0b1315611cfb57506040805180820190915260018152604560f81b60208201525b600084600f0b1215611d2157506040805180820190915260018152605760f81b60208201525b6060600085600f0b12611d4157611d3a85600f0b61274f565b9050611d53565b611d5085600f0b60000361274f565b90505b60408051602081019091526000808252600f86900b1315611d8857506040805180820190915260018152602760f91b60208201525b600085600f0b1215611dae57506040805180820190915260018152605360f81b60208201525b6060600086600f0b12611dce57611dc786600f0b61274f565b9050611de0565b611ddd86600f0b60000361274f565b90505b83838383604051602001611df7949392919061323b565b60405160208183030381529060405294505050505092915050565b6000611e1e848461131b565b905033611e2a82610c01565b6001600160a01b031614611e805760405162461bcd60e51b815260206004820152601d60248201527f746f6b656e206973206e6f742062656c6f6e6720746f2063616c6c6572000000604482015260640161085e565b610100825110611ec75760405162461bcd60e51b8152602060048201526012602482015271736c6f67616e20697320746f6f206c6f6e6760701b604482015260640161085e565b6000818152600b602090815260409091208351611eec92600190920191850190612d69565b507f33aa80b38af4e0a1e2607b5743673d59a16ae46aecc240c828d6e71bddaf67628484846040516117b193929190613729565b60608160ff1667ffffffffffffffff811115611f4c57634e487b7160e01b600052604160045260246000fd5b604051908082528060200260200182016040528015611fb457816020015b6040805160e0810182526000808252602080830182905260609383018490529282018190526080820181905260a0820181905260c08201528252600019909201910181611f6a5790505b50905060005b8260ff168160ff16101561213457600b6000611fda60008660000b61131b565b81526020808201929092526040908101600020815160e0810183528154600f81810b810b810b8352600160801b909104810b810b900b93810193909352600181018054919284019161202b90613942565b80601f016020809104026020016040519081016040528092919081815260200182805461205790613942565b80156120a45780601f10612079576101008083540402835291602001916120a4565b820191906000526020600020905b81548152906001019060200180831161208757829003601f168201915b505050918352505060028201546001600160a01b039081166020830152600390920154918216604082015260ff600160a01b8304811615156060830152600160a81b9092048216151560809091015283518491841690811061211657634e487b7160e01b600052603260045260246000fd5b6020026020010181905250808061212c90613992565b915050611fba565b50919050565b600a546001600160a01b031633146121645760405162461bcd60e51b815260040161085e90613809565b6001600160a01b0381166121c95760405162461bcd60e51b815260206004820152602660248201527f4f776e61626c653a206e6577206f776e657220697320746865207a65726f206160448201526564647265737360d01b606482015260840161085e565b611cbc81612538565b3b151590565b60006001600160e01b031982166380ac58cd60e01b148061220957506001600160e01b03198216635b5e139f60e01b145b8061072057506301ffc9a760e01b6001600160e01b0319831614610720565b600081815260046020526040902080546001600160a01b0319166001600160a01b038416908117909155819061225d82610c01565b6001600160a01b03167f8c5be1e5ebec7d5bd14f71427d1e84f3dd0314c0f7b2291e5b200ac8c7c3b92560405160405180910390a45050565b6000818152600260205260408120546001600160a01b031661230f5760405162461bcd60e51b815260206004820152602c60248201527f4552433732313a206f70657261746f7220717565727920666f72206e6f6e657860448201526b34b9ba32b73a103a37b5b2b760a11b606482015260840161085e565b600061231a83610c01565b9050806001600160a01b0316846001600160a01b031614806123555750836001600160a01b031661234a846107e9565b6001600160a01b0316145b8061238557506001600160a01b0380821660009081526005602090815260408083209388168352929052205460ff165b949350505050565b826001600160a01b03166123a082610c01565b6001600160a01b0316146124085760405162461bcd60e51b815260206004820152602960248201527f4552433732313a207472616e73666572206f6620746f6b656e2074686174206960448201526839903737ba1037bbb760b91b606482015260840161085e565b6001600160a01b03821661246a5760405162461bcd60e51b8152602060048201526024808201527f4552433732313a207472616e7366657220746f20746865207a65726f206164646044820152637265737360e01b606482015260840161085e565b612475838383612869565b612480600082612228565b6001600160a01b03831660009081526003602052604081208054600192906124a99084906138ff565b90915550506001600160a01b03821660009081526003602052604081208054600192906124d790849061388f565b909155505060008181526002602052604080822080546001600160a01b0319166001600160a01b0386811691821790925591518493918716917fddf252ad1be2c89b69c2b068fc378daa952ba7f163c4a11628f55a4df523b3ef91a4505050565b600a80546001600160a01b038381166001600160a01b0319831681179093556040519116919082907f8be0079c531659141344cd1fd0a4f28419497f9722a3daafe3b4186f6b6457e090600090a35050565b6125a4828260405180602001604052806000815250612921565b5050565b6125b384848461238d565b6125bf84848484612954565b6117f15760405162461bcd60e51b815260040161085e906137b7565b60608151600014156125fb57505060408051602081019091526000815290565b6000604051806060016040528060408152602001613a1f604091399050600060038451600261262a919061388f565b61263491906138cc565b61263f9060046138e0565b9050600061264e82602061388f565b67ffffffffffffffff81111561267457634e487b7160e01b600052604160045260246000fd5b6040519080825280601f01601f19166020018201604052801561269e576020820181803683370190505b509050818152600183018586518101602084015b8183101561270a576003830192508251603f8160121c168501518253600182019150603f81600c1c168501518253600182019150603f8160061c168501518253600182019150603f81168501518253506001016126b2565b600389510660018114612724576002811461273557612741565b613d3d60f01b600119830152612741565b603d60f81b6000198301525b509398975050505050505050565b6060816127735750506040805180820190915260018152600360fc1b602082015290565b8160005b811561279d578061278781613977565b91506127969050600a836138cc565b9150612777565b60008167ffffffffffffffff8111156127c657634e487b7160e01b600052604160045260246000fd5b6040519080825280601f01601f1916602001820160405280156127f0576020820181803683370190505b5090505b8415612385576128056001836138ff565b9150612812600a866139b2565b61281d90603061388f565b60f81b81838151811061284057634e487b7160e01b600052603260045260246000fd5b60200101906001600160f81b031916908160001a905350612862600a866138cc565b94506127f4565b6001600160a01b0383166128c4576128bf81600880546000838152600960205260408120829055600182018355919091527ff3f7a9fe364faab93b216da50a3214154f22a0a2b415b23a84c8169e8b636ee30155565b6128e7565b816001600160a01b0316836001600160a01b0316146128e7576128e78382612a61565b6001600160a01b0382166128fe5761099481612afe565b826001600160a01b0316826001600160a01b031614610994576109948282612bd7565b61292b8383612c1b565b6129386000848484612954565b6109945760405162461bcd60e51b815260040161085e906137b7565b60006001600160a01b0384163b15612a5657604051630a85bd0160e11b81526001600160a01b0385169063150b7a029061299890339089908890889060040161361c565b602060405180830381600087803b1580156129b257600080fd5b505af19250505080156129e2575060408051601f3d908101601f191682019092526129df91810190613053565b60015b612a3c573d808015612a10576040519150601f19603f3d011682016040523d82523d6000602084013e612a15565b606091505b508051612a345760405162461bcd60e51b815260040161085e906137b7565b805181602001fd5b6001600160e01b031916630a85bd0160e11b149050612385565b506001949350505050565b60006001612a6e84610f12565b612a7891906138ff565b600083815260076020526040902054909150808214612acb576001600160a01b03841660009081526006602090815260408083208584528252808320548484528184208190558352600790915290208190555b5060009182526007602090815260408084208490556001600160a01b039094168352600681528383209183525290812055565b600854600090612b10906001906138ff565b60008381526009602052604081205460088054939450909284908110612b4657634e487b7160e01b600052603260045260246000fd5b906000526020600020015490508060088381548110612b7557634e487b7160e01b600052603260045260246000fd5b6000918252602080832090910192909255828152600990915260408082208490558582528120556008805480612bbb57634e487b7160e01b600052603160045260246000fd5b6001900381819060005260206000200160009055905550505050565b6000612be283610f12565b6001600160a01b039093166000908152600660209081526040808320868452825280832085905593825260079052919091209190915550565b6001600160a01b038216612c715760405162461bcd60e51b815260206004820181905260248201527f4552433732313a206d696e7420746f20746865207a65726f2061646472657373604482015260640161085e565b6000818152600260205260409020546001600160a01b031615612cd65760405162461bcd60e51b815260206004820152601c60248201527f4552433732313a20746f6b656e20616c7265616479206d696e74656400000000604482015260640161085e565b612ce260008383612869565b6001600160a01b0382166000908152600360205260408120805460019290612d0b90849061388f565b909155505060008181526002602052604080822080546001600160a01b0319166001600160a01b03861690811790915590518392907fddf252ad1be2c89b69c2b068fc378daa952ba7f163c4a11628f55a4df523b3ef908290a45050565b828054612d7590613942565b90600052602060002090601f016020900481019282612d975760008555612ddd565b82601f10612db057805160ff1916838001178555612ddd565b82800160010185558215612ddd579182015b82811115612ddd578251825591602001919060010190612dc2565b50612de9929150612e14565b5090565b60405180606001604052806003905b6060815260200190600190039081612dfc5790505090565b5b80821115612de95760008155600101612e15565b600067ffffffffffffffff80841115612e4457612e446139f2565b604051601f8501601f19908116603f01168101908282118183101715612e6c57612e6c6139f2565b81604052809350858152868686011115612e8557600080fd5b858560208301376000602087830101525050509392505050565b80356001600160a01b0381168114612eb657600080fd5b919050565b8035600f81900b8114612eb657600080fd5b600060208284031215612ede578081fd5b612ee782612e9f565b9392505050565b60008060408385031215612f00578081fd5b612f0983612e9f565b9150612f1760208401612e9f565b90509250929050565b600080600060608486031215612f34578081fd5b612f3d84612e9f565b9250612f4b60208501612e9f565b9150604084013590509250925092565b60008060008060808587031215612f70578081fd5b612f7985612e9f565b9350612f8760208601612e9f565b925060408501359150606085013567ffffffffffffffff811115612fa9578182fd5b8501601f81018713612fb9578182fd5b612fc887823560208401612e29565b91505092959194509250565b60008060408385031215612fe6578182fd5b612fef83612e9f565b915060208301358015158114613003578182fd5b809150509250929050565b60008060408385031215613020578182fd5b61302983612e9f565b946020939093013593505050565b600060208284031215613048578081fd5b8135612ee781613a08565b600060208284031215613064578081fd5b8151612ee781613a08565b60008060408385031215613081578182fd5b61308a83612ebb565b9150612f1760208401612ebb565b6000806000606084860312156130ac578283fd5b6130b584612ebb565b92506130c360208501612ebb565b91506130d160408501612e9f565b90509250925092565b6000806000606084860312156130ee578283fd5b6130f784612ebb565b925061310560208501612ebb565b9150604084013567ffffffffffffffff811115613120578182fd5b8401601f81018613613130578182fd5b61313f86823560208401612e29565b9150509250925092565b60006020828403121561315a578081fd5b813580820b8114612ee7578182fd5b60006020828403121561317a578081fd5b5035919050565b60008151808452613199816020860160208601613916565b601f01601f19169290920160200192915050565b600081516131bf818560208601613916565b9290920192915050565b600083516131db818460208801613916565b8351908301906131ef818360208801613916565b01949350505050565b6000845161320a818460208901613916565b84519083019061321e818360208901613916565b8451910190613231818360208801613916565b0195945050505050565b6000855161324d818460208a01613916565b855190830190613261818360208a01613916565b600b60fa1b9101908152845161327e816001840160208901613916565b8451910190613294816001840160208801613916565b016001019695505050505050565b641e3234bb1f60d91b8152600082516132c2816005850160208701613916565b651e17b234bb1f60d11b6005939091019283015250600b01919050565b641e3234bb1f60d91b81526000600581845483600182811c91508083168061330857607f831692505b602080841082141561332857634e487b7160e01b88526022600452602488fd5b81801561333c576001811461335157613381565b60ff1986168a890152848a0188019650613381565b60008b815260209020895b868110156133775781548c82018b015290850190830161335c565b505087858b010196505b50505050505061339d81651e17b234bb1f60d11b815260060190565b95945050505050565b7f646174613a6170706c69636174696f6e2f7376673b6261736536342c000000008152600082516133de81601c850160208701613916565b91909101601c0192915050565b6d078c8d2ec7c98dedee8d8c2dcc8560931b81526000825161341481600e850160208701613916565b66149e17b234bb1f60c91b600e939091019283015250601501919050565b7f3c73766720786d6c6e733d22687474703a2f2f7777772e77332e6f72672f323081527f30302f73766722207072657365727665417370656374526174696f3d22784d6960208201527f6e594d696e206d656574222076696577426f783d22302030203335302033353060408201527f223e3c726563742077696474683d223130302522206865696768743d2231303060608201527f25222066696c6c3d22626c61636b22202f3e3c666f726569676e4f626a65637460808201527f2077696474683d2233353022206865696768743d223335302220783d2230222060a08201527f793d2230223e3c626f647920786d6c6e733d22687474703a2f2f7777772e773360c08201527f2e6f72672f313939392f7868746d6c223e3c7374796c653e2e62617365207b2060e08201527f636f6c6f723a2077686974653b20666f6e742d66616d696c793a2073657269666101008201527f3b20666f6e742d73697a653a20313470783b206d617267696e3a20313070783b6101208201527f207d3c2f7374796c653e3c64697620636c6173733d2262617365223e000000006101408201526000612ee76135e761015c8401856131ad565b7f3c2f6469763e3c2f626f64793e3c2f666f726569676e4f626a6563743e3c2f738152623b339f60e91b602082015260230190565b6001600160a01b038581168252841660208201526040810183905260806060820181905260009061364f90830184613181565b9695505050505050565b60006020808301818452808551808352604092508286019150828160051b870101848801865b8381101561371b57888303603f1901855281518051600f90810b855288820151900b888501528681015160e0888601819052906136be82870182613181565b6060848101516001600160a01b03169088015260808085015191935091506136f0828801826001600160a01b03169052565b505060a08281015115159086015260c09182015115159190940152938601939086019060010161367f565b509098975050505050505050565b83600f0b815282600f0b602082015260606040820152600061339d6060830184613181565b87600f0b815286600f0b602082015260e06040820152600061377360e0830188613181565b6001600160a01b03968716606084015294909516608082015291151560a0830152151560c090910152949350505050565b602081526000612ee76020830184613181565b60208082526032908201527f4552433732313a207472616e7366657220746f206e6f6e20455243373231526560408201527131b2b4bb32b91034b6b83632b6b2b73a32b960711b606082015260800190565b6020808252818101527f4f776e61626c653a2063616c6c6572206973206e6f7420746865206f776e6572604082015260600190565b60208082526031908201527f4552433732313a207472616e736665722063616c6c6572206973206e6f74206f6040820152701ddb995c881b9bdc88185c1c1c9bdd9959607a1b606082015260800190565b600082198211156138a2576138a26139c6565b500190565b600060ff821660ff84168060ff038211156138c4576138c46139c6565b019392505050565b6000826138db576138db6139dc565b500490565b60008160001904831182151516156138fa576138fa6139c6565b500290565b600082821015613911576139116139c6565b500390565b60005b83811015613931578181015183820152602001613919565b838111156117f15750506000910152565b600181811c9082168061395657607f821691505b6020821081141561213457634e487b7160e01b600052602260045260246000fd5b600060001982141561398b5761398b6139c6565b5060010190565b600060ff821660ff8114156139a9576139a96139c6565b60010192915050565b6000826139c1576139c16139dc565b500690565b634e487b7160e01b600052601160045260246000fd5b634e487b7160e01b600052601260045260246000fd5b634e487b7160e01b600052604160045260246000fd5b6001600160e01b031981168114611cbc57600080fdfe4142434445464748494a4b4c4d4e4f505152535455565758595a6162636465666768696a6b6c6d6e6f707172737475767778797a303132333435363738392b2fa26469706673582212204856e8301b04475795bb57e50dcf250d7c242ff7fe6940cc91e018ed7903ccfe64736f6c634300080400334552433732313a207472616e7366657220746f206e6f6e204552433732315265",
  "devdoc": {
    "kind": "dev",
    "methods": {
      "approve(address,uint256)": {
        "details": "See {IERC721-approve}."
      },
      "balanceOf(address)": {
        "details": "See {IERC721-balanceOf}."
      },
      "getApproved(uint256)": {
        "details": "See {IERC721-getApproved}."
      },
      "isApprovedForAll(address,address)": {
        "details": "See {IERC721-isApprovedForAll}."
      },
      "name()": {
        "details": "See {IERC721Metadata-name}."
      },
      "owner()": {
        "details": "Returns the address of the current owner."
      },
      "ownerOf(uint256)": {
        "details": "See {IERC721-ownerOf}."
      },
      "renounceOwnership()": {
        "details": "Leaves the contract without owner. It will not be possible to call `onlyOwner` functions anymore. Can only be called by the current owner. NOTE: Renouncing ownership will leave the contract without an owner, thereby removing any functionality that is only available to the owner."
      },
      "safeTransferFrom(address,address,uint256)": {
        "details": "See {IERC721-safeTransferFrom}."
      },
      "safeTransferFrom(address,address,uint256,bytes)": {
        "details": "See {IERC721-safeTransferFrom}."
      },
      "setApprovalForAll(address,bool)": {
        "details": "See {IERC721-setApprovalForAll}."
      },
      "supportsInterface(bytes4)": {
        "details": "See {IERC165-supportsInterface}."
      },
      "symbol()": {
        "details": "See {IERC721Metadata-symbol}."
      },
      "tokenByIndex(uint256)": {
        "details": "See {IERC721Enumerable-tokenByIndex}."
      },
      "tokenOfOwnerByIndex(address,uint256)": {
        "details": "See {IERC721Enumerable-tokenOfOwnerByIndex}."
      },
      "tokenURI(uint256)": {
        "details": "See {IERC721Metadata-tokenURI}."
      },
      "totalSupply()": {
        "details": "See {IERC721Enumerable-totalSupply}."
      },
      "transferFrom(address,address,uint256)": {
        "details": "See {IERC721-transferFrom}."
      },
      "transferOwnership(address)": {
        "details": "Transfers ownership of the contract to a new account (`newOwner`). Can only be called by the current owner."
      }
    },
    "version": 1
  },
  "userdoc": {
    "kind": "user",
    "methods": {},
    "version": 1
  },
  "storageLayout": {
    "storage": [
      {
        "astId": 129,
        "contract": "contracts/Land.sol:Land",
        "label": "_name",
        "offset": 0,
        "slot": "0",
        "type": "t_string_storage"
      },
      {
        "astId": 131,
        "contract": "contracts/Land.sol:Land",
        "label": "_symbol",
        "offset": 0,
        "slot": "1",
        "type": "t_string_storage"
      },
      {
        "astId": 135,
        "contract": "contracts/Land.sol:Land",
        "label": "_owners",
        "offset": 0,
        "slot": "2",
        "type": "t_mapping(t_uint256,t_address)"
      },
      {
        "astId": 139,
        "contract": "contracts/Land.sol:Land",
        "label": "_balances",
        "offset": 0,
        "slot": "3",
        "type": "t_mapping(t_address,t_uint256)"
      },
      {
        "astId": 143,
        "contract": "contracts/Land.sol:Land",
        "label": "_tokenApprovals",
        "offset": 0,
        "slot": "4",
        "type": "t_mapping(t_uint256,t_address)"
      },
      {
        "astId": 149,
        "contract": "contracts/Land.sol:Land",
        "label": "_operatorApprovals",
        "offset": 0,
        "slot": "5",
        "type": "t_mapping(t_address,t_mapping(t_address,t_bool))"
      },
      {
        "astId": 1068,
        "contract": "contracts/Land.sol:Land",
        "label": "_ownedTokens",
        "offset": 0,
        "slot": "6",
        "type": "t_mapping(t_address,t_mapping(t_uint256,t_uint256))"
      },
      {
        "astId": 1072,
        "contract": "contracts/Land.sol:Land",
        "label": "_ownedTokensIndex",
        "offset": 0,
        "slot": "7",
        "type": "t_mapping(t_uint256,t_uint256)"
      },
      {
        "astId": 1075,
        "contract": "contracts/Land.sol:Land",
        "label": "_allTokens",
        "offset": 0,
        "slot": "8",
        "type": "t_array(t_uint256)dyn_storage"
      },
      {
        "astId": 1079,
        "contract": "contracts/Land.sol:Land",
        "label": "_allTokensIndex",
        "offset": 0,
        "slot": "9",
        "type": "t_mapping(t_uint256,t_uint256)"
      },
      {
        "astId": 7,
        "contract": "contracts/Land.sol:Land",
        "label": "_owner",
        "offset": 0,
        "slot": "10",
        "type": "t_address"
      },
      {
        "astId": 2162,
        "contract": "contracts/Land.sol:Land",
        "label": "tokens",
        "offset": 0,
        "slot": "11",
        "type": "t_mapping(t_uint256,t_struct(Token)2150_storage)"
      },
      {
        "astId": 2166,
        "contract": "contracts/Land.sol:Land",
        "label": "gived",
        "offset": 0,
        "slot": "12",
        "type": "t_mapping(t_address,t_uint256)"
      },
      {
        "astId": 2170,
        "contract": "contracts/Land.sol:Land",
        "label": "buyCount",
        "offset": 0,
        "slot": "13",
        "type": "t_mapping(t_address,t_uint8)"
      },
      {
        "astId": 2175,
        "contract": "contracts/Land.sol:Land",
        "label": "buyTokens",
        "offset": 0,
        "slot": "14",
        "type": "t_mapping(t_address,t_array(t_uint256)dyn_storage)"
      }
    ],
    "types": {
      "t_address": {
        "encoding": "inplace",
        "label": "address",
        "numberOfBytes": "20"
      },
      "t_array(t_uint256)dyn_storage": {
        "base": "t_uint256",
        "encoding": "dynamic_array",
        "label": "uint256[]",
        "numberOfBytes": "32"
      },
      "t_bool": {
        "encoding": "inplace",
        "label": "bool",
        "numberOfBytes": "1"
      },
      "t_int128": {
        "encoding": "inplace",
        "label": "int128",
        "numberOfBytes": "16"
      },
      "t_mapping(t_address,t_array(t_uint256)dyn_storage)": {
        "encoding": "mapping",
        "key": "t_address",
        "label": "mapping(address => uint256[])",
        "numberOfBytes": "32",
        "value": "t_array(t_uint256)dyn_storage"
      },
      "t_mapping(t_address,t_bool)": {
        "encoding": "mapping",
        "key": "t_address",
        "label": "mapping(address => bool)",
        "numberOfBytes": "32",
        "value": "t_bool"
      },
      "t_mapping(t_address,t_mapping(t_address,t_bool))": {
        "encoding": "mapping",
        "key": "t_address",
        "label": "mapping(address => mapping(address => bool))",
        "numberOfBytes": "32",
        "value": "t_mapping(t_address,t_bool)"
      },
      "t_mapping(t_address,t_mapping(t_uint256,t_uint256))": {
        "encoding": "mapping",
        "key": "t_address",
        "label": "mapping(address => mapping(uint256 => uint256))",
        "numberOfBytes": "32",
        "value": "t_mapping(t_uint256,t_uint256)"
      },
      "t_mapping(t_address,t_uint256)": {
        "encoding": "mapping",
        "key": "t_address",
        "label": "mapping(address => uint256)",
        "numberOfBytes": "32",
        "value": "t_uint256"
      },
      "t_mapping(t_address,t_uint8)": {
        "encoding": "mapping",
        "key": "t_address",
        "label": "mapping(address => uint8)",
        "numberOfBytes": "32",
        "value": "t_uint8"
      },
      "t_mapping(t_uint256,t_address)": {
        "encoding": "mapping",
        "key": "t_uint256",
        "label": "mapping(uint256 => address)",
        "numberOfBytes": "32",
        "value": "t_address"
      },
      "t_mapping(t_uint256,t_struct(Token)2150_storage)": {
        "encoding": "mapping",
        "key": "t_uint256",
        "label": "mapping(uint256 => struct Land.Token)",
        "numberOfBytes": "32",
        "value": "t_struct(Token)2150_storage"
      },
      "t_mapping(t_uint256,t_uint256)": {
        "encoding": "mapping",
        "key": "t_uint256",
        "label": "mapping(uint256 => uint256)",
        "numberOfBytes": "32",
        "value": "t_uint256"
      },
      "t_string_storage": {
        "encoding": "bytes",
        "label": "string",
        "numberOfBytes": "32"
      },
      "t_struct(Token)2150_storage": {
        "encoding": "inplace",
        "label": "struct Land.Token",
        "members": [
          {
            "astId": 2137,
            "contract": "contracts/Land.sol:Land",
            "label": "x",
            "offset": 0,
            "slot": "0",
            "type": "t_int128"
          },
          {
            "astId": 2139,
            "contract": "contracts/Land.sol:Land",
            "label": "y",
            "offset": 16,
            "slot": "0",
            "type": "t_int128"
          },
          {
            "astId": 2141,
            "contract": "contracts/Land.sol:Land",
            "label": "slogan",
            "offset": 0,
            "slot": "1",
            "type": "t_string_storage"
          },
          {
            "astId": 2143,
            "contract": "contracts/Land.sol:Land",
            "label": "buyedAddress",
            "offset": 0,
            "slot": "2",
            "type": "t_address"
          },
          {
            "astId": 2145,
            "contract": "contracts/Land.sol:Land",
            "label": "givedAddress",
            "offset": 0,
            "slot": "3",
            "type": "t_address"
          },
          {
            "astId": 2147,
            "contract": "contracts/Land.sol:Land",
            "label": "isBuyed",
            "offset": 20,
            "slot": "3",
            "type": "t_bool"
          },
          {
            "astId": 2149,
            "contract": "contracts/Land.sol:Land",
            "label": "isGived",
            "offset": 21,
            "slot": "3",
            "type": "t_bool"
          }
        ],
        "numberOfBytes": "128"
      },
      "t_uint256": {
        "encoding": "inplace",
        "label": "uint256",
        "numberOfBytes": "32"
      },
      "t_uint8": {
        "encoding": "inplace",
        "label": "uint8",
        "numberOfBytes": "1"
      }
    }
  }
}