{
  "address": "0x6429fc1862E4BE91F0b6472a55dD090588BA1035",
  "abi": [
    {
      "inputs": [
        {
          "internalType": "address",
          "name": "_owner",
          "type": "address"
        },
        {
          "internalType": "address",
          "name": "_startUp",
          "type": "address"
        }
      ],
      "stateMutability": "nonpayable",
      "type": "constructor"
    },
    {
      "anonymous": false,
      "inputs": [
        {
          "indexed": true,
          "internalType": "address",
          "name": "owner",
          "type": "address"
        },
        {
          "indexed": true,
          "internalType": "address",
          "name": "approved",
          "type": "address"
        },
        {
          "indexed": true,
          "internalType": "uint256",
          "name": "tokenId",
          "type": "uint256"
        }
      ],
      "name": "Approval",
      "type": "event"
    },
    {
      "anonymous": false,
      "inputs": [
        {
          "indexed": true,
          "internalType": "address",
          "name": "owner",
          "type": "address"
        },
        {
          "indexed": true,
          "internalType": "address",
          "name": "operator",
          "type": "address"
        },
        {
          "indexed": false,
          "internalType": "bool",
          "name": "approved",
          "type": "bool"
        }
      ],
      "name": "ApprovalForAll",
      "type": "event"
    },
    {
      "anonymous": false,
      "inputs": [
        {
          "indexed": false,
          "internalType": "int128",
          "name": "x",
          "type": "int128"
        },
        {
          "indexed": false,
          "internalType": "int128",
          "name": "y",
          "type": "int128"
        },
        {
          "indexed": false,
          "internalType": "address",
          "name": "givedAddress",
          "type": "address"
        }
      ],
      "name": "GiveTo",
      "type": "event"
    },
    {
      "anonymous": false,
      "inputs": [
        {
          "indexed": false,
          "internalType": "int128",
          "name": "x",
          "type": "int128"
        },
        {
          "indexed": false,
          "internalType": "int128",
          "name": "y",
          "type": "int128"
        },
        {
          "indexed": false,
          "internalType": "address",
          "name": "mintedAddress",
          "type": "address"
        }
      ],
      "name": "Mint",
      "type": "event"
    },
    {
      "anonymous": false,
      "inputs": [
        {
          "indexed": true,
          "internalType": "address",
          "name": "previousOwner",
          "type": "address"
        },
        {
          "indexed": true,
          "internalType": "address",
          "name": "newOwner",
          "type": "address"
        }
      ],
      "name": "OwnershipTransferred",
      "type": "event"
    },
    {
      "anonymous": false,
      "inputs": [
        {
          "indexed": false,
          "internalType": "int128",
          "name": "x",
          "type": "int128"
        },
        {
          "indexed": false,
          "internalType": "int128",
          "name": "y",
          "type": "int128"
        },
        {
          "indexed": false,
          "internalType": "string",
          "name": "slogan",
          "type": "string"
        }
      ],
      "name": "SetSlogan",
      "type": "event"
    },
    {
      "anonymous": false,
      "inputs": [
        {
          "indexed": true,
          "internalType": "address",
          "name": "from",
          "type": "address"
        },
        {
          "indexed": true,
          "internalType": "address",
          "name": "to",
          "type": "address"
        },
        {
          "indexed": true,
          "internalType": "uint256",
          "name": "tokenId",
          "type": "uint256"
        }
      ],
      "name": "Transfer",
      "type": "event"
    },
    {
      "inputs": [],
      "name": "PRICE",
      "outputs": [
        {
          "internalType": "uint256",
          "name": "",
          "type": "uint256"
        }
      ],
      "stateMutability": "view",
      "type": "function"
    },
    {
      "inputs": [
        {
          "internalType": "address",
          "name": "to",
          "type": "address"
        },
        {
          "internalType": "uint256",
          "name": "tokenId",
          "type": "uint256"
        }
      ],
      "name": "approve",
      "outputs": [],
      "stateMutability": "nonpayable",
      "type": "function"
    },
    {
      "inputs": [
        {
          "internalType": "address",
          "name": "owner",
          "type": "address"
        }
      ],
      "name": "balanceOf",
      "outputs": [
        {
          "internalType": "uint256",
          "name": "",
          "type": "uint256"
        }
      ],
      "stateMutability": "view",
      "type": "function"
    },
    {
      "inputs": [],
      "name": "getAllEth",
      "outputs": [],
      "stateMutability": "nonpayable",
      "type": "function"
    },
    {
      "inputs": [
        {
          "internalType": "uint256",
          "name": "tokenId",
          "type": "uint256"
        }
      ],
      "name": "getApproved",
      "outputs": [
        {
          "internalType": "address",
          "name": "",
          "type": "address"
        }
      ],
      "stateMutability": "view",
      "type": "function"
    },
    {
      "inputs": [
        {
          "internalType": "uint256",
          "name": "tokenId",
          "type": "uint256"
        }
      ],
      "name": "getCoordinates",
      "outputs": [
        {
          "internalType": "int128",
          "name": "x",
          "type": "int128"
        },
        {
          "internalType": "int128",
          "name": "y",
          "type": "int128"
        }
      ],
      "stateMutability": "view",
      "type": "function"
    },
    {
      "inputs": [
        {
          "internalType": "int128",
          "name": "x",
          "type": "int128"
        },
        {
          "internalType": "int128",
          "name": "y",
          "type": "int128"
        }
      ],
      "name": "getCoordinatesString",
      "outputs": [
        {
          "internalType": "string",
          "name": "data",
          "type": "string"
        }
      ],
      "stateMutability": "pure",
      "type": "function"
    },
    {
      "inputs": [
        {
          "internalType": "uint256",
          "name": "value",
          "type": "uint256"
        }
      ],
      "name": "getEth",
      "outputs": [],
      "stateMutability": "nonpayable",
      "type": "function"
    },
    {
      "inputs": [
        {
          "internalType": "address",
          "name": "_mintedAddress",
          "type": "address"
        }
      ],
      "name": "getMintLands",
      "outputs": [
        {
          "components": [
            {
              "internalType": "int128",
              "name": "x",
              "type": "int128"
            },
            {
              "internalType": "int128",
              "name": "y",
              "type": "int128"
            },
            {
              "internalType": "string",
              "name": "slogan",
              "type": "string"
            },
            {
              "internalType": "address",
              "name": "mintedAddress",
              "type": "address"
            },
            {
              "internalType": "address",
              "name": "givedAddress",
              "type": "address"
            },
            {
              "internalType": "bool",
              "name": "isMinted",
              "type": "bool"
            },
            {
              "internalType": "bool",
              "name": "isGived",
              "type": "bool"
            }
          ],
          "internalType": "struct ILootLand.Land[]",
          "name": "_mintLands",
          "type": "tuple[]"
        }
      ],
      "stateMutability": "view",
      "type": "function"
    },
    {
      "inputs": [
        {
          "internalType": "int128",
          "name": "x",
          "type": "int128"
        },
        {
          "internalType": "int128",
          "name": "y",
          "type": "int128"
        }
      ],
      "name": "getTokenId",
      "outputs": [
        {
          "internalType": "uint256",
          "name": "tokenId",
          "type": "uint256"
        }
      ],
      "stateMutability": "view",
      "type": "function"
    },
    {
      "inputs": [
        {
          "internalType": "int128",
          "name": "x",
          "type": "int128"
        },
        {
          "internalType": "int128",
          "name": "y",
          "type": "int128"
        },
        {
          "internalType": "address",
          "name": "givedAddress",
          "type": "address"
        }
      ],
      "name": "giveTo",
      "outputs": [],
      "stateMutability": "nonpayable",
      "type": "function"
    },
    {
      "inputs": [
        {
          "internalType": "address",
          "name": "_givedAddress",
          "type": "address"
        }
      ],
      "name": "givedLand",
      "outputs": [
        {
          "internalType": "bool",
          "name": "isGived",
          "type": "bool"
        },
        {
          "components": [
            {
              "internalType": "int128",
              "name": "x",
              "type": "int128"
            },
            {
              "internalType": "int128",
              "name": "y",
              "type": "int128"
            },
            {
              "internalType": "string",
              "name": "slogan",
              "type": "string"
            },
            {
              "internalType": "address",
              "name": "mintedAddress",
              "type": "address"
            },
            {
              "internalType": "address",
              "name": "givedAddress",
              "type": "address"
            },
            {
              "internalType": "bool",
              "name": "isMinted",
              "type": "bool"
            },
            {
              "internalType": "bool",
              "name": "isGived",
              "type": "bool"
            }
          ],
          "internalType": "struct ILootLand.Land",
          "name": "_land",
          "type": "tuple"
        }
      ],
      "stateMutability": "view",
      "type": "function"
    },
    {
      "inputs": [
        {
          "internalType": "address",
          "name": "owner",
          "type": "address"
        },
        {
          "internalType": "address",
          "name": "operator",
          "type": "address"
        }
      ],
      "name": "isApprovedForAll",
      "outputs": [
        {
          "internalType": "bool",
          "name": "",
          "type": "bool"
        }
      ],
      "stateMutability": "view",
      "type": "function"
    },
    {
      "inputs": [
        {
          "internalType": "int128",
          "name": "_x",
          "type": "int128"
        },
        {
          "internalType": "int128",
          "name": "_y",
          "type": "int128"
        }
      ],
      "name": "land",
      "outputs": [
        {
          "components": [
            {
              "internalType": "int128",
              "name": "x",
              "type": "int128"
            },
            {
              "internalType": "int128",
              "name": "y",
              "type": "int128"
            },
            {
              "internalType": "string",
              "name": "slogan",
              "type": "string"
            },
            {
              "internalType": "address",
              "name": "mintedAddress",
              "type": "address"
            },
            {
              "internalType": "address",
              "name": "givedAddress",
              "type": "address"
            },
            {
              "internalType": "bool",
              "name": "isMinted",
              "type": "bool"
            },
            {
              "internalType": "bool",
              "name": "isGived",
              "type": "bool"
            }
          ],
          "internalType": "struct ILootLand.Land",
          "name": "_land",
          "type": "tuple"
        }
      ],
      "stateMutability": "view",
      "type": "function"
    },
    {
      "inputs": [
        {
          "internalType": "int128",
          "name": "x",
          "type": "int128"
        },
        {
          "internalType": "int128",
          "name": "y",
          "type": "int128"
        }
      ],
      "name": "mint",
      "outputs": [],
      "stateMutability": "payable",
      "type": "function"
    },
    {
      "inputs": [
        {
          "internalType": "int128",
          "name": "x1",
          "type": "int128"
        },
        {
          "internalType": "int128",
          "name": "y1",
          "type": "int128"
        },
        {
          "internalType": "int128",
          "name": "x2",
          "type": "int128"
        },
        {
          "internalType": "int128",
          "name": "y2",
          "type": "int128"
        }
      ],
      "name": "mint2",
      "outputs": [],
      "stateMutability": "payable",
      "type": "function"
    },
    {
      "inputs": [
        {
          "internalType": "int128",
          "name": "x1",
          "type": "int128"
        },
        {
          "internalType": "int128",
          "name": "y1",
          "type": "int128"
        },
        {
          "internalType": "address",
          "name": "givedAddress1",
          "type": "address"
        },
        {
          "internalType": "int128",
          "name": "x2",
          "type": "int128"
        },
        {
          "internalType": "int128",
          "name": "y2",
          "type": "int128"
        },
        {
          "internalType": "address",
          "name": "givedAddress2",
          "type": "address"
        }
      ],
      "name": "mint2AndGiveTo",
      "outputs": [],
      "stateMutability": "payable",
      "type": "function"
    },
    {
      "inputs": [
        {
          "internalType": "int128",
          "name": "x",
          "type": "int128"
        },
        {
          "internalType": "int128",
          "name": "y",
          "type": "int128"
        },
        {
          "internalType": "address",
          "name": "givedAddress",
          "type": "address"
        }
      ],
      "name": "mintAndGiveTo",
      "outputs": [],
      "stateMutability": "payable",
      "type": "function"
    },
    {
      "inputs": [
        {
          "internalType": "address",
          "name": "",
          "type": "address"
        }
      ],
      "name": "mintLandCount",
      "outputs": [
        {
          "internalType": "uint8",
          "name": "",
          "type": "uint8"
        }
      ],
      "stateMutability": "view",
      "type": "function"
    },
    {
      "inputs": [],
      "name": "name",
      "outputs": [
        {
          "internalType": "string",
          "name": "",
          "type": "string"
        }
      ],
      "stateMutability": "view",
      "type": "function"
    },
    {
      "inputs": [],
      "name": "owner",
      "outputs": [
        {
          "internalType": "address",
          "name": "",
          "type": "address"
        }
      ],
      "stateMutability": "view",
      "type": "function"
    },
    {
      "inputs": [
        {
          "internalType": "uint256",
          "name": "tokenId",
          "type": "uint256"
        }
      ],
      "name": "ownerOf",
      "outputs": [
        {
          "internalType": "address",
          "name": "",
          "type": "address"
        }
      ],
      "stateMutability": "view",
      "type": "function"
    },
    {
      "inputs": [
        {
          "internalType": "int128",
          "name": "x",
          "type": "int128"
        },
        {
          "internalType": "int128",
          "name": "y",
          "type": "int128"
        }
      ],
      "name": "packedXY",
      "outputs": [
        {
          "internalType": "uint256",
          "name": "_packedXY",
          "type": "uint256"
        }
      ],
      "stateMutability": "pure",
      "type": "function"
    },
    {
      "inputs": [],
      "name": "renounceOwnership",
      "outputs": [],
      "stateMutability": "nonpayable",
      "type": "function"
    },
    {
      "inputs": [
        {
          "internalType": "address",
          "name": "from",
          "type": "address"
        },
        {
          "internalType": "address",
          "name": "to",
          "type": "address"
        },
        {
          "internalType": "uint256",
          "name": "tokenId",
          "type": "uint256"
        }
      ],
      "name": "safeTransferFrom",
      "outputs": [],
      "stateMutability": "nonpayable",
      "type": "function"
    },
    {
      "inputs": [
        {
          "internalType": "address",
          "name": "from",
          "type": "address"
        },
        {
          "internalType": "address",
          "name": "to",
          "type": "address"
        },
        {
          "internalType": "uint256",
          "name": "tokenId",
          "type": "uint256"
        },
        {
          "internalType": "bytes",
          "name": "_data",
          "type": "bytes"
        }
      ],
      "name": "safeTransferFrom",
      "outputs": [],
      "stateMutability": "nonpayable",
      "type": "function"
    },
    {
      "inputs": [
        {
          "internalType": "address",
          "name": "operator",
          "type": "address"
        },
        {
          "internalType": "bool",
          "name": "approved",
          "type": "bool"
        }
      ],
      "name": "setApprovalForAll",
      "outputs": [],
      "stateMutability": "nonpayable",
      "type": "function"
    },
    {
      "inputs": [
        {
          "internalType": "int128",
          "name": "x",
          "type": "int128"
        },
        {
          "internalType": "int128",
          "name": "y",
          "type": "int128"
        },
        {
          "internalType": "string",
          "name": "slogan",
          "type": "string"
        }
      ],
      "name": "setSlogan",
      "outputs": [],
      "stateMutability": "nonpayable",
      "type": "function"
    },
    {
      "inputs": [
        {
          "internalType": "bytes4",
          "name": "interfaceId",
          "type": "bytes4"
        }
      ],
      "name": "supportsInterface",
      "outputs": [
        {
          "internalType": "bool",
          "name": "",
          "type": "bool"
        }
      ],
      "stateMutability": "view",
      "type": "function"
    },
    {
      "inputs": [],
      "name": "symbol",
      "outputs": [
        {
          "internalType": "string",
          "name": "",
          "type": "string"
        }
      ],
      "stateMutability": "view",
      "type": "function"
    },
    {
      "inputs": [
        {
          "internalType": "uint256",
          "name": "index",
          "type": "uint256"
        }
      ],
      "name": "tokenByIndex",
      "outputs": [
        {
          "internalType": "uint256",
          "name": "",
          "type": "uint256"
        }
      ],
      "stateMutability": "view",
      "type": "function"
    },
    {
      "inputs": [
        {
          "internalType": "address",
          "name": "owner",
          "type": "address"
        },
        {
          "internalType": "uint256",
          "name": "index",
          "type": "uint256"
        }
      ],
      "name": "tokenOfOwnerByIndex",
      "outputs": [
        {
          "internalType": "uint256",
          "name": "",
          "type": "uint256"
        }
      ],
      "stateMutability": "view",
      "type": "function"
    },
    {
      "inputs": [
        {
          "internalType": "uint256",
          "name": "tokenId",
          "type": "uint256"
        }
      ],
      "name": "tokenURI",
      "outputs": [
        {
          "internalType": "string",
          "name": "result",
          "type": "string"
        }
      ],
      "stateMutability": "view",
      "type": "function"
    },
    {
      "inputs": [],
      "name": "totalSupply",
      "outputs": [
        {
          "internalType": "uint256",
          "name": "",
          "type": "uint256"
        }
      ],
      "stateMutability": "view",
      "type": "function"
    },
    {
      "inputs": [
        {
          "internalType": "address",
          "name": "from",
          "type": "address"
        },
        {
          "internalType": "address",
          "name": "to",
          "type": "address"
        },
        {
          "internalType": "uint256",
          "name": "tokenId",
          "type": "uint256"
        }
      ],
      "name": "transferFrom",
      "outputs": [],
      "stateMutability": "nonpayable",
      "type": "function"
    },
    {
      "inputs": [
        {
          "internalType": "address",
          "name": "newOwner",
          "type": "address"
        }
      ],
      "name": "transferOwnership",
      "outputs": [],
      "stateMutability": "nonpayable",
      "type": "function"
    }
  ],
  "transactionHash": "0xa16ab139185f118c7f31d331b8da6bd9ba9e5f2371fd68ef4e11c2ac01c70e66",
  "args": [
    "0x181b12729cCB398a7151635e7a61Fc9EDD3369Bb",
    "0xAce84e2A50EfcF847c3a1d21018cecc2075E4a78"
  ],
  "solcInputHash": "881512adb1ede029bd33f5a7cf941063",
  "bytecode": "0x60806040523480156200001157600080fd5b50604051620051a7380380620051a7833981016040819052620000349162000bb1565b6040518060400160405280600481526020016313185b9960e21b815250604051806040016040528060048152602001631310539160e21b81525081600090805190602001906200008692919062000aee565b5080516200009c90600190602084019062000aee565b505050620000b9620000b36200031f60201b60201c565b62000323565b620000c48262000375565b6040805160e0810182526000808252602080830182815284518083018652838152948401948552606084018390526001600160a01b0386166080850152600160a0850181905260c08501819052600b8054918201815590935283519051600f90810b6001600160801b03908116600160801b029290910b161760049092027f0175b7a638427703f0dbe7bb9bbf987a2551717b34e79f33b5b1008d1fa01db981019283559351805193949293620001a3937f0175b7a638427703f0dbe7bb9bbf987a2551717b34e79f33b5b1008d1fa01dba0192919091019062000aee565b5060608201516002820180546001600160a01b039283166001600160a01b031990911617905560808301516003909201805460a085015160c0909501511515600160a81b0260ff60a81b19951515600160a01b026001600160a81b03199092169484169490941717939093169190911790915581166000908152600e6020908152604082208290558180527f81955a0a11e65eac625c29e8882660bae4e165a75d72780094acae8ece9a29ee805460ff19166001179055600c90527f13649b2456f1b42fef0f0040b3aaeabcd21a76a0f3f5defd4f583839455116e88190556200028f9082906200044a565b604080516000808252602082018190528183015290517fdc098a7ae450e373b74167b44944e42b9782c72ad4b58d0e2f6999b93e1c7ead9181900360600190a160408051600080825260208201526001600160a01b0383168183015290517f315581f8fced1d4d8d321a598f896b9f857c52dfefae7188fbfde64900d62d9b9181900360600190a1505062000d1a565b3390565b600a80546001600160a01b038381166001600160a01b0319831681179093556040519116919082907f8be0079c531659141344cd1fd0a4f28419497f9722a3daafe3b4186f6b6457e090600090a35050565b600a546001600160a01b03163314620003d55760405162461bcd60e51b815260206004820181905260248201527f4f776e61626c653a2063616c6c6572206973206e6f7420746865206f776e657260448201526064015b60405180910390fd5b6001600160a01b0381166200043c5760405162461bcd60e51b815260206004820152602660248201527f4f776e61626c653a206e6577206f776e657220697320746865207a65726f206160448201526564647265737360d01b6064820152608401620003cc565b620004478162000323565b50565b6200046c8282604051806020016040528060008152506200047060201b60201c565b5050565b6200047c8383620004e8565b6200048b60008484846200063e565b620004e35760405162461bcd60e51b815260206004820152603260248201526000805160206200518783398151915260448201527131b2b4bb32b91034b6b83632b6b2b73a32b960711b6064820152608401620003cc565b505050565b6001600160a01b038216620005405760405162461bcd60e51b815260206004820181905260248201527f4552433732313a206d696e7420746f20746865207a65726f20616464726573736044820152606401620003cc565b6000818152600260205260409020546001600160a01b031615620005a75760405162461bcd60e51b815260206004820152601c60248201527f4552433732313a20746f6b656e20616c7265616479206d696e746564000000006044820152606401620003cc565b620005b560008383620007a7565b6001600160a01b0382166000908152600360205260408120805460019290620005e090849062000c92565b909155505060008181526002602052604080822080546001600160a01b0319166001600160a01b03861690811790915590518392907fddf252ad1be2c89b69c2b068fc378daa952ba7f163c4a11628f55a4df523b3ef908290a45050565b60006200065f846001600160a01b03166200088360201b62001fb31760201c565b156200079b57604051630a85bd0160e11b81526001600160a01b0385169063150b7a02906200069990339089908890889060040162000c19565b602060405180830381600087803b158015620006b457600080fd5b505af1925050508015620006e7575060408051601f3d908101601f19168201909252620006e49181019062000be8565b60015b62000780573d80801562000718576040519150601f19603f3d011682016040523d82523d6000602084013e6200071d565b606091505b508051620007785760405162461bcd60e51b815260206004820152603260248201526000805160206200518783398151915260448201527131b2b4bb32b91034b6b83632b6b2b73a32b960711b6064820152608401620003cc565b805181602001fd5b6001600160e01b031916630a85bd0160e11b1490506200079f565b5060015b949350505050565b620007bf838383620004e360201b6200095d1760201c565b6001600160a01b0383166200081d576200081781600880546000838152600960205260408120829055600182018355919091527ff3f7a9fe364faab93b216da50a3214154f22a0a2b415b23a84c8169e8b636ee30155565b62000843565b816001600160a01b0316836001600160a01b031614620008435762000843838262000889565b6001600160a01b0382166200085d57620004e38162000936565b826001600160a01b0316826001600160a01b031614620004e357620004e3828262000a14565b3b151590565b60006001620008a38462000a6560201b62000fda1760201c565b620008af919062000cad565b60008381526007602052604090205490915080821462000903576001600160a01b03841660009081526006602090815260408083208584528252808320548484528184208190558352600790915290208190555b5060009182526007602090815260408084208490556001600160a01b039094168352600681528383209183525290812055565b6008546000906200094a9060019062000cad565b600083815260096020526040812054600880549394509092849081106200098157634e487b7160e01b600052603260045260246000fd5b906000526020600020015490508060088381548110620009b157634e487b7160e01b600052603260045260246000fd5b6000918252602080832090910192909255828152600990915260408082208490558582528120556008805480620009f857634e487b7160e01b600052603160045260246000fd5b6001900381819060005260206000200160009055905550505050565b600062000a2c8362000a6560201b62000fda1760201c565b6001600160a01b039093166000908152600660209081526040808320868452825280832085905593825260079052919091209190915550565b60006001600160a01b03821662000ad25760405162461bcd60e51b815260206004820152602a60248201527f4552433732313a2062616c616e636520717565727920666f7220746865207a65604482015269726f206164647265737360b01b6064820152608401620003cc565b506001600160a01b031660009081526003602052604090205490565b82805462000afc9062000cc7565b90600052602060002090601f01602090048101928262000b20576000855562000b6b565b82601f1062000b3b57805160ff191683800117855562000b6b565b8280016001018555821562000b6b579182015b8281111562000b6b57825182559160200191906001019062000b4e565b5062000b7992915062000b7d565b5090565b5b8082111562000b79576000815560010162000b7e565b80516001600160a01b038116811462000bac57600080fd5b919050565b6000806040838503121562000bc4578182fd5b62000bcf8362000b94565b915062000bdf6020840162000b94565b90509250929050565b60006020828403121562000bfa578081fd5b81516001600160e01b03198116811462000c12578182fd5b9392505050565b600060018060a01b0380871683526020818716818501528560408501526080606085015284519150816080850152825b8281101562000c675785810182015185820160a00152810162000c49565b8281111562000c79578360a084870101525b5050601f01601f19169190910160a00195945050505050565b6000821982111562000ca85762000ca862000d04565b500190565b60008282101562000cc25762000cc262000d04565b500390565b600181811c9082168062000cdc57607f821691505b6020821081141562000cfe57634e487b7160e01b600052602260045260246000fd5b50919050565b634e487b7160e01b600052601160045260246000fd5b61445d8062000d2a6000396000f3fe60806040526004361061020f5760003560e01c80638d859f3e11610118578063b88d4fde116100a0578063d019b7131161006f578063d019b71314610617578063d9206aa314610637578063e985e9c514610679578063ee830315146106c2578063f2fde38b146106d557600080fd5b8063b88d4fde14610589578063be29010d146105a9578063c87b56dd146105d7578063cf265025146105f757600080fd5b806395d89b41116100e757806395d89b4114610501578063a22cb46514610516578063a869622314610536578063b154d6e914610556578063b3271d651461056957600080fd5b80638d859f3e146104955780638da5cb5b146104b05780638e3073a6146104ce578063940bbf04146104ee57600080fd5b80633223c16f1161019b5780636352211e1161016a5780636352211e146103f357806370a0823114610413578063715018a6146104335780637e5a6be8146104485780638b9c06b81461046857600080fd5b80633223c16f146103715780633413f6e61461038657806342842e0e146103b35780634f6ccce7146103d357600080fd5b80630bf37818116101e25780630bf37818146102c557806318160ddd146102ff57806323b872dd1461031e578063267d13521461033e5780632f745c591461035157600080fd5b806301ffc9a71461021457806306fdde0314610249578063081812fc1461026b578063095ea7b3146102a3575b600080fd5b34801561022057600080fd5b5061023461022f366004613551565b6106f5565b60405190151581526020015b60405180910390f35b34801561025557600080fd5b5061025e610720565b60405161024091906140c8565b34801561027757600080fd5b5061028b610286366004613729565b6107b2565b6040516001600160a01b039091168152602001610240565b3480156102af57600080fd5b506102c36102be366004613528565b61084c565b005b3480156102d157600080fd5b506102e56102e0366004613729565b610962565b60408051600f93840b81529190920b602082015201610240565b34801561030b57600080fd5b506008545b604051908152602001610240565b34801561032a57600080fd5b506102c361033936600461343a565b610a25565b6102c361034c366004613667565b610a56565b34801561035d57600080fd5b5061031061036c366004613528565b610b2f565b34801561037d57600080fd5b506102c3610bc5565b34801561039257600080fd5b506103a66103a13660046133e7565b610c1e565b6040516102409190614027565b3480156103bf57600080fd5b506102c36103ce36600461343a565b610ea7565b3480156103df57600080fd5b506103106103ee366004613729565b610ec2565b3480156103ff57600080fd5b5061028b61040e366004613729565b610f63565b34801561041f57600080fd5b5061031061042e3660046133e7565b610fda565b34801561043f57600080fd5b506102c3611061565b34801561045457600080fd5b50610310610463366004613589565b611097565b34801561047457600080fd5b50610488610483366004613589565b61110d565b60405161024091906141df565b3480156104a157600080fd5b506103106610969d374b92b081565b3480156104bc57600080fd5b50600a546001600160a01b031661028b565b3480156104da57600080fd5b506102c36104e9366004613729565b611303565b6102c36104fc3660046135f4565b611365565b34801561050d57600080fd5b5061025e611456565b34801561052257600080fd5b506102c36105313660046134ee565b611465565b34801561054257600080fd5b50610310610551366004613589565b61152a565b6102c3610564366004613589565b611553565b34801561057557600080fd5b506102c36105843660046135b2565b611624565b34801561059557600080fd5b506102c36105a4366004613475565b6116f6565b3480156105b557600080fd5b506105c96105c43660046133e7565b611728565b604051610240929190614088565b3480156105e357600080fd5b5061025e6105f2366004613729565b6118fb565b34801561060357600080fd5b5061025e610612366004613589565b611bba565b34801561062357600080fd5b506102c36106323660046136ba565b611d0d565b34801561064357600080fd5b506106676106523660046133e7565b60106020526000908152604090205460ff1681565b60405160ff9091168152602001610240565b34801561068557600080fd5b50610234610694366004613408565b6001600160a01b03918216600090815260056020908152604080832093909416825291909152205460ff1690565b6102c36106d03660046135b2565b611e4a565b3480156106e157600080fd5b506102c36106f03660046133e7565b611f1b565b60006001600160e01b0319821663780e9d6360e01b148061071a575061071a82611fb9565b92915050565b60606000805461072f906142a5565b80601f016020809104026020016040519081016040528092919081815260200182805461075b906142a5565b80156107a85780601f1061077d576101008083540402835291602001916107a8565b820191906000526020600020905b81548152906001019060200180831161078b57829003601f168201915b5050505050905090565b6000818152600260205260408120546001600160a01b03166108305760405162461bcd60e51b815260206004820152602c60248201527f4552433732313a20617070726f76656420717565727920666f72206e6f6e657860448201526b34b9ba32b73a103a37b5b2b760a11b60648201526084015b60405180910390fd5b506000908152600460205260409020546001600160a01b031690565b600061085782610f63565b9050806001600160a01b0316836001600160a01b031614156108c55760405162461bcd60e51b815260206004820152602160248201527f4552433732313a20617070726f76616c20746f2063757272656e74206f776e656044820152603960f91b6064820152608401610827565b336001600160a01b03821614806108e157506108e18133610694565b6109535760405162461bcd60e51b815260206004820152603860248201527f4552433732313a20617070726f76652063616c6c6572206973206e6f74206f7760448201527f6e6572206e6f7220617070726f76656420666f7220616c6c00000000000000006064820152608401610827565b61095d8383612009565b505050565b600b54600090819083106109a55760405162461bcd60e51b815260206004820152600a6024820152696e6f742065786973747360b01b6044820152606401610827565b600b83815481106109c657634e487b7160e01b600052603260045260246000fd5b6000918252602090912060049091020154600b8054600f9290920b93509084908110610a0257634e487b7160e01b600052603260045260246000fd5b60009182526020909120600490910201549193600160801b909204600f0b925050565b610a2f3382612077565b610a4b5760405162461bcd60e51b81526004016108279061418e565b61095d83838361216e565b336000908152600e6020526040902054600b80549091908110610a8957634e487b7160e01b600052603260045260246000fd5b906000526020600020906004020160030160159054906101000a900460ff168015610b015750336000818152600e6020526040902054600b80549091908110610ae257634e487b7160e01b600052603260045260246000fd5b60009182526020909120600360049092020101546001600160a01b0316145b610b1d5760405162461bcd60e51b8152600401610827906140db565b610b2984848484612319565b50505050565b6000610b3a83610fda565b8210610b9c5760405162461bcd60e51b815260206004820152602b60248201527f455243373231456e756d657261626c653a206f776e657220696e646578206f7560448201526a74206f6620626f756e647360a81b6064820152608401610827565b506001600160a01b03919091166000908152600660209081526040808320938352929052205490565b600a546001600160a01b03163314610bef5760405162461bcd60e51b815260040161082790614159565b60405133904780156108fc02916000818181858888f19350505050158015610c1b573d6000803e3d6000fd5b50565b6001600160a01b0381166000908152600f60209081526040808320805482518185028101850190935280835260609493830182828015610c7d57602002820191906000526020600020905b815481526020019060010190808311610c69575b50505050509050805167ffffffffffffffff811115610cac57634e487b7160e01b600052604160045260246000fd5b604051908082528060200260200182016040528015610ce557816020015b610cd261326d565b815260200190600190039081610cca5790505b50915060005b81518160ff161015610ea057600b828260ff1681518110610d1c57634e487b7160e01b600052603260045260246000fd5b602002602001015181548110610d4257634e487b7160e01b600052603260045260246000fd5b60009182526020918290206040805160e08101825260049093029091018054600f81810b810b810b8552600160801b909104810b810b900b9383019390935260018301805492939291840191610d97906142a5565b80601f0160208091040260200160405190810160405280929190818152602001828054610dc3906142a5565b8015610e105780601f10610de557610100808354040283529160200191610e10565b820191906000526020600020905b815481529060010190602001808311610df357829003601f168201915b505050918352505060028201546001600160a01b039081166020830152600390920154918216604082015260ff600160a01b8304811615156060830152600160a81b90920482161515608090910152845185918416908110610e8257634e487b7160e01b600052603260045260246000fd5b60200260200101819052508080610e98906142fb565b915050610ceb565b5050919050565b61095d838383604051806020016040528060008152506116f6565b6000610ecd60085490565b8210610f305760405162461bcd60e51b815260206004820152602c60248201527f455243373231456e756d657261626c653a20676c6f62616c20696e646578206f60448201526b7574206f6620626f756e647360a01b6064820152608401610827565b60088281548110610f5157634e487b7160e01b600052603260045260246000fd5b90600052602060002001549050919050565b6000818152600260205260408120546001600160a01b03168061071a5760405162461bcd60e51b815260206004820152602960248201527f4552433732313a206f776e657220717565727920666f72206e6f6e657869737460448201526832b73a103a37b5b2b760b91b6064820152608401610827565b60006001600160a01b0382166110455760405162461bcd60e51b815260206004820152602a60248201527f4552433732313a2062616c616e636520717565727920666f7220746865207a65604482015269726f206164647265737360b01b6064820152608401610827565b506001600160a01b031660009081526003602052604090205490565b600a546001600160a01b0316331461108b5760405162461bcd60e51b815260040161082790614159565b61109560006123e5565b565b6000806110a4848461152a565b6000818152600d602052604090205490915060ff166110f75760405162461bcd60e51b815260206004820152600f60248201526e1b185b99081b9bdd081b5a5b9d1959608a1b6044820152606401610827565b6000908152600c60205260409020549392505050565b61111561326d565b6000611121848461152a565b6000818152600d602052604090205490915060ff1615611297576000818152600c6020526040812054600b80549192918390811061116f57634e487b7160e01b600052603260045260246000fd5b60009182526020918290206040805160e08101825260049093029091018054600f81810b810b810b8552600160801b909104810b810b900b93830193909352600183018054929392918401916111c4906142a5565b80601f01602080910402602001604051908101604052809291908181526020018280546111f0906142a5565b801561123d5780601f106112125761010080835404028352916020019161123d565b820191906000526020600020905b81548152906001019060200180831161122057829003601f168201915b505050918352505060028201546001600160a01b039081166020830152600390920154918216604082015260ff600160a01b8304811615156060830152600160a81b909204909116151560809091015293506112fc915050565b6040518060e0016040528085600f0b815260200184600f0b815260200160405180602001604052806000815250815260200160006001600160a01b0316815260200160006001600160a01b031681526020016000151581526020016000151581525091505b5092915050565b600a546001600160a01b0316331461132d5760405162461bcd60e51b815260040161082790614159565b478111610c1b57604051339082156108fc029083906000818181858888f19350505050158015611361573d6000803e3d6000fd5b5050565b336000908152600e6020526040902054600b8054909190811061139857634e487b7160e01b600052603260045260246000fd5b906000526020600020906004020160030160159054906101000a900460ff1680156114105750336000818152600e6020526040902054600b805490919081106113f157634e487b7160e01b600052603260045260246000fd5b60009182526020909120600360049092020101546001600160a01b0316145b61142c5760405162461bcd60e51b8152600401610827906140db565b61143886868585612319565b611443868686612437565b61144e838383612437565b505050505050565b60606001805461072f906142a5565b6001600160a01b0382163314156114be5760405162461bcd60e51b815260206004820152601960248201527f4552433732313a20617070726f766520746f2063616c6c6572000000000000006044820152606401610827565b3360008181526005602090815260408083206001600160a01b03871680855290835292819020805460ff191686151590811790915590519081529192917f17307eab39ab6107e8899845ad3d59bd9653f200f220920489ca2b5937696c31910160405180910390a35050565b6001600160801b03166fffffffffffffffffffffffffffffffff1960809290921b919091161790565b336000908152600e6020526040902054600b8054909190811061158657634e487b7160e01b600052603260045260246000fd5b906000526020600020906004020160030160159054906101000a900460ff1680156115fe5750336000818152600e6020526040902054600b805490919081106115df57634e487b7160e01b600052603260045260246000fd5b60009182526020909120600360049092020101546001600160a01b0316145b61161a5760405162461bcd60e51b8152600401610827906140db565b6113618282612719565b336000908152600e6020526040902054600b8054909190811061165757634e487b7160e01b600052603260045260246000fd5b906000526020600020906004020160030160159054906101000a900460ff1680156116cf5750336000818152600e6020526040902054600b805490919081106116b057634e487b7160e01b600052603260045260246000fd5b60009182526020909120600360049092020101546001600160a01b0316145b6116eb5760405162461bcd60e51b8152600401610827906140db565b61095d838383612437565b6117003383612077565b61171c5760405162461bcd60e51b81526004016108279061418e565b610b29848484846127b5565b600061173261326d565b6001600160a01b0383166000908152600e6020526040812054600b80549192918390811061177057634e487b7160e01b600052603260045260246000fd5b60009182526020918290206040805160e08101825260049093029091018054600f81810b810b810b8552600160801b909104810b810b900b93830193909352600183018054929392918401916117c5906142a5565b80601f01602080910402602001604051908101604052809291908181526020018280546117f1906142a5565b801561183e5780601f106118135761010080835404028352916020019161183e565b820191906000526020600020905b81548152906001019060200180831161182157829003601f168201915b505050918352505060028201546001600160a01b039081166020830152600390920154808316604083015260ff600160a01b8204811615156060840152600160a81b90910416151560809182015282015191925090811690861614156118aa57600193508092506118f4565b6040805160e081018252600080825260208083018290528351908101845281815292820192909252606081018290526080810182905260a0810182905260c0810182905290945092505b5050915091565b606060008061190984610962565b915091506060600b858154811061193057634e487b7160e01b600052603260045260246000fd5b906000526020600020906004020160030160159054906101000a900460ff16611973576040518060800160405280606081526020016143c8606091399050611ab2565b6000600b868154811061199657634e487b7160e01b600052603260045260246000fd5b906000526020600020906004020160010180546119b2906142a5565b90501115611a7c57600b85815481106119db57634e487b7160e01b600052603260045260246000fd5b906000526020600020906004020160010180546119f7906142a5565b80601f0160208091040260200160405190810160405280929190818152602001828054611a23906142a5565b8015611a705780601f10611a4557610100808354040283529160200191611a70565b820191906000526020600020905b815481529060010190602001808311611a5357829003601f168201915b50505050509050611ab2565b5060408051808201909152601f81527f3c62722f3e3c62722f3e49276d2074686973204275696c64657220205e5f5e0060208201525b600081604051602001611ac59190613f9c565b60405160208183030381529060405290506000611ae28585611bba565b604051602001611af29190613c4a565b60405160208183030381529060405290506000604051602001611b1490613865565b60405160208183030381529060405290506000838383604051602001611b3c93929190613ce5565b60405160208183030381529060405290506000611b89611b5b8b6127e8565b611b6484612902565b604051602001611b75929190613aeb565b604051602081830303815290604052612902565b905080604051602001611b9c9190613ca0565b60405160208183030381529060405298505050505050505050919050565b60606000604051806020016040528060008152509050600084600f0b1315611bf657506040805180820190915260018152604560f81b60208201525b600084600f0b1215611c1c57506040805180820190915260018152605760f81b60208201525b6060600085600f0b12611c3c57611c3585600f0b6127e8565b9050611c4e565b611c4b85600f0b6000036127e8565b90505b60408051602081019091526000808252600f86900b1315611c8357506040805180820190915260018152602760f91b60208201525b600085600f0b1215611ca957506040805180820190915260018152605360f81b60208201525b6060600086600f0b12611cc957611cc286600f0b6127e8565b9050611cdb565b611cd886600f0b6000036127e8565b90505b83838383604051602001611cf294939291906137fe565b60405160208183030381529060405294505050505092915050565b6000611d198484611097565b905033611d2582610f63565b6001600160a01b031614611d7b5760405162461bcd60e51b815260206004820152601c60248201527f6c616e64206973206e6f742062656c6f6e6720746f2063616c6c6572000000006044820152606401610827565b610100825110611dc25760405162461bcd60e51b8152602060048201526012602482015271736c6f67616e20697320746f6f206c6f6e6760701b6044820152606401610827565b81600b8281548110611de457634e487b7160e01b600052603260045260246000fd5b90600052602060002090600402016001019080519060200190611e089291906132aa565b507f33aa80b38af4e0a1e2607b5743673d59a16ae46aecc240c828d6e71bddaf6762848484604051611e3c939291906140a3565b60405180910390a150505050565b336000908152600e6020526040902054600b80549091908110611e7d57634e487b7160e01b600052603260045260246000fd5b906000526020600020906004020160030160159054906101000a900460ff168015611ef55750336000818152600e6020526040902054600b80549091908110611ed657634e487b7160e01b600052603260045260246000fd5b60009182526020909120600360049092020101546001600160a01b0316145b611f115760405162461bcd60e51b8152600401610827906140db565b6116eb8383612719565b600a546001600160a01b03163314611f455760405162461bcd60e51b815260040161082790614159565b6001600160a01b038116611faa5760405162461bcd60e51b815260206004820152602660248201527f4f776e61626c653a206e6577206f776e657220697320746865207a65726f206160448201526564647265737360d01b6064820152608401610827565b610c1b816123e5565b3b151590565b60006001600160e01b031982166380ac58cd60e01b1480611fea57506001600160e01b03198216635b5e139f60e01b145b8061071a57506301ffc9a760e01b6001600160e01b031983161461071a565b600081815260046020526040902080546001600160a01b0319166001600160a01b038416908117909155819061203e82610f63565b6001600160a01b03167f8c5be1e5ebec7d5bd14f71427d1e84f3dd0314c0f7b2291e5b200ac8c7c3b92560405160405180910390a45050565b6000818152600260205260408120546001600160a01b03166120f05760405162461bcd60e51b815260206004820152602c60248201527f4552433732313a206f70657261746f7220717565727920666f72206e6f6e657860448201526b34b9ba32b73a103a37b5b2b760a11b6064820152608401610827565b60006120fb83610f63565b9050806001600160a01b0316846001600160a01b031614806121365750836001600160a01b031661212b846107b2565b6001600160a01b0316145b8061216657506001600160a01b0380821660009081526005602090815260408083209388168352929052205460ff165b949350505050565b826001600160a01b031661218182610f63565b6001600160a01b0316146121e95760405162461bcd60e51b815260206004820152602960248201527f4552433732313a207472616e73666572206f6620746f6b656e2074686174206960448201526839903737ba1037bbb760b91b6064820152608401610827565b6001600160a01b03821661224b5760405162461bcd60e51b8152602060048201526024808201527f4552433732313a207472616e7366657220746f20746865207a65726f206164646044820152637265737360e01b6064820152608401610827565b612256838383612a76565b612261600082612009565b6001600160a01b038316600090815260036020526040812080546001929061228a908490614262565b90915550506001600160a01b03821660009081526003602052604081208054600192906122b89084906141f2565b909155505060008181526002602052604080822080546001600160a01b0319166001600160a01b0386811691821790925591518493918716917fddf252ad1be2c89b69c2b068fc378daa952ba7f163c4a11628f55a4df523b3ef91a4505050565b61232b6610969d374b92b06002614243565b3410156123695760405162461bcd60e51b815260206004820152600c60248201526b65746820746f6f206c65737360a01b6044820152606401610827565b6123738484612b2e565b61237d8282612b2e565b61238f6610969d374b92b06002614243565b341115610b2957336108fc6123ac6610969d374b92b06002614243565b6123b69034614262565b6040518115909202916000818181858888f193505050501580156123de573d6000803e3d6000fd5b5050505050565b600a80546001600160a01b038381166001600160a01b0319831681179093556040519116919082907f8be0079c531659141344cd1fd0a4f28419497f9722a3daafe3b4186f6b6457e090600090a35050565b60006124438484611097565b9050336001600160a01b0316600b828154811061247057634e487b7160e01b600052603260045260246000fd5b60009182526020909120600260049092020101546001600160a01b0316146124da5760405162461bcd60e51b815260206004820152601e60248201527f63616c6c6572206469646e2774206d696e7465642074686973206c616e6400006044820152606401610827565b600b81815481106124fb57634e487b7160e01b600052603260045260246000fd5b906000526020600020906004020160030160159054906101000a900460ff16156125575760405162461bcd60e51b815260206004820152600d60248201526c1b185b99081a5cc819da5d9959609a1b6044820152606401610827565b6001600160a01b0382166000818152600e6020526040902054600b8054909190811061259357634e487b7160e01b600052603260045260246000fd5b60009182526020909120600360049092020101546001600160a01b031614156125fe5760405162461bcd60e51b815260206004820152601c60248201527f6769766564416464726573732068617665206769766564206c616e64000000006044820152606401610827565b81600b828154811061262057634e487b7160e01b600052603260045260246000fd5b906000526020600020906004020160030160006101000a8154816001600160a01b0302191690836001600160a01b031602179055506001600b828154811061267857634e487b7160e01b600052603260045260246000fd5b600091825260208083206003600490930201919091018054931515600160a81b0260ff60a81b19909416939093179092556001600160a01b0384168152600e909152604090208190556126cb8282612e0b565b60408051600f86810b825285900b60208201526001600160a01b038416918101919091527f315581f8fced1d4d8d321a598f896b9f857c52dfefae7188fbfde64900d62d9b90606001611e3c565b6610969d374b92b034101561275f5760405162461bcd60e51b815260206004820152600c60248201526b65746820746f6f206c65737360a01b6044820152606401610827565b6127698282612b2e565b6610969d374b92b034111561136157336108fc61278d6610969d374b92b034614262565b6040518115909202916000818181858888f1935050505015801561095d573d6000803e3d6000fd5b6127c084848461216e565b6127cc84848484612e25565b610b295760405162461bcd60e51b815260040161082790614107565b60608161280c5750506040805180820190915260018152600360fc1b602082015290565b8160005b81156128365780612820816142e0565b915061282f9050600a8361422f565b9150612810565b60008167ffffffffffffffff81111561285f57634e487b7160e01b600052604160045260246000fd5b6040519080825280601f01601f191660200182016040528015612889576020820181803683370190505b5090505b84156121665761289e600183614262565b91506128ab600a8661431b565b6128b69060306141f2565b60f81b8183815181106128d957634e487b7160e01b600052603260045260246000fd5b60200101906001600160f81b031916908160001a9053506128fb600a8661422f565b945061288d565b606081516000141561292257505060408051602081019091526000815290565b6000604051806060016040528060408152602001614388604091399050600060038451600261295191906141f2565b61295b919061422f565b612966906004614243565b905060006129758260206141f2565b67ffffffffffffffff81111561299b57634e487b7160e01b600052604160045260246000fd5b6040519080825280601f01601f1916602001820160405280156129c5576020820181803683370190505b509050818152600183018586518101602084015b81831015612a31576003830192508251603f8160121c168501518253600182019150603f81600c1c168501518253600182019150603f8160061c168501518253600182019150603f81168501518253506001016129d9565b600389510660018114612a4b5760028114612a5c57612a68565b613d3d60f01b600119830152612a68565b603d60f81b6000198301525b509398975050505050505050565b6001600160a01b038316612ad157612acc81600880546000838152600960205260408120829055600182018355919091527ff3f7a9fe364faab93b216da50a3214154f22a0a2b415b23a84c8169e8b636ee30155565b612af4565b816001600160a01b0316836001600160a01b031614612af457612af48382612f32565b6001600160a01b038216612b0b5761095d81612fcf565b826001600160a01b0316826001600160a01b03161461095d5761095d82826130a8565b33600090815260106020526040902054600260ff90911610612b925760405162461bcd60e51b815260206004820152601860248201527f63616c6c657220697320616c7265616479206d696e74656400000000000000006044820152606401610827565b6000612b9e838361152a565b6000818152600d602052604090205490915060ff1615612bf15760405162461bcd60e51b815260206004820152600e60248201526d1b185b99081a5cc81b5a5b9d195960921b6044820152606401610827565b600b6040518060e0016040528085600f0b815260200184600f0b8152602001604051806020016040528060008152508152602001612c2c3390565b6001600160a01b03168152600060208083018290526001604080850182905260609094018390528554808201875595835291819020845185830151600f90810b6001600160801b03908116600160801b029290910b1617600490960201948555918301518051939493612ca7939285019291909101906132aa565b5060608201516002820180546001600160a01b0319166001600160a01b0392831617905560808301516003909201805460a085015160c090950151939092166001600160a81b031990921691909117600160a01b931515939093029290921760ff60a81b1916600160a81b91151591909102179055600b54600090612d2e90600190614262565b336000818152600f60209081526040808320805460018082018355918552838520018690559383526010909152812080549394509192612d7290849060ff1661420a565b825460ff9182166101009390930a9283029190920219909116179055506000828152600c60209081526040808320849055600d9091529020805460ff191660011790557fdc098a7ae450e373b74167b44944e42b9782c72ad4b58d0e2f6999b93e1c7ead8484612ddf3390565b60408051600f94850b81529290930b60208301526001600160a01b031691810191909152606001611e3c565b6113618282604051806020016040528060008152506130ec565b60006001600160a01b0384163b15612f2757604051630a85bd0160e11b81526001600160a01b0385169063150b7a0290612e69903390899088908890600401613fea565b602060405180830381600087803b158015612e8357600080fd5b505af1925050508015612eb3575060408051601f3d908101601f19168201909252612eb09181019061356d565b60015b612f0d573d808015612ee1576040519150601f19603f3d011682016040523d82523d6000602084013e612ee6565b606091505b508051612f055760405162461bcd60e51b815260040161082790614107565b805181602001fd5b6001600160e01b031916630a85bd0160e11b149050612166565b506001949350505050565b60006001612f3f84610fda565b612f499190614262565b600083815260076020526040902054909150808214612f9c576001600160a01b03841660009081526006602090815260408083208584528252808320548484528184208190558352600790915290208190555b5060009182526007602090815260408084208490556001600160a01b039094168352600681528383209183525290812055565b600854600090612fe190600190614262565b6000838152600960205260408120546008805493945090928490811061301757634e487b7160e01b600052603260045260246000fd5b90600052602060002001549050806008838154811061304657634e487b7160e01b600052603260045260246000fd5b600091825260208083209091019290925582815260099091526040808220849055858252812055600880548061308c57634e487b7160e01b600052603160045260246000fd5b6001900381819060005260206000200160009055905550505050565b60006130b383610fda565b6001600160a01b039093166000908152600660209081526040808320868452825280832085905593825260079052919091209190915550565b6130f6838361311f565b6131036000848484612e25565b61095d5760405162461bcd60e51b815260040161082790614107565b6001600160a01b0382166131755760405162461bcd60e51b815260206004820181905260248201527f4552433732313a206d696e7420746f20746865207a65726f20616464726573736044820152606401610827565b6000818152600260205260409020546001600160a01b0316156131da5760405162461bcd60e51b815260206004820152601c60248201527f4552433732313a20746f6b656e20616c7265616479206d696e746564000000006044820152606401610827565b6131e660008383612a76565b6001600160a01b038216600090815260036020526040812080546001929061320f9084906141f2565b909155505060008181526002602052604080822080546001600160a01b0319166001600160a01b03861690811790915590518392907fddf252ad1be2c89b69c2b068fc378daa952ba7f163c4a11628f55a4df523b3ef908290a45050565b6040805160e08101825260008082526020820181905260609282018390529181018290526080810182905260a0810182905260c081019190915290565b8280546132b6906142a5565b90600052602060002090601f0160209004810192826132d8576000855561331e565b82601f106132f157805160ff191683800117855561331e565b8280016001018555821561331e579182015b8281111561331e578251825591602001919060010190613303565b5061332a92915061332e565b5090565b5b8082111561332a576000815560010161332f565b600067ffffffffffffffff8084111561335e5761335e61435b565b604051601f8501601f19908116603f011681019082821181831017156133865761338661435b565b8160405280935085815286868601111561339f57600080fd5b858560208301376000602087830101525050509392505050565b80356001600160a01b03811681146133d057600080fd5b919050565b8035600f81900b81146133d057600080fd5b6000602082840312156133f8578081fd5b613401826133b9565b9392505050565b6000806040838503121561341a578081fd5b613423836133b9565b9150613431602084016133b9565b90509250929050565b60008060006060848603121561344e578081fd5b613457846133b9565b9250613465602085016133b9565b9150604084013590509250925092565b6000806000806080858703121561348a578081fd5b613493856133b9565b93506134a1602086016133b9565b925060408501359150606085013567ffffffffffffffff8111156134c3578182fd5b8501601f810187136134d3578182fd5b6134e287823560208401613343565b91505092959194509250565b60008060408385031215613500578182fd5b613509836133b9565b91506020830135801515811461351d578182fd5b809150509250929050565b6000806040838503121561353a578182fd5b613543836133b9565b946020939093013593505050565b600060208284031215613562578081fd5b813561340181614371565b60006020828403121561357e578081fd5b815161340181614371565b6000806040838503121561359b578182fd5b6135a4836133d5565b9150613431602084016133d5565b6000806000606084860312156135c6578283fd5b6135cf846133d5565b92506135dd602085016133d5565b91506135eb604085016133b9565b90509250925092565b60008060008060008060c0878903121561360c578182fd5b613615876133d5565b9550613623602088016133d5565b9450613631604088016133b9565b935061363f606088016133d5565b925061364d608088016133d5565b915061365b60a088016133b9565b90509295509295509295565b6000806000806080858703121561367c578182fd5b613685856133d5565b9350613693602086016133d5565b92506136a1604086016133d5565b91506136af606086016133d5565b905092959194509250565b6000806000606084860312156136ce578081fd5b6136d7846133d5565b92506136e5602085016133d5565b9150604084013567ffffffffffffffff811115613700578182fd5b8401601f81018613613710578182fd5b61371f86823560208401613343565b9150509250925092565b60006020828403121561373a578081fd5b5035919050565b60008151808452613759816020860160208601614279565b601f01601f19169290920160200192915050565b6000815161377f818560208601614279565b9290920192915050565b8051600f0b82526020810151600f0b60208301526000604082015160e060408501526137b860e0850182613741565b9050606083015160018060a01b038082166060870152806080860151166080870152505060a0830151151560a085015260c0830151151560c08501528091505092915050565b60008551613810818460208a01614279565b855190830190613824818360208a01614279565b600b60fa1b91019081528451613841816001840160208901614279565b8451910190613857816001840160208801614279565b016001019695505050505050565b721e3234bb1031b630b9b99e913737ba32b9911f60691b8152701e3234bb1f293ab632b99d1e17b234bb1f60791b60138201527f3c6469763e2d204c6f6f746c616e642069732074686520686f6d65206f66206260248201526d3ab4b63232b939909e17b234bb1f60911b60448201527f3c6469763e2d204275696c646572732061726520696e76697465642d6f6e6c79605282015266109e17b234bb1f60c91b60728201527f3c6469763e2d2045616368206275696c6465722063616e206d696e742061742060798201527f6d6f73742074776f207069656365206f66206c616e643c2f6469763e0000000060998201527f3c6469763e2d20546865206d696e746564206c616e64732063616e206f6e6c7960b58201527f206265207573656420666f7220696e7669746174696f6e733c2f6469763e000060d58201527f3c6469763e2d204f6e6c79206f6e6520706572736f6e2063616e20626520696e60f38201527f766974656420746f2065616368207069656365206f66206c616e643c2f646976610113820152601f60f91b6101338201527f3c6469763e2d204561636820706572736f6e2063616e206f6e6c7920616363656101348201527f707420616e20696e7669746174696f6e206f6e63653c2f6469763e00000000006101548201527f3c6469763e2d2045616368207069656365206f66206c616e642069732031303061016f8201527f2a31303020737175617265206d65746572733c2f6469763e000000000000000061018f8201527f3c6469763e2d2043616e2073657420536c6f67616e206f6e20746865206c616e6101a782015266321e17b234bb1f60c91b6101c7820152651e17b234bb1f60d11b6101ce82015260006101d4820161071a565b6f7b226e616d65223a20224c616e64202360801b81528251600090613b17816010850160208801614279565b7f222c20226465736372697074696f6e223a2022496d6167696e65206120776f726010918401918201527f6c6420776974686f757420617574686f726974792c496d6167696e652065766560308201527f72796f6e652063616e2063726561746520667265656c792c596f75206d61792060508201527f736179204920616d206120647265616d65722c427574204920616d206e6f742060708201527f746865206f6e6c79206f6e652c4920686f706520736f6d6564617920796f752060908201527f77696c6c206a6f696e2075732e222c2022696d616765223a2022646174613a6960b0820152731b5859d94bdcdd99cade1b5b0ed8985cd94d8d0b60621b60d08201528351613c2f8160e4840160208801614279565b61227d60f01b60e4929091019182015260e601949350505050565b7f3c64697620636c6173733d226c616e64223e4c6f6f746c616e64202800000000815260008251613c8281601c850160208701614279565b66149e17b234bb1f60c91b601c939091019283015250602301919050565b7f646174613a6170706c69636174696f6e2f6a736f6e3b6261736536342c000000815260008251613cd881601d850160208701614279565b91909101601d0192915050565b7f3c73766720786d6c6e733d22687474703a2f2f7777772e77332e6f72672f323081527f30302f73766722207072657365727665417370656374526174696f3d22784d6960208201527f6e594d696e206d656574222076696577426f783d22302030203336302033363060408201527f223e3c726563742077696474683d223130302522206865696768743d2231303060608201527f25222066696c6c3d222330463443383122202f3e3c666f726569676e4f626a6560808201527f63742077696474683d2233363022206865696768743d223336302220783d223060a08201527f2220793d2230223e3c626f647920786d6c6e733d22687474703a2f2f7777772e60c08201527f77332e6f72672f313939392f7868746d6c223e3c7374796c653e2e626173652060e08201527f7b666f6e742d66616d696c793a73616e732d73657269663b6d617267696e3a316101008201527f3070783b7d2e736f6c6f67616e207b20636f6c6f723a20234630454445353b206101208201527f666f6e742d73697a653a20313670783b6d617267696e2d746f703a333070783b6101408201527f6865696768743a20393070783b207d2e6c616e64207b20636f6c6f723a2023436101608201527f30443732353b20666f6e742d73697a653a20323470783b206865696768743a206101808201527f363070783b207d2e6e6f746573207b20636f6c6f723a20234135423844303b206101a08201527f666f6e742d73697a653a20313270783b207d3c2f7374796c653e3c64697620636101c08201526b3630b9b99e913130b9b2911f60a11b6101e08201526000613f93613f5e613f58613f526101ec86018961376d565b8761376d565b8561376d565b7f3c2f6469763e3c2f626f64793e3c2f666f726569676e4f626a6563743e3c2f738152623b339f60e91b602082015260230190565b95945050505050565b741e3234bb1031b630b9b99e9139b7b637b3b0b7111f60591b81528151600090613fcd816015850160208701614279565b651e17b234bb1f60d11b6015939091019283015250601b01919050565b6001600160a01b038581168252841660208201526040810183905260806060820181905260009061401d90830184613741565b9695505050505050565b6000602080830181845280855180835260408601915060408160051b8701019250838701855b8281101561407b57603f19888603018452614069858351613789565b9450928501929085019060010161404d565b5092979650505050505050565b82151581526040602082015260006121666040830184613789565b83600f0b815282600f0b6020820152606060408201526000613f936060830184613741565b6020815260006134016020830184613741565b60208082526012908201527118d85b1b195c881a5cc81b9bc819da5d995960721b604082015260600190565b60208082526032908201527f4552433732313a207472616e7366657220746f206e6f6e20455243373231526560408201527131b2b4bb32b91034b6b83632b6b2b73a32b960711b606082015260800190565b6020808252818101527f4f776e61626c653a2063616c6c6572206973206e6f7420746865206f776e6572604082015260600190565b60208082526031908201527f4552433732313a207472616e736665722063616c6c6572206973206e6f74206f6040820152701ddb995c881b9bdc88185c1c1c9bdd9959607a1b606082015260800190565b6020815260006134016020830184613789565b600082198211156142055761420561432f565b500190565b600060ff821660ff84168060ff038211156142275761422761432f565b019392505050565b60008261423e5761423e614345565b500490565b600081600019048311821515161561425d5761425d61432f565b500290565b6000828210156142745761427461432f565b500390565b60005b8381101561429457818101518382015260200161427c565b83811115610b295750506000910152565b600181811c908216806142b957607f821691505b602082108114156142da57634e487b7160e01b600052602260045260246000fd5b50919050565b60006000198214156142f4576142f461432f565b5060010190565b600060ff821660ff8114156143125761431261432f565b60010192915050565b60008261432a5761432a614345565b500690565b634e487b7160e01b600052601160045260246000fd5b634e487b7160e01b600052601260045260246000fd5b634e487b7160e01b600052604160045260246000fd5b6001600160e01b031981168114610c1b57600080fdfe4142434445464748494a4b4c4d4e4f505152535455565758595a6162636465666768696a6b6c6d6e6f707172737475767778797a303132333435363738392b2f594f552061726520696e766974656420746f2042452061206c6f6f747665727365206275696c64657220666f7220746865206e657874203130207965617273213c62722f3e546f204d616b652049742048617070656e2049206d696e7465643aa26469706673582212202eb7050ca8400ed43405bd9765d5eab12e6575650dc4ea94bebceb43462ba34964736f6c634300080400334552433732313a207472616e7366657220746f206e6f6e204552433732315265",
  "devdoc": {
    "kind": "dev",
    "methods": {
      "approve(address,uint256)": {
        "details": "See {IERC721-approve}."
      },
      "balanceOf(address)": {
        "details": "See {IERC721-balanceOf}."
      },
      "getApproved(uint256)": {
        "details": "See {IERC721-getApproved}."
      },
      "isApprovedForAll(address,address)": {
        "details": "See {IERC721-isApprovedForAll}."
      },
      "name()": {
        "details": "See {IERC721Metadata-name}."
      },
      "owner()": {
        "details": "Returns the address of the current owner."
      },
      "ownerOf(uint256)": {
        "details": "See {IERC721-ownerOf}."
      },
      "renounceOwnership()": {
        "details": "Leaves the contract without owner. It will not be possible to call `onlyOwner` functions anymore. Can only be called by the current owner. NOTE: Renouncing ownership will leave the contract without an owner, thereby removing any functionality that is only available to the owner."
      },
      "safeTransferFrom(address,address,uint256)": {
        "details": "See {IERC721-safeTransferFrom}."
      },
      "safeTransferFrom(address,address,uint256,bytes)": {
        "details": "See {IERC721-safeTransferFrom}."
      },
      "setApprovalForAll(address,bool)": {
        "details": "See {IERC721-setApprovalForAll}."
      },
      "supportsInterface(bytes4)": {
        "details": "See {IERC165-supportsInterface}."
      },
      "symbol()": {
        "details": "See {IERC721Metadata-symbol}."
      },
      "tokenByIndex(uint256)": {
        "details": "See {IERC721Enumerable-tokenByIndex}."
      },
      "tokenOfOwnerByIndex(address,uint256)": {
        "details": "See {IERC721Enumerable-tokenOfOwnerByIndex}."
      },
      "tokenURI(uint256)": {
        "details": "See {IERC721Metadata-tokenURI}."
      },
      "totalSupply()": {
        "details": "See {IERC721Enumerable-totalSupply}."
      },
      "transferFrom(address,address,uint256)": {
        "details": "See {IERC721-transferFrom}."
      },
      "transferOwnership(address)": {
        "details": "Transfers ownership of the contract to a new account (`newOwner`). Can only be called by the current owner."
      }
    },
    "version": 1
  },
  "userdoc": {
    "kind": "user",
    "methods": {},
    "version": 1
  },
  "storageLayout": {
    "storage": [
      {
        "astId": 129,
        "contract": "contracts/LootLand.sol:LootLand",
        "label": "_name",
        "offset": 0,
        "slot": "0",
        "type": "t_string_storage"
      },
      {
        "astId": 131,
        "contract": "contracts/LootLand.sol:LootLand",
        "label": "_symbol",
        "offset": 0,
        "slot": "1",
        "type": "t_string_storage"
      },
      {
        "astId": 135,
        "contract": "contracts/LootLand.sol:LootLand",
        "label": "_owners",
        "offset": 0,
        "slot": "2",
        "type": "t_mapping(t_uint256,t_address)"
      },
      {
        "astId": 139,
        "contract": "contracts/LootLand.sol:LootLand",
        "label": "_balances",
        "offset": 0,
        "slot": "3",
        "type": "t_mapping(t_address,t_uint256)"
      },
      {
        "astId": 143,
        "contract": "contracts/LootLand.sol:LootLand",
        "label": "_tokenApprovals",
        "offset": 0,
        "slot": "4",
        "type": "t_mapping(t_uint256,t_address)"
      },
      {
        "astId": 149,
        "contract": "contracts/LootLand.sol:LootLand",
        "label": "_operatorApprovals",
        "offset": 0,
        "slot": "5",
        "type": "t_mapping(t_address,t_mapping(t_address,t_bool))"
      },
      {
        "astId": 1068,
        "contract": "contracts/LootLand.sol:LootLand",
        "label": "_ownedTokens",
        "offset": 0,
        "slot": "6",
        "type": "t_mapping(t_address,t_mapping(t_uint256,t_uint256))"
      },
      {
        "astId": 1072,
        "contract": "contracts/LootLand.sol:LootLand",
        "label": "_ownedTokensIndex",
        "offset": 0,
        "slot": "7",
        "type": "t_mapping(t_uint256,t_uint256)"
      },
      {
        "astId": 1075,
        "contract": "contracts/LootLand.sol:LootLand",
        "label": "_allTokens",
        "offset": 0,
        "slot": "8",
        "type": "t_array(t_uint256)dyn_storage"
      },
      {
        "astId": 1079,
        "contract": "contracts/LootLand.sol:LootLand",
        "label": "_allTokensIndex",
        "offset": 0,
        "slot": "9",
        "type": "t_mapping(t_uint256,t_uint256)"
      },
      {
        "astId": 7,
        "contract": "contracts/LootLand.sol:LootLand",
        "label": "_owner",
        "offset": 0,
        "slot": "10",
        "type": "t_address"
      },
      {
        "astId": 2139,
        "contract": "contracts/LootLand.sol:LootLand",
        "label": "_lands",
        "offset": 0,
        "slot": "11",
        "type": "t_array(t_struct(Land)3346_storage)dyn_storage"
      },
      {
        "astId": 2143,
        "contract": "contracts/LootLand.sol:LootLand",
        "label": "_packedXYToTokenId",
        "offset": 0,
        "slot": "12",
        "type": "t_mapping(t_uint256,t_uint256)"
      },
      {
        "astId": 2147,
        "contract": "contracts/LootLand.sol:LootLand",
        "label": "_packedXYToIsMinted",
        "offset": 0,
        "slot": "13",
        "type": "t_mapping(t_uint256,t_bool)"
      },
      {
        "astId": 2151,
        "contract": "contracts/LootLand.sol:LootLand",
        "label": "_gived",
        "offset": 0,
        "slot": "14",
        "type": "t_mapping(t_address,t_uint256)"
      },
      {
        "astId": 2156,
        "contract": "contracts/LootLand.sol:LootLand",
        "label": "_mintLandTokenIds",
        "offset": 0,
        "slot": "15",
        "type": "t_mapping(t_address,t_array(t_uint256)dyn_storage)"
      },
      {
        "astId": 2161,
        "contract": "contracts/LootLand.sol:LootLand",
        "label": "mintLandCount",
        "offset": 0,
        "slot": "16",
        "type": "t_mapping(t_address,t_uint8)"
      }
    ],
    "types": {
      "t_address": {
        "encoding": "inplace",
        "label": "address",
        "numberOfBytes": "20"
      },
      "t_array(t_struct(Land)3346_storage)dyn_storage": {
        "base": "t_struct(Land)3346_storage",
        "encoding": "dynamic_array",
        "label": "struct ILootLand.Land[]",
        "numberOfBytes": "32"
      },
      "t_array(t_uint256)dyn_storage": {
        "base": "t_uint256",
        "encoding": "dynamic_array",
        "label": "uint256[]",
        "numberOfBytes": "32"
      },
      "t_bool": {
        "encoding": "inplace",
        "label": "bool",
        "numberOfBytes": "1"
      },
      "t_int128": {
        "encoding": "inplace",
        "label": "int128",
        "numberOfBytes": "16"
      },
      "t_mapping(t_address,t_array(t_uint256)dyn_storage)": {
        "encoding": "mapping",
        "key": "t_address",
        "label": "mapping(address => uint256[])",
        "numberOfBytes": "32",
        "value": "t_array(t_uint256)dyn_storage"
      },
      "t_mapping(t_address,t_bool)": {
        "encoding": "mapping",
        "key": "t_address",
        "label": "mapping(address => bool)",
        "numberOfBytes": "32",
        "value": "t_bool"
      },
      "t_mapping(t_address,t_mapping(t_address,t_bool))": {
        "encoding": "mapping",
        "key": "t_address",
        "label": "mapping(address => mapping(address => bool))",
        "numberOfBytes": "32",
        "value": "t_mapping(t_address,t_bool)"
      },
      "t_mapping(t_address,t_mapping(t_uint256,t_uint256))": {
        "encoding": "mapping",
        "key": "t_address",
        "label": "mapping(address => mapping(uint256 => uint256))",
        "numberOfBytes": "32",
        "value": "t_mapping(t_uint256,t_uint256)"
      },
      "t_mapping(t_address,t_uint256)": {
        "encoding": "mapping",
        "key": "t_address",
        "label": "mapping(address => uint256)",
        "numberOfBytes": "32",
        "value": "t_uint256"
      },
      "t_mapping(t_address,t_uint8)": {
        "encoding": "mapping",
        "key": "t_address",
        "label": "mapping(address => uint8)",
        "numberOfBytes": "32",
        "value": "t_uint8"
      },
      "t_mapping(t_uint256,t_address)": {
        "encoding": "mapping",
        "key": "t_uint256",
        "label": "mapping(uint256 => address)",
        "numberOfBytes": "32",
        "value": "t_address"
      },
      "t_mapping(t_uint256,t_bool)": {
        "encoding": "mapping",
        "key": "t_uint256",
        "label": "mapping(uint256 => bool)",
        "numberOfBytes": "32",
        "value": "t_bool"
      },
      "t_mapping(t_uint256,t_uint256)": {
        "encoding": "mapping",
        "key": "t_uint256",
        "label": "mapping(uint256 => uint256)",
        "numberOfBytes": "32",
        "value": "t_uint256"
      },
      "t_string_storage": {
        "encoding": "bytes",
        "label": "string",
        "numberOfBytes": "32"
      },
      "t_struct(Land)3346_storage": {
        "encoding": "inplace",
        "label": "struct ILootLand.Land",
        "members": [
          {
            "astId": 3333,
            "contract": "contracts/LootLand.sol:LootLand",
            "label": "x",
            "offset": 0,
            "slot": "0",
            "type": "t_int128"
          },
          {
            "astId": 3335,
            "contract": "contracts/LootLand.sol:LootLand",
            "label": "y",
            "offset": 16,
            "slot": "0",
            "type": "t_int128"
          },
          {
            "astId": 3337,
            "contract": "contracts/LootLand.sol:LootLand",
            "label": "slogan",
            "offset": 0,
            "slot": "1",
            "type": "t_string_storage"
          },
          {
            "astId": 3339,
            "contract": "contracts/LootLand.sol:LootLand",
            "label": "mintedAddress",
            "offset": 0,
            "slot": "2",
            "type": "t_address"
          },
          {
            "astId": 3341,
            "contract": "contracts/LootLand.sol:LootLand",
            "label": "givedAddress",
            "offset": 0,
            "slot": "3",
            "type": "t_address"
          },
          {
            "astId": 3343,
            "contract": "contracts/LootLand.sol:LootLand",
            "label": "isMinted",
            "offset": 20,
            "slot": "3",
            "type": "t_bool"
          },
          {
            "astId": 3345,
            "contract": "contracts/LootLand.sol:LootLand",
            "label": "isGived",
            "offset": 21,
            "slot": "3",
            "type": "t_bool"
          }
        ],
        "numberOfBytes": "128"
      },
      "t_uint256": {
        "encoding": "inplace",
        "label": "uint256",
        "numberOfBytes": "32"
      },
      "t_uint8": {
        "encoding": "inplace",
        "label": "uint8",
        "numberOfBytes": "1"
      }
    }
  }
}