{
  "address": "0x6A5Cf56E470e995C6064f03FFF009e271db5F0aA",
  "abi": [
    {
      "inputs": [
        {
          "internalType": "address",
          "name": "_owner",
          "type": "address"
        }
      ],
      "stateMutability": "nonpayable",
      "type": "constructor"
    },
    {
      "anonymous": false,
      "inputs": [
        {
          "indexed": true,
          "internalType": "address",
          "name": "owner",
          "type": "address"
        },
        {
          "indexed": true,
          "internalType": "address",
          "name": "approved",
          "type": "address"
        },
        {
          "indexed": true,
          "internalType": "uint256",
          "name": "tokenId",
          "type": "uint256"
        }
      ],
      "name": "Approval",
      "type": "event"
    },
    {
      "anonymous": false,
      "inputs": [
        {
          "indexed": true,
          "internalType": "address",
          "name": "owner",
          "type": "address"
        },
        {
          "indexed": true,
          "internalType": "address",
          "name": "operator",
          "type": "address"
        },
        {
          "indexed": false,
          "internalType": "bool",
          "name": "approved",
          "type": "bool"
        }
      ],
      "name": "ApprovalForAll",
      "type": "event"
    },
    {
      "anonymous": false,
      "inputs": [
        {
          "indexed": false,
          "internalType": "int128",
          "name": "x",
          "type": "int128"
        },
        {
          "indexed": false,
          "internalType": "int128",
          "name": "y",
          "type": "int128"
        },
        {
          "indexed": false,
          "internalType": "address",
          "name": "buyedAddress",
          "type": "address"
        }
      ],
      "name": "Buy",
      "type": "event"
    },
    {
      "anonymous": false,
      "inputs": [
        {
          "indexed": false,
          "internalType": "int128",
          "name": "x",
          "type": "int128"
        },
        {
          "indexed": false,
          "internalType": "int128",
          "name": "y",
          "type": "int128"
        },
        {
          "indexed": false,
          "internalType": "address",
          "name": "givedAddress",
          "type": "address"
        }
      ],
      "name": "GiveTo",
      "type": "event"
    },
    {
      "anonymous": false,
      "inputs": [
        {
          "indexed": true,
          "internalType": "address",
          "name": "previousOwner",
          "type": "address"
        },
        {
          "indexed": true,
          "internalType": "address",
          "name": "newOwner",
          "type": "address"
        }
      ],
      "name": "OwnershipTransferred",
      "type": "event"
    },
    {
      "anonymous": false,
      "inputs": [
        {
          "indexed": false,
          "internalType": "int128",
          "name": "x",
          "type": "int128"
        },
        {
          "indexed": false,
          "internalType": "int128",
          "name": "y",
          "type": "int128"
        },
        {
          "indexed": false,
          "internalType": "string",
          "name": "slogan",
          "type": "string"
        }
      ],
      "name": "SetSlogan",
      "type": "event"
    },
    {
      "anonymous": false,
      "inputs": [
        {
          "indexed": true,
          "internalType": "address",
          "name": "from",
          "type": "address"
        },
        {
          "indexed": true,
          "internalType": "address",
          "name": "to",
          "type": "address"
        },
        {
          "indexed": true,
          "internalType": "uint256",
          "name": "tokenId",
          "type": "uint256"
        }
      ],
      "name": "Transfer",
      "type": "event"
    },
    {
      "inputs": [],
      "name": "PRICE",
      "outputs": [
        {
          "internalType": "uint256",
          "name": "",
          "type": "uint256"
        }
      ],
      "stateMutability": "view",
      "type": "function"
    },
    {
      "inputs": [
        {
          "internalType": "address",
          "name": "to",
          "type": "address"
        },
        {
          "internalType": "uint256",
          "name": "tokenId",
          "type": "uint256"
        }
      ],
      "name": "approve",
      "outputs": [],
      "stateMutability": "nonpayable",
      "type": "function"
    },
    {
      "inputs": [
        {
          "internalType": "address",
          "name": "owner",
          "type": "address"
        }
      ],
      "name": "balanceOf",
      "outputs": [
        {
          "internalType": "uint256",
          "name": "",
          "type": "uint256"
        }
      ],
      "stateMutability": "view",
      "type": "function"
    },
    {
      "inputs": [
        {
          "internalType": "int128",
          "name": "x",
          "type": "int128"
        },
        {
          "internalType": "int128",
          "name": "y",
          "type": "int128"
        }
      ],
      "name": "buy",
      "outputs": [],
      "stateMutability": "payable",
      "type": "function"
    },
    {
      "inputs": [
        {
          "internalType": "int128",
          "name": "x1",
          "type": "int128"
        },
        {
          "internalType": "int128",
          "name": "y1",
          "type": "int128"
        },
        {
          "internalType": "int128",
          "name": "x2",
          "type": "int128"
        },
        {
          "internalType": "int128",
          "name": "y2",
          "type": "int128"
        }
      ],
      "name": "buy2",
      "outputs": [],
      "stateMutability": "payable",
      "type": "function"
    },
    {
      "inputs": [
        {
          "internalType": "int128",
          "name": "x1",
          "type": "int128"
        },
        {
          "internalType": "int128",
          "name": "y1",
          "type": "int128"
        },
        {
          "internalType": "address",
          "name": "givedAddress1",
          "type": "address"
        },
        {
          "internalType": "int128",
          "name": "x2",
          "type": "int128"
        },
        {
          "internalType": "int128",
          "name": "y2",
          "type": "int128"
        },
        {
          "internalType": "address",
          "name": "givedAddress2",
          "type": "address"
        }
      ],
      "name": "buy2AndGiveTo",
      "outputs": [],
      "stateMutability": "payable",
      "type": "function"
    },
    {
      "inputs": [
        {
          "internalType": "int128",
          "name": "x",
          "type": "int128"
        },
        {
          "internalType": "int128",
          "name": "y",
          "type": "int128"
        },
        {
          "internalType": "address",
          "name": "givedAddress",
          "type": "address"
        }
      ],
      "name": "buyAndGiveTo",
      "outputs": [],
      "stateMutability": "payable",
      "type": "function"
    },
    {
      "inputs": [
        {
          "internalType": "address",
          "name": "",
          "type": "address"
        }
      ],
      "name": "buyLandCount",
      "outputs": [
        {
          "internalType": "uint8",
          "name": "",
          "type": "uint8"
        }
      ],
      "stateMutability": "view",
      "type": "function"
    },
    {
      "inputs": [],
      "name": "getAllEth",
      "outputs": [],
      "stateMutability": "nonpayable",
      "type": "function"
    },
    {
      "inputs": [
        {
          "internalType": "uint256",
          "name": "tokenId",
          "type": "uint256"
        }
      ],
      "name": "getApproved",
      "outputs": [
        {
          "internalType": "address",
          "name": "",
          "type": "address"
        }
      ],
      "stateMutability": "view",
      "type": "function"
    },
    {
      "inputs": [
        {
          "internalType": "address",
          "name": "_buyedAddress",
          "type": "address"
        }
      ],
      "name": "getBuyLands",
      "outputs": [
        {
          "components": [
            {
              "internalType": "int128",
              "name": "x",
              "type": "int128"
            },
            {
              "internalType": "int128",
              "name": "y",
              "type": "int128"
            },
            {
              "internalType": "string",
              "name": "slogan",
              "type": "string"
            },
            {
              "internalType": "address",
              "name": "buyedAddress",
              "type": "address"
            },
            {
              "internalType": "address",
              "name": "givedAddress",
              "type": "address"
            },
            {
              "internalType": "bool",
              "name": "isBuyed",
              "type": "bool"
            },
            {
              "internalType": "bool",
              "name": "isGived",
              "type": "bool"
            }
          ],
          "internalType": "struct ILootLand.Land[]",
          "name": "_buyLands",
          "type": "tuple[]"
        }
      ],
      "stateMutability": "view",
      "type": "function"
    },
    {
      "inputs": [
        {
          "internalType": "uint256",
          "name": "tokenId",
          "type": "uint256"
        }
      ],
      "name": "getCoordinates",
      "outputs": [
        {
          "internalType": "int128",
          "name": "x",
          "type": "int128"
        },
        {
          "internalType": "int128",
          "name": "y",
          "type": "int128"
        }
      ],
      "stateMutability": "view",
      "type": "function"
    },
    {
      "inputs": [
        {
          "internalType": "int128",
          "name": "x",
          "type": "int128"
        },
        {
          "internalType": "int128",
          "name": "y",
          "type": "int128"
        }
      ],
      "name": "getCoordinatesString",
      "outputs": [
        {
          "internalType": "string",
          "name": "data",
          "type": "string"
        }
      ],
      "stateMutability": "pure",
      "type": "function"
    },
    {
      "inputs": [
        {
          "internalType": "uint256",
          "name": "value",
          "type": "uint256"
        }
      ],
      "name": "getEth",
      "outputs": [],
      "stateMutability": "nonpayable",
      "type": "function"
    },
    {
      "inputs": [
        {
          "internalType": "int128",
          "name": "x",
          "type": "int128"
        },
        {
          "internalType": "int128",
          "name": "y",
          "type": "int128"
        }
      ],
      "name": "getTokenId",
      "outputs": [
        {
          "internalType": "uint256",
          "name": "tokenId",
          "type": "uint256"
        }
      ],
      "stateMutability": "view",
      "type": "function"
    },
    {
      "inputs": [
        {
          "internalType": "int128",
          "name": "x",
          "type": "int128"
        },
        {
          "internalType": "int128",
          "name": "y",
          "type": "int128"
        },
        {
          "internalType": "address",
          "name": "givedAddress",
          "type": "address"
        }
      ],
      "name": "giveTo",
      "outputs": [],
      "stateMutability": "nonpayable",
      "type": "function"
    },
    {
      "inputs": [
        {
          "internalType": "address",
          "name": "_givedAddress",
          "type": "address"
        }
      ],
      "name": "givedLand",
      "outputs": [
        {
          "internalType": "bool",
          "name": "isGived",
          "type": "bool"
        },
        {
          "components": [
            {
              "internalType": "int128",
              "name": "x",
              "type": "int128"
            },
            {
              "internalType": "int128",
              "name": "y",
              "type": "int128"
            },
            {
              "internalType": "string",
              "name": "slogan",
              "type": "string"
            },
            {
              "internalType": "address",
              "name": "buyedAddress",
              "type": "address"
            },
            {
              "internalType": "address",
              "name": "givedAddress",
              "type": "address"
            },
            {
              "internalType": "bool",
              "name": "isBuyed",
              "type": "bool"
            },
            {
              "internalType": "bool",
              "name": "isGived",
              "type": "bool"
            }
          ],
          "internalType": "struct ILootLand.Land",
          "name": "_land",
          "type": "tuple"
        }
      ],
      "stateMutability": "view",
      "type": "function"
    },
    {
      "inputs": [
        {
          "internalType": "address",
          "name": "owner",
          "type": "address"
        },
        {
          "internalType": "address",
          "name": "operator",
          "type": "address"
        }
      ],
      "name": "isApprovedForAll",
      "outputs": [
        {
          "internalType": "bool",
          "name": "",
          "type": "bool"
        }
      ],
      "stateMutability": "view",
      "type": "function"
    },
    {
      "inputs": [
        {
          "internalType": "int128",
          "name": "_x",
          "type": "int128"
        },
        {
          "internalType": "int128",
          "name": "_y",
          "type": "int128"
        }
      ],
      "name": "land",
      "outputs": [
        {
          "components": [
            {
              "internalType": "int128",
              "name": "x",
              "type": "int128"
            },
            {
              "internalType": "int128",
              "name": "y",
              "type": "int128"
            },
            {
              "internalType": "string",
              "name": "slogan",
              "type": "string"
            },
            {
              "internalType": "address",
              "name": "buyedAddress",
              "type": "address"
            },
            {
              "internalType": "address",
              "name": "givedAddress",
              "type": "address"
            },
            {
              "internalType": "bool",
              "name": "isBuyed",
              "type": "bool"
            },
            {
              "internalType": "bool",
              "name": "isGived",
              "type": "bool"
            }
          ],
          "internalType": "struct ILootLand.Land",
          "name": "_land",
          "type": "tuple"
        }
      ],
      "stateMutability": "view",
      "type": "function"
    },
    {
      "inputs": [],
      "name": "name",
      "outputs": [
        {
          "internalType": "string",
          "name": "",
          "type": "string"
        }
      ],
      "stateMutability": "view",
      "type": "function"
    },
    {
      "inputs": [],
      "name": "owner",
      "outputs": [
        {
          "internalType": "address",
          "name": "",
          "type": "address"
        }
      ],
      "stateMutability": "view",
      "type": "function"
    },
    {
      "inputs": [
        {
          "internalType": "uint256",
          "name": "tokenId",
          "type": "uint256"
        }
      ],
      "name": "ownerOf",
      "outputs": [
        {
          "internalType": "address",
          "name": "",
          "type": "address"
        }
      ],
      "stateMutability": "view",
      "type": "function"
    },
    {
      "inputs": [
        {
          "internalType": "int128",
          "name": "x",
          "type": "int128"
        },
        {
          "internalType": "int128",
          "name": "y",
          "type": "int128"
        }
      ],
      "name": "packedXY",
      "outputs": [
        {
          "internalType": "uint256",
          "name": "_packedXY",
          "type": "uint256"
        }
      ],
      "stateMutability": "pure",
      "type": "function"
    },
    {
      "inputs": [],
      "name": "renounceOwnership",
      "outputs": [],
      "stateMutability": "nonpayable",
      "type": "function"
    },
    {
      "inputs": [
        {
          "internalType": "address",
          "name": "from",
          "type": "address"
        },
        {
          "internalType": "address",
          "name": "to",
          "type": "address"
        },
        {
          "internalType": "uint256",
          "name": "tokenId",
          "type": "uint256"
        }
      ],
      "name": "safeTransferFrom",
      "outputs": [],
      "stateMutability": "nonpayable",
      "type": "function"
    },
    {
      "inputs": [
        {
          "internalType": "address",
          "name": "from",
          "type": "address"
        },
        {
          "internalType": "address",
          "name": "to",
          "type": "address"
        },
        {
          "internalType": "uint256",
          "name": "tokenId",
          "type": "uint256"
        },
        {
          "internalType": "bytes",
          "name": "_data",
          "type": "bytes"
        }
      ],
      "name": "safeTransferFrom",
      "outputs": [],
      "stateMutability": "nonpayable",
      "type": "function"
    },
    {
      "inputs": [
        {
          "internalType": "address",
          "name": "operator",
          "type": "address"
        },
        {
          "internalType": "bool",
          "name": "approved",
          "type": "bool"
        }
      ],
      "name": "setApprovalForAll",
      "outputs": [],
      "stateMutability": "nonpayable",
      "type": "function"
    },
    {
      "inputs": [
        {
          "internalType": "int128",
          "name": "x",
          "type": "int128"
        },
        {
          "internalType": "int128",
          "name": "y",
          "type": "int128"
        },
        {
          "internalType": "string",
          "name": "slogan",
          "type": "string"
        }
      ],
      "name": "setSlogan",
      "outputs": [],
      "stateMutability": "nonpayable",
      "type": "function"
    },
    {
      "inputs": [
        {
          "internalType": "bytes4",
          "name": "interfaceId",
          "type": "bytes4"
        }
      ],
      "name": "supportsInterface",
      "outputs": [
        {
          "internalType": "bool",
          "name": "",
          "type": "bool"
        }
      ],
      "stateMutability": "view",
      "type": "function"
    },
    {
      "inputs": [],
      "name": "symbol",
      "outputs": [
        {
          "internalType": "string",
          "name": "",
          "type": "string"
        }
      ],
      "stateMutability": "view",
      "type": "function"
    },
    {
      "inputs": [
        {
          "internalType": "uint256",
          "name": "index",
          "type": "uint256"
        }
      ],
      "name": "tokenByIndex",
      "outputs": [
        {
          "internalType": "uint256",
          "name": "",
          "type": "uint256"
        }
      ],
      "stateMutability": "view",
      "type": "function"
    },
    {
      "inputs": [
        {
          "internalType": "address",
          "name": "owner",
          "type": "address"
        },
        {
          "internalType": "uint256",
          "name": "index",
          "type": "uint256"
        }
      ],
      "name": "tokenOfOwnerByIndex",
      "outputs": [
        {
          "internalType": "uint256",
          "name": "",
          "type": "uint256"
        }
      ],
      "stateMutability": "view",
      "type": "function"
    },
    {
      "inputs": [
        {
          "internalType": "uint256",
          "name": "tokenId",
          "type": "uint256"
        }
      ],
      "name": "tokenURI",
      "outputs": [
        {
          "internalType": "string",
          "name": "result",
          "type": "string"
        }
      ],
      "stateMutability": "view",
      "type": "function"
    },
    {
      "inputs": [],
      "name": "totalSupply",
      "outputs": [
        {
          "internalType": "uint256",
          "name": "",
          "type": "uint256"
        }
      ],
      "stateMutability": "view",
      "type": "function"
    },
    {
      "inputs": [
        {
          "internalType": "address",
          "name": "from",
          "type": "address"
        },
        {
          "internalType": "address",
          "name": "to",
          "type": "address"
        },
        {
          "internalType": "uint256",
          "name": "tokenId",
          "type": "uint256"
        }
      ],
      "name": "transferFrom",
      "outputs": [],
      "stateMutability": "nonpayable",
      "type": "function"
    },
    {
      "inputs": [
        {
          "internalType": "address",
          "name": "newOwner",
          "type": "address"
        }
      ],
      "name": "transferOwnership",
      "outputs": [],
      "stateMutability": "nonpayable",
      "type": "function"
    }
  ],
  "transactionHash": "0x1f978f1c71f66d9db3808d2c15f61e29dd2be33a8eae032a5315c783793d2771",
  "args": [
    "0xAce84e2A50EfcF847c3a1d21018cecc2075E4a78"
  ],
  "solcInputHash": "75f961c6d887e075ae95957cba75c148",
  "bytecode": "0x60806040523480156200001157600080fd5b506040516200505138038062005051833981016040819052620000349162000b93565b6040518060400160405280600481526020016313185b9960e21b815250604051806040016040528060048152602001631310539160e21b81525081600090805190602001906200008692919062000aed565b5080516200009c90600190602084019062000aed565b505050620000b9620000b36200031e60201b60201c565b62000322565b620000c48162000374565b6040805160e0810182526000808252602080830182815284518083018652838152948401948552606084018390526001600160a01b0386166080850152600160a0850181905260c08501819052600b8054918201815590935283519051600f90810b6001600160801b03908116600160801b029290910b161760049092027f0175b7a638427703f0dbe7bb9bbf987a2551717b34e79f33b5b1008d1fa01db981019283559351805193949293620001a3937f0175b7a638427703f0dbe7bb9bbf987a2551717b34e79f33b5b1008d1fa01dba0192919091019062000aed565b5060608201516002820180546001600160a01b039283166001600160a01b031990911617905560808301516003909201805460a085015160c0909501511515600160a81b0260ff60a81b19951515600160a01b026001600160a81b03199092169484169490941717939093169190911790915581166000908152600e6020908152604082208290558180527f81955a0a11e65eac625c29e8882660bae4e165a75d72780094acae8ece9a29ee805460ff19166001179055600c90527f13649b2456f1b42fef0f0040b3aaeabcd21a76a0f3f5defd4f583839455116e88190556200028f90829062000449565b604080516000808252602082018190528183015290517fe20b07b22286906698dfaed9341c2187f29ec7e118f5283cd0b81d3796fc0c179181900360600190a160408051600080825260208201526001600160a01b0383168183015290517f315581f8fced1d4d8d321a598f896b9f857c52dfefae7188fbfde64900d62d9b9181900360600190a15062000cee565b3390565b600a80546001600160a01b038381166001600160a01b0319831681179093556040519116919082907f8be0079c531659141344cd1fd0a4f28419497f9722a3daafe3b4186f6b6457e090600090a35050565b600a546001600160a01b03163314620003d45760405162461bcd60e51b815260206004820181905260248201527f4f776e61626c653a2063616c6c6572206973206e6f7420746865206f776e657260448201526064015b60405180910390fd5b6001600160a01b0381166200043b5760405162461bcd60e51b815260206004820152602660248201527f4f776e61626c653a206e6577206f776e657220697320746865207a65726f206160448201526564647265737360d01b6064820152608401620003cb565b620004468162000322565b50565b6200046b8282604051806020016040528060008152506200046f60201b60201c565b5050565b6200047b8383620004e7565b6200048a60008484846200063d565b620004e25760405162461bcd60e51b815260206004820152603260248201526000805160206200503183398151915260448201527131b2b4bb32b91034b6b83632b6b2b73a32b960711b6064820152608401620003cb565b505050565b6001600160a01b0382166200053f5760405162461bcd60e51b815260206004820181905260248201527f4552433732313a206d696e7420746f20746865207a65726f20616464726573736044820152606401620003cb565b6000818152600260205260409020546001600160a01b031615620005a65760405162461bcd60e51b815260206004820152601c60248201527f4552433732313a20746f6b656e20616c7265616479206d696e746564000000006044820152606401620003cb565b620005b460008383620007a6565b6001600160a01b0382166000908152600360205260408120805460019290620005df90849062000c66565b909155505060008181526002602052604080822080546001600160a01b0319166001600160a01b03861690811790915590518392907fddf252ad1be2c89b69c2b068fc378daa952ba7f163c4a11628f55a4df523b3ef908290a45050565b60006200065e846001600160a01b03166200088260201b62001fe21760201c565b156200079a57604051630a85bd0160e11b81526001600160a01b0385169063150b7a02906200069890339089908890889060040162000bed565b602060405180830381600087803b158015620006b357600080fd5b505af1925050508015620006e6575060408051601f3d908101601f19168201909252620006e39181019062000bc3565b60015b6200077f573d80801562000717576040519150601f19603f3d011682016040523d82523d6000602084013e6200071c565b606091505b508051620007775760405162461bcd60e51b815260206004820152603260248201526000805160206200503183398151915260448201527131b2b4bb32b91034b6b83632b6b2b73a32b960711b6064820152608401620003cb565b805181602001fd5b6001600160e01b031916630a85bd0160e11b1490506200079e565b5060015b949350505050565b620007be838383620004e260201b6200095d1760201c565b6001600160a01b0383166200081c576200081681600880546000838152600960205260408120829055600182018355919091527ff3f7a9fe364faab93b216da50a3214154f22a0a2b415b23a84c8169e8b636ee30155565b62000842565b816001600160a01b0316836001600160a01b031614620008425762000842838262000888565b6001600160a01b0382166200085c57620004e28162000935565b826001600160a01b0316826001600160a01b031614620004e257620004e2828262000a13565b3b151590565b60006001620008a28462000a6460201b62000e451760201c565b620008ae919062000c81565b60008381526007602052604090205490915080821462000902576001600160a01b03841660009081526006602090815260408083208584528252808320548484528184208190558352600790915290208190555b5060009182526007602090815260408084208490556001600160a01b039094168352600681528383209183525290812055565b600854600090620009499060019062000c81565b600083815260096020526040812054600880549394509092849081106200098057634e487b7160e01b600052603260045260246000fd5b906000526020600020015490508060088381548110620009b057634e487b7160e01b600052603260045260246000fd5b6000918252602080832090910192909255828152600990915260408082208490558582528120556008805480620009f757634e487b7160e01b600052603160045260246000fd5b6001900381819060005260206000200160009055905550505050565b600062000a2b8362000a6460201b62000e451760201c565b6001600160a01b039093166000908152600660209081526040808320868452825280832085905593825260079052919091209190915550565b60006001600160a01b03821662000ad15760405162461bcd60e51b815260206004820152602a60248201527f4552433732313a2062616c616e636520717565727920666f7220746865207a65604482015269726f206164647265737360b01b6064820152608401620003cb565b506001600160a01b031660009081526003602052604090205490565b82805462000afb9062000c9b565b90600052602060002090601f01602090048101928262000b1f576000855562000b6a565b82601f1062000b3a57805160ff191683800117855562000b6a565b8280016001018555821562000b6a579182015b8281111562000b6a57825182559160200191906001019062000b4d565b5062000b7892915062000b7c565b5090565b5b8082111562000b78576000815560010162000b7d565b60006020828403121562000ba5578081fd5b81516001600160a01b038116811462000bbc578182fd5b9392505050565b60006020828403121562000bd5578081fd5b81516001600160e01b03198116811462000bbc578182fd5b600060018060a01b0380871683526020818716818501528560408501526080606085015284519150816080850152825b8281101562000c3b5785810182015185820160a00152810162000c1d565b8281111562000c4d578360a084870101525b5050601f01601f19169190910160a00195945050505050565b6000821982111562000c7c5762000c7c62000cd8565b500190565b60008282101562000c965762000c9662000cd8565b500390565b600181811c9082168062000cb057607f821691505b6020821081141562000cd257634e487b7160e01b600052602260045260246000fd5b50919050565b634e487b7160e01b600052601160045260246000fd5b6143338062000cfe6000396000f3fe60806040526004361061020f5760003560e01c80638b9c06b811610118578063b88d4fde116100a0578063cf2650251161006f578063cf26502514610639578063d019b71314610659578063e985e9c514610679578063f2fde38b146106c2578063fd60b5c7146106e257600080fd5b8063b88d4fde14610589578063be29010d146105a9578063c87b56dd146105d7578063cb1d3151146105f757600080fd5b806395d89b41116100e757806395d89b41146104e75780639db357a2146104fc578063a22cb46514610529578063a869622314610549578063b3271d651461056957600080fd5b80638b9c06b8146104615780638d859f3e1461048e5780638da5cb5b146104a95780638e3073a6146104c757600080fd5b80633223c16f1161019b5780636352211e1161016a5780636352211e146103d957806370a08231146103f9578063715018a6146104195780637a98b16b1461042e5780637e5a6be81461044157600080fd5b80633223c16f1461037157806342842e0e146103865780634df619bb146103a65780634f6ccce7146103b957600080fd5b80630bf37818116101e25780630bf37818146102c557806318160ddd146102ff57806323b872dd1461031e578063278a42591461033e5780632f745c591461035157600080fd5b806301ffc9a71461021457806306fdde0314610249578063081812fc1461026b578063095ea7b3146102a3575b600080fd5b34801561022057600080fd5b5061023461022f36600461357a565b6106f5565b60405190151581526020015b60405180910390f35b34801561025557600080fd5b5061025e610720565b6040516102409190613f91565b34801561027757600080fd5b5061028b610286366004613752565b6107b2565b6040516001600160a01b039091168152602001610240565b3480156102af57600080fd5b506102c36102be366004613551565b61084c565b005b3480156102d157600080fd5b506102e56102e0366004613752565b610962565b60408051600f93840b81529190920b602082015201610240565b34801561030b57600080fd5b506008545b604051908152602001610240565b34801561032a57600080fd5b506102c3610339366004613463565b610a25565b6102c361034c3660046135db565b610a56565b34801561035d57600080fd5b5061031061036c366004613551565b610b32565b34801561037d57600080fd5b506102c3610bc8565b34801561039257600080fd5b506102c36103a1366004613463565b610c21565b6102c36103b436600461361d565b610c3c565b3480156103c557600080fd5b506103106103d4366004613752565b610d2d565b3480156103e557600080fd5b5061028b6103f4366004613752565b610dce565b34801561040557600080fd5b50610310610414366004613410565b610e45565b34801561042557600080fd5b506102c3610ecc565b6102c361043c3660046135b2565b610f02565b34801561044d57600080fd5b5061031061045c3660046135b2565b610fd7565b34801561046d57600080fd5b5061048161047c3660046135b2565b611047565b60405161024091906140a8565b34801561049a57600080fd5b506103106610969d374b92b081565b3480156104b557600080fd5b50600a546001600160a01b031661028b565b3480156104d357600080fd5b506102c36104e2366004613752565b61123d565b3480156104f357600080fd5b5061025e61129b565b34801561050857600080fd5b5061051c610517366004613410565b6112aa565b6040516102409190613ef0565b34801561053557600080fd5b506102c3610544366004613517565b611533565b34801561055557600080fd5b506103106105643660046135b2565b6115f8565b34801561057557600080fd5b506102c36105843660046135db565b611621565b34801561059557600080fd5b506102c36105a436600461349e565b6116e8565b3480156105b557600080fd5b506105c96105c4366004613410565b611720565b604051610240929190613f51565b3480156105e357600080fd5b5061025e6105f2366004613752565b6118f3565b34801561060357600080fd5b50610627610612366004613410565b60106020526000908152604090205460ff1681565b60405160ff9091168152602001610240565b34801561064557600080fd5b5061025e6106543660046135b2565b611be7565b34801561066557600080fd5b506102c36106743660046136e3565b611d3a565b34801561068557600080fd5b50610234610694366004613431565b6001600160a01b03918216600090815260056020908152604080832093909416825291909152205460ff1690565b3480156106ce57600080fd5b506102c36106dd366004613410565b611e77565b6102c36106f0366004613690565b611f0f565b60006001600160e01b0319821663780e9d6360e01b148061071a575061071a82611fe8565b92915050565b60606000805461072f9061416e565b80601f016020809104026020016040519081016040528092919081815260200182805461075b9061416e565b80156107a85780601f1061077d576101008083540402835291602001916107a8565b820191906000526020600020905b81548152906001019060200180831161078b57829003601f168201915b5050505050905090565b6000818152600260205260408120546001600160a01b03166108305760405162461bcd60e51b815260206004820152602c60248201527f4552433732313a20617070726f76656420717565727920666f72206e6f6e657860448201526b34b9ba32b73a103a37b5b2b760a11b60648201526084015b60405180910390fd5b506000908152600460205260409020546001600160a01b031690565b600061085782610dce565b9050806001600160a01b0316836001600160a01b031614156108c55760405162461bcd60e51b815260206004820152602160248201527f4552433732313a20617070726f76616c20746f2063757272656e74206f776e656044820152603960f91b6064820152608401610827565b336001600160a01b03821614806108e157506108e18133610694565b6109535760405162461bcd60e51b815260206004820152603860248201527f4552433732313a20617070726f76652063616c6c6572206973206e6f74206f7760448201527f6e6572206e6f7220617070726f76656420666f7220616c6c00000000000000006064820152608401610827565b61095d8383612038565b505050565b600b54600090819083106109a55760405162461bcd60e51b815260206004820152600a6024820152696e6f742065786973747360b01b6044820152606401610827565b600b83815481106109c657634e487b7160e01b600052603260045260246000fd5b6000918252602090912060049091020154600b8054600f9290920b93509084908110610a0257634e487b7160e01b600052603260045260246000fd5b60009182526020909120600490910201549193600160801b909204600f0b925050565b610a2f33826120a6565b610a4b5760405162461bcd60e51b815260040161082790614057565b61095d83838361219d565b336000908152600e6020526040902054600b80549091908110610a8957634e487b7160e01b600052603260045260246000fd5b906000526020600020906004020160030160159054906101000a900460ff168015610b015750336000818152600e6020526040902054600b80549091908110610ae257634e487b7160e01b600052603260045260246000fd5b60009182526020909120600360049092020101546001600160a01b0316145b610b1d5760405162461bcd60e51b815260040161082790613fa4565b610b278383612348565b61095d8383836123e4565b6000610b3d83610e45565b8210610b9f5760405162461bcd60e51b815260206004820152602b60248201527f455243373231456e756d657261626c653a206f776e657220696e646578206f7560448201526a74206f6620626f756e647360a81b6064820152608401610827565b506001600160a01b03919091166000908152600660209081526040808320938352929052205490565b600a546001600160a01b03163314610bf25760405162461bcd60e51b815260040161082790614022565b60405133904780156108fc02916000818181858888f19350505050158015610c1e573d6000803e3d6000fd5b50565b61095d838383604051806020016040528060008152506116e8565b336000908152600e6020526040902054600b80549091908110610c6f57634e487b7160e01b600052603260045260246000fd5b906000526020600020906004020160030160159054906101000a900460ff168015610ce75750336000818152600e6020526040902054600b80549091908110610cc857634e487b7160e01b600052603260045260246000fd5b60009182526020909120600360049092020101546001600160a01b0316145b610d035760405162461bcd60e51b815260040161082790613fa4565b610d0f868685856126c7565b610d1a8686866123e4565b610d258383836123e4565b505050505050565b6000610d3860085490565b8210610d9b5760405162461bcd60e51b815260206004820152602c60248201527f455243373231456e756d657261626c653a20676c6f62616c20696e646578206f60448201526b7574206f6620626f756e647360a01b6064820152608401610827565b60088281548110610dbc57634e487b7160e01b600052603260045260246000fd5b90600052602060002001549050919050565b6000818152600260205260408120546001600160a01b03168061071a5760405162461bcd60e51b815260206004820152602960248201527f4552433732313a206f776e657220717565727920666f72206e6f6e657869737460448201526832b73a103a37b5b2b760b91b6064820152608401610827565b60006001600160a01b038216610eb05760405162461bcd60e51b815260206004820152602a60248201527f4552433732313a2062616c616e636520717565727920666f7220746865207a65604482015269726f206164647265737360b01b6064820152608401610827565b506001600160a01b031660009081526003602052604090205490565b600a546001600160a01b03163314610ef65760405162461bcd60e51b815260040161082790614022565b610f006000612793565b565b336000908152600e6020526040902054600b80549091908110610f3557634e487b7160e01b600052603260045260246000fd5b906000526020600020906004020160030160159054906101000a900460ff168015610fad5750336000818152600e6020526040902054600b80549091908110610f8e57634e487b7160e01b600052603260045260246000fd5b60009182526020909120600360049092020101546001600160a01b0316145b610fc95760405162461bcd60e51b815260040161082790613fa4565b610fd38282612348565b5050565b600080610fe484846115f8565b6000818152600d602052604090205490915060ff166110315760405162461bcd60e51b81526020600482015260096024820152681b9bdd08189d5e595960ba1b6044820152606401610827565b6000908152600c60205260409020549392505050565b61104f613296565b600061105b84846115f8565b6000818152600d602052604090205490915060ff16156111d1576000818152600c6020526040812054600b8054919291839081106110a957634e487b7160e01b600052603260045260246000fd5b60009182526020918290206040805160e08101825260049093029091018054600f81810b810b810b8552600160801b909104810b810b900b93830193909352600183018054929392918401916110fe9061416e565b80601f016020809104026020016040519081016040528092919081815260200182805461112a9061416e565b80156111775780601f1061114c57610100808354040283529160200191611177565b820191906000526020600020905b81548152906001019060200180831161115a57829003601f168201915b505050918352505060028201546001600160a01b039081166020830152600390920154918216604082015260ff600160a01b8304811615156060830152600160a81b90920490911615156080909101529350611236915050565b6040518060e0016040528085600f0b815260200184600f0b815260200160405180602001604052806000815250815260200160006001600160a01b0316815260200160006001600160a01b031681526020016000151581526020016000151581525091505b5092915050565b600a546001600160a01b031633146112675760405162461bcd60e51b815260040161082790614022565b478111610c1e57604051339082156108fc029083906000818181858888f19350505050158015610fd3573d6000803e3d6000fd5b60606001805461072f9061416e565b6001600160a01b0381166000908152600f6020908152604080832080548251818502810185019093528083526060949383018282801561130957602002820191906000526020600020905b8154815260200190600101908083116112f5575b50505050509050805167ffffffffffffffff81111561133857634e487b7160e01b600052604160045260246000fd5b60405190808252806020026020018201604052801561137157816020015b61135e613296565b8152602001906001900390816113565790505b50915060005b81518160ff16101561152c57600b828260ff16815181106113a857634e487b7160e01b600052603260045260246000fd5b6020026020010151815481106113ce57634e487b7160e01b600052603260045260246000fd5b60009182526020918290206040805160e08101825260049093029091018054600f81810b810b810b8552600160801b909104810b810b900b93830193909352600183018054929392918401916114239061416e565b80601f016020809104026020016040519081016040528092919081815260200182805461144f9061416e565b801561149c5780601f106114715761010080835404028352916020019161149c565b820191906000526020600020905b81548152906001019060200180831161147f57829003601f168201915b505050918352505060028201546001600160a01b039081166020830152600390920154918216604082015260ff600160a01b8304811615156060830152600160a81b9092048216151560809091015284518591841690811061150e57634e487b7160e01b600052603260045260246000fd5b60200260200101819052508080611524906141c4565b915050611377565b5050919050565b6001600160a01b03821633141561158c5760405162461bcd60e51b815260206004820152601960248201527f4552433732313a20617070726f766520746f2063616c6c6572000000000000006044820152606401610827565b3360008181526005602090815260408083206001600160a01b03871680855290835292819020805460ff191686151590811790915590519081529192917f17307eab39ab6107e8899845ad3d59bd9653f200f220920489ca2b5937696c31910160405180910390a35050565b6001600160801b03166fffffffffffffffffffffffffffffffff1960809290921b919091161790565b336000908152600e6020526040902054600b8054909190811061165457634e487b7160e01b600052603260045260246000fd5b906000526020600020906004020160030160159054906101000a900460ff1680156116cc5750336000818152600e6020526040902054600b805490919081106116ad57634e487b7160e01b600052603260045260246000fd5b60009182526020909120600360049092020101546001600160a01b0316145b610b275760405162461bcd60e51b815260040161082790613fa4565b6116f233836120a6565b61170e5760405162461bcd60e51b815260040161082790614057565b61171a848484846127e5565b50505050565b600061172a613296565b6001600160a01b0383166000908152600e6020526040812054600b80549192918390811061176857634e487b7160e01b600052603260045260246000fd5b60009182526020918290206040805160e08101825260049093029091018054600f81810b810b810b8552600160801b909104810b810b900b93830193909352600183018054929392918401916117bd9061416e565b80601f01602080910402602001604051908101604052809291908181526020018280546117e99061416e565b80156118365780601f1061180b57610100808354040283529160200191611836565b820191906000526020600020905b81548152906001019060200180831161181957829003601f168201915b505050918352505060028201546001600160a01b039081166020830152600390920154808316604083015260ff600160a01b8204811615156060840152600160a81b90910416151560809182015282015191925090811690861614156118a257600193508092506118ec565b6040805160e081018252600080825260208083018290528351908101845281815292820192909252606081018290526080810182905260a0810182905260c0810182905290945092505b5050915091565b606060008061190184610962565b915091506060600b858154811061192857634e487b7160e01b600052603260045260246000fd5b906000526020600020906004020160030160149054906101000a900460ff16611977575060408051808201909152600f81526e57616974696e6720666f7220796f7560881b6020820152611adf565b6040518060a00160405280606d8152602001614291606d91399050600b85815481106119b357634e487b7160e01b600052603260045260246000fd5b906000526020600020906004020160030160159054906101000a900460ff168015611a1c57506000600b86815481106119fc57634e487b7160e01b600052603260045260246000fd5b90600052602060002090600402016001018054611a189061416e565b9050115b15611adf57600b8581548110611a4257634e487b7160e01b600052603260045260246000fd5b90600052602060002090600402016001018054611a5e9061416e565b80601f0160208091040260200160405190810160405280929190818152602001828054611a8a9061416e565b8015611ad75780601f10611aac57610100808354040283529160200191611ad7565b820191906000526020600020905b815481529060010190602001808311611aba57829003601f168201915b505050505090505b600081604051602001611af29190613e65565b60405160208183030381529060405290506000611b0f8585611be7565b604051602001611b1f9190613dca565b60405160208183030381529060405290506000604051602001611b419061388e565b60405160208183030381529060405290506000838383604051602001611b6993929190613a69565b60405160208183030381529060405290506000611bb6611b888b612818565b611b9184612932565b604051602001611ba2929190613d20565b604051602081830303815290604052612932565b905080604051602001611bc99190613e20565b60405160208183030381529060405298505050505050505050919050565b60606000604051806020016040528060008152509050600084600f0b1315611c2357506040805180820190915260018152604560f81b60208201525b600084600f0b1215611c4957506040805180820190915260018152605760f81b60208201525b6060600085600f0b12611c6957611c6285600f0b612818565b9050611c7b565b611c7885600f0b600003612818565b90505b60408051602081019091526000808252600f86900b1315611cb057506040805180820190915260018152602760f91b60208201525b600085600f0b1215611cd657506040805180820190915260018152605360f81b60208201525b6060600086600f0b12611cf657611cef86600f0b612818565b9050611d08565b611d0586600f0b600003612818565b90505b83838383604051602001611d1f9493929190613827565b60405160208183030381529060405294505050505092915050565b6000611d468484610fd7565b905033611d5282610dce565b6001600160a01b031614611da85760405162461bcd60e51b815260206004820152601d60248201527f746f6b656e206973206e6f742062656c6f6e6720746f2063616c6c65720000006044820152606401610827565b610100825110611def5760405162461bcd60e51b8152602060048201526012602482015271736c6f67616e20697320746f6f206c6f6e6760701b6044820152606401610827565b81600b8281548110611e1157634e487b7160e01b600052603260045260246000fd5b90600052602060002090600402016001019080519060200190611e359291906132d3565b507f33aa80b38af4e0a1e2607b5743673d59a16ae46aecc240c828d6e71bddaf6762848484604051611e6993929190613f6c565b60405180910390a150505050565b600a546001600160a01b03163314611ea15760405162461bcd60e51b815260040161082790614022565b6001600160a01b038116611f065760405162461bcd60e51b815260206004820152602660248201527f4f776e61626c653a206e6577206f776e657220697320746865207a65726f206160448201526564647265737360d01b6064820152608401610827565b610c1e81612793565b336000908152600e6020526040902054600b80549091908110611f4257634e487b7160e01b600052603260045260246000fd5b906000526020600020906004020160030160159054906101000a900460ff168015611fba5750336000818152600e6020526040902054600b80549091908110611f9b57634e487b7160e01b600052603260045260246000fd5b60009182526020909120600360049092020101546001600160a01b0316145b611fd65760405162461bcd60e51b815260040161082790613fa4565b61171a848484846126c7565b3b151590565b60006001600160e01b031982166380ac58cd60e01b148061201957506001600160e01b03198216635b5e139f60e01b145b8061071a57506301ffc9a760e01b6001600160e01b031983161461071a565b600081815260046020526040902080546001600160a01b0319166001600160a01b038416908117909155819061206d82610dce565b6001600160a01b03167f8c5be1e5ebec7d5bd14f71427d1e84f3dd0314c0f7b2291e5b200ac8c7c3b92560405160405180910390a45050565b6000818152600260205260408120546001600160a01b031661211f5760405162461bcd60e51b815260206004820152602c60248201527f4552433732313a206f70657261746f7220717565727920666f72206e6f6e657860448201526b34b9ba32b73a103a37b5b2b760a11b6064820152608401610827565b600061212a83610dce565b9050806001600160a01b0316846001600160a01b031614806121655750836001600160a01b031661215a846107b2565b6001600160a01b0316145b8061219557506001600160a01b0380821660009081526005602090815260408083209388168352929052205460ff165b949350505050565b826001600160a01b03166121b082610dce565b6001600160a01b0316146122185760405162461bcd60e51b815260206004820152602960248201527f4552433732313a207472616e73666572206f6620746f6b656e2074686174206960448201526839903737ba1037bbb760b91b6064820152608401610827565b6001600160a01b03821661227a5760405162461bcd60e51b8152602060048201526024808201527f4552433732313a207472616e7366657220746f20746865207a65726f206164646044820152637265737360e01b6064820152608401610827565b612285838383612aa6565b612290600082612038565b6001600160a01b03831660009081526003602052604081208054600192906122b990849061412b565b90915550506001600160a01b03821660009081526003602052604081208054600192906122e79084906140bb565b909155505060008181526002602052604080822080546001600160a01b0319166001600160a01b0386811691821790925591518493918716917fddf252ad1be2c89b69c2b068fc378daa952ba7f163c4a11628f55a4df523b3ef91a4505050565b6610969d374b92b034101561238e5760405162461bcd60e51b815260206004820152600c60248201526b65746820746f6f206c65737360a01b6044820152606401610827565b6123988282612b5e565b6610969d374b92b0341115610fd357336108fc6123bc6610969d374b92b03461412b565b6040518115909202916000818181858888f1935050505015801561095d573d6000803e3d6000fd5b60006123f08484610fd7565b9050336001600160a01b0316600b828154811061241d57634e487b7160e01b600052603260045260246000fd5b60009182526020909120600260049092020101546001600160a01b0316146124875760405162461bcd60e51b815260206004820152601e60248201527f63616c6c6572206469646e2774206275796564207468697320746f6b656e00006044820152606401610827565b600b81815481106124a857634e487b7160e01b600052603260045260246000fd5b906000526020600020906004020160030160159054906101000a900460ff16156125055760405162461bcd60e51b815260206004820152600e60248201526d1d1bdad95b881a5cc819da5d995960921b6044820152606401610827565b6001600160a01b0382166000818152600e6020526040902054600b8054909190811061254157634e487b7160e01b600052603260045260246000fd5b60009182526020909120600360049092020101546001600160a01b031614156125ac5760405162461bcd60e51b815260206004820152601c60248201527f6769766564416464726573732068617665206769766564206c616e64000000006044820152606401610827565b81600b82815481106125ce57634e487b7160e01b600052603260045260246000fd5b906000526020600020906004020160030160006101000a8154816001600160a01b0302191690836001600160a01b031602179055506001600b828154811061262657634e487b7160e01b600052603260045260246000fd5b600091825260208083206003600490930201919091018054931515600160a81b0260ff60a81b19909416939093179092556001600160a01b0384168152600e909152604090208190556126798282612e34565b60408051600f86810b825285900b60208201526001600160a01b038416918101919091527f315581f8fced1d4d8d321a598f896b9f857c52dfefae7188fbfde64900d62d9b90606001611e69565b6126d96610969d374b92b0600261410c565b3410156127175760405162461bcd60e51b815260206004820152600c60248201526b65746820746f6f206c65737360a01b6044820152606401610827565b6127218484612b5e565b61272b8282612b5e565b61273d6610969d374b92b0600261410c565b34111561171a57336108fc61275a6610969d374b92b0600261410c565b612764903461412b565b6040518115909202916000818181858888f1935050505015801561278c573d6000803e3d6000fd5b5050505050565b600a80546001600160a01b038381166001600160a01b0319831681179093556040519116919082907f8be0079c531659141344cd1fd0a4f28419497f9722a3daafe3b4186f6b6457e090600090a35050565b6127f084848461219d565b6127fc84848484612e4e565b61171a5760405162461bcd60e51b815260040161082790613fd0565b60608161283c5750506040805180820190915260018152600360fc1b602082015290565b8160005b81156128665780612850816141a9565b915061285f9050600a836140f8565b9150612840565b60008167ffffffffffffffff81111561288f57634e487b7160e01b600052604160045260246000fd5b6040519080825280601f01601f1916602001820160405280156128b9576020820181803683370190505b5090505b8415612195576128ce60018361412b565b91506128db600a866141e4565b6128e69060306140bb565b60f81b81838151811061290957634e487b7160e01b600052603260045260246000fd5b60200101906001600160f81b031916908160001a90535061292b600a866140f8565b94506128bd565b606081516000141561295257505060408051602081019091526000815290565b6000604051806060016040528060408152602001614251604091399050600060038451600261298191906140bb565b61298b91906140f8565b61299690600461410c565b905060006129a58260206140bb565b67ffffffffffffffff8111156129cb57634e487b7160e01b600052604160045260246000fd5b6040519080825280601f01601f1916602001820160405280156129f5576020820181803683370190505b509050818152600183018586518101602084015b81831015612a61576003830192508251603f8160121c168501518253600182019150603f81600c1c168501518253600182019150603f8160061c168501518253600182019150603f8116850151825350600101612a09565b600389510660018114612a7b5760028114612a8c57612a98565b613d3d60f01b600119830152612a98565b603d60f81b6000198301525b509398975050505050505050565b6001600160a01b038316612b0157612afc81600880546000838152600960205260408120829055600182018355919091527ff3f7a9fe364faab93b216da50a3214154f22a0a2b415b23a84c8169e8b636ee30155565b612b24565b816001600160a01b0316836001600160a01b031614612b2457612b248382612f5b565b6001600160a01b038216612b3b5761095d81612ff8565b826001600160a01b0316826001600160a01b03161461095d5761095d82826130d1565b33600090815260106020526040902054600260ff90911610612bbc5760405162461bcd60e51b815260206004820152601760248201527618d85b1b195c881a5cc8185b1c9958591e48189d5e5959604a1b6044820152606401610827565b6000612bc883836115f8565b6000818152600d602052604090205490915060ff1615612c1a5760405162461bcd60e51b815260206004820152600d60248201526c1b185b99081a5cc8189d5e5959609a1b6044820152606401610827565b600b6040518060e0016040528085600f0b815260200184600f0b8152602001604051806020016040528060008152508152602001612c553390565b6001600160a01b03168152600060208083018290526001604080850182905260609094018390528554808201875595835291819020845185830151600f90810b6001600160801b03908116600160801b029290910b1617600490960201948555918301518051939493612cd0939285019291909101906132d3565b5060608201516002820180546001600160a01b0319166001600160a01b0392831617905560808301516003909201805460a085015160c090950151939092166001600160a81b031990921691909117600160a01b931515939093029290921760ff60a81b1916600160a81b91151591909102179055600b54600090612d579060019061412b565b336000818152600f60209081526040808320805460018082018355918552838520018690559383526010909152812080549394509192612d9b90849060ff166140d3565b825460ff9182166101009390930a9283029190920219909116179055506000828152600c60209081526040808320849055600d9091529020805460ff191660011790557fe20b07b22286906698dfaed9341c2187f29ec7e118f5283cd0b81d3796fc0c178484612e083390565b60408051600f94850b81529290930b60208301526001600160a01b031691810191909152606001611e69565b610fd3828260405180602001604052806000815250613115565b60006001600160a01b0384163b15612f5057604051630a85bd0160e11b81526001600160a01b0385169063150b7a0290612e92903390899088908890600401613eb3565b602060405180830381600087803b158015612eac57600080fd5b505af1925050508015612edc575060408051601f3d908101601f19168201909252612ed991810190613596565b60015b612f36573d808015612f0a576040519150601f19603f3d011682016040523d82523d6000602084013e612f0f565b606091505b508051612f2e5760405162461bcd60e51b815260040161082790613fd0565b805181602001fd5b6001600160e01b031916630a85bd0160e11b149050612195565b506001949350505050565b60006001612f6884610e45565b612f72919061412b565b600083815260076020526040902054909150808214612fc5576001600160a01b03841660009081526006602090815260408083208584528252808320548484528184208190558352600790915290208190555b5060009182526007602090815260408084208490556001600160a01b039094168352600681528383209183525290812055565b60085460009061300a9060019061412b565b6000838152600960205260408120546008805493945090928490811061304057634e487b7160e01b600052603260045260246000fd5b90600052602060002001549050806008838154811061306f57634e487b7160e01b600052603260045260246000fd5b60009182526020808320909101929092558281526009909152604080822084905585825281205560088054806130b557634e487b7160e01b600052603160045260246000fd5b6001900381819060005260206000200160009055905550505050565b60006130dc83610e45565b6001600160a01b039093166000908152600660209081526040808320868452825280832085905593825260079052919091209190915550565b61311f8383613148565b61312c6000848484612e4e565b61095d5760405162461bcd60e51b815260040161082790613fd0565b6001600160a01b03821661319e5760405162461bcd60e51b815260206004820181905260248201527f4552433732313a206d696e7420746f20746865207a65726f20616464726573736044820152606401610827565b6000818152600260205260409020546001600160a01b0316156132035760405162461bcd60e51b815260206004820152601c60248201527f4552433732313a20746f6b656e20616c7265616479206d696e746564000000006044820152606401610827565b61320f60008383612aa6565b6001600160a01b03821660009081526003602052604081208054600192906132389084906140bb565b909155505060008181526002602052604080822080546001600160a01b0319166001600160a01b03861690811790915590518392907fddf252ad1be2c89b69c2b068fc378daa952ba7f163c4a11628f55a4df523b3ef908290a45050565b6040805160e08101825260008082526020820181905260609282018390529181018290526080810182905260a0810182905260c081019190915290565b8280546132df9061416e565b90600052602060002090601f0160209004810192826133015760008555613347565b82601f1061331a57805160ff1916838001178555613347565b82800160010185558215613347579182015b8281111561334757825182559160200191906001019061332c565b50613353929150613357565b5090565b5b808211156133535760008155600101613358565b600067ffffffffffffffff8084111561338757613387614224565b604051601f8501601f19908116603f011681019082821181831017156133af576133af614224565b816040528093508581528686860111156133c857600080fd5b858560208301376000602087830101525050509392505050565b80356001600160a01b03811681146133f957600080fd5b919050565b8035600f81900b81146133f957600080fd5b600060208284031215613421578081fd5b61342a826133e2565b9392505050565b60008060408385031215613443578081fd5b61344c836133e2565b915061345a602084016133e2565b90509250929050565b600080600060608486031215613477578081fd5b613480846133e2565b925061348e602085016133e2565b9150604084013590509250925092565b600080600080608085870312156134b3578081fd5b6134bc856133e2565b93506134ca602086016133e2565b925060408501359150606085013567ffffffffffffffff8111156134ec578182fd5b8501601f810187136134fc578182fd5b61350b8782356020840161336c565b91505092959194509250565b60008060408385031215613529578182fd5b613532836133e2565b915060208301358015158114613546578182fd5b809150509250929050565b60008060408385031215613563578182fd5b61356c836133e2565b946020939093013593505050565b60006020828403121561358b578081fd5b813561342a8161423a565b6000602082840312156135a7578081fd5b815161342a8161423a565b600080604083850312156135c4578182fd5b6135cd836133fe565b915061345a602084016133fe565b6000806000606084860312156135ef578283fd5b6135f8846133fe565b9250613606602085016133fe565b9150613614604085016133e2565b90509250925092565b60008060008060008060c08789031215613635578182fd5b61363e876133fe565b955061364c602088016133fe565b945061365a604088016133e2565b9350613668606088016133fe565b9250613676608088016133fe565b915061368460a088016133e2565b90509295509295509295565b600080600080608085870312156136a5578182fd5b6136ae856133fe565b93506136bc602086016133fe565b92506136ca604086016133fe565b91506136d8606086016133fe565b905092959194509250565b6000806000606084860312156136f7578081fd5b613700846133fe565b925061370e602085016133fe565b9150604084013567ffffffffffffffff811115613729578182fd5b8401601f81018613613739578182fd5b6137488682356020840161336c565b9150509250925092565b600060208284031215613763578081fd5b5035919050565b60008151808452613782816020860160208601614142565b601f01601f19169290920160200192915050565b600081516137a8818560208601614142565b9290920192915050565b8051600f0b82526020810151600f0b60208301526000604082015160e060408501526137e160e085018261376a565b9050606083015160018060a01b038082166060870152806080860151166080870152505060a0830151151560a085015260c0830151151560c08501528091505092915050565b60008551613839818460208a01614142565b85519083019061384d818360208a01614142565b600b60fa1b9101908152845161386a816001840160208901614142565b8451910190613880816001840160208801614142565b016001019695505050505050565b721e3234bb1031b630b9b99e913737ba32b9911f60691b8152701e3234bb1f2737ba32b99d1e17b234bb1f60791b60138201527f3c6469763e2d204c6f6f746c616e64206973206372656174656420666f72206260248201526c3ab4b63232b9399e17b234bb1f60991b60448201527f3c6469763e2d204f6e6c7920696e766974656420746f2062652061206275696c6051820152683232b91e17b234bb1f60b91b60718201527f3c6469763e2d2045616368206275696c6465722063616e206f6e6c7920627579607a8201526f103a3bb7903630b732399e17b234bb1f60811b609a8201527f3c6469763e2d204f6e6c79206f6e6520706572736f6e2063616e20626520696e60aa8201527f766974656420746f2065616368206c616e643c2f6469763e000000000000000060ca8201527f3c6469763e2d204561636820706572736f6e2063616e206f6e6c79206163636560e28201527f707420616e20696e7669746174696f6e206f6e63653c2f6469763e00000000006101028201527f3c6469763e2d2045616368206c616e64206973203130302a313030207371756161011d8201526e39329036b2ba32b9399e17b234bb1f60891b61013d820152651e17b234bb1f60d11b61014c8201526000610152820161071a565b7f3c73766720786d6c6e733d22687474703a2f2f7777772e77332e6f72672f323081527f30302f73766722207072657365727665417370656374526174696f3d22784d6960208201527f6e594d696e206d656574222076696577426f783d22302030203336302033363060408201527f223e3c726563742077696474683d223130302522206865696768743d2231303060608201527f25222066696c6c3d222330463443383122202f3e3c666f726569676e4f626a6560808201527f63742077696474683d2233363022206865696768743d223336302220783d223060a08201527f2220793d2230223e3c626f647920786d6c6e733d22687474703a2f2f7777772e60c08201527f77332e6f72672f313939392f7868746d6c223e3c7374796c653e2e626173652060e08201527f7b666f6e742d66616d696c793a73616e732d73657269663b6d617267696e3a316101008201527f3070783b7d2e736f6c6f67616e207b20636f6c6f723a20234630454445353b206101208201527f666f6e742d73697a653a20313870783b6d617267696e2d746f703a333070783b6101408201527f6865696768743a20393070783b207d2e6c616e64207b20636f6c6f723a2023436101608201527f30443732353b20666f6e742d73697a653a20323470783b206865696768743a206101808201527f363070783b207d2e6e6f746573207b20636f6c6f723a20234135423844303b206101a08201527f666f6e742d73697a653a20313470783b207d3c2f7374796c653e3c64697620636101c08201526b3630b9b99e913130b9b2911f60a11b6101e08201526000613d17613ce2613cdc613cd66101ec860189613796565b87613796565b85613796565b7f3c2f6469763e3c2f626f64793e3c2f666f726569676e4f626a6563743e3c2f738152623b339f60e91b602082015260230190565b95945050505050565b6f7b226e616d65223a20224c616e64202360801b81528251600090613d4c816010850160208801614142565b7f222c20226465736372697074696f6e223a20227878787878222c2022696d61676010918401918201527f65223a2022646174613a696d6167652f7376672b786d6c3b6261736536342c0060308201528351613daf81604f840160208801614142565b61227d60f01b604f9290910191820152605101949350505050565b7f3c64697620636c6173733d226c616e64223e4c6f6f746c616e64202800000000815260008251613e0281601c850160208701614142565b66149e17b234bb1f60c91b601c939091019283015250602301919050565b7f646174613a6170706c69636174696f6e2f6a736f6e3b6261736536342c000000815260008251613e5881601d850160208701614142565b91909101601d0192915050565b741e3234bb1031b630b9b99e9139b7b637b3b0b7111f60591b81528151600090613e96816015850160208701614142565b651e17b234bb1f60d11b6015939091019283015250601b01919050565b6001600160a01b0385811682528416602082015260408101839052608060608201819052600090613ee69083018461376a565b9695505050505050565b6000602080830181845280855180835260408601915060408160051b8701019250838701855b82811015613f4457603f19888603018452613f328583516137b2565b94509285019290850190600101613f16565b5092979650505050505050565b821515815260406020820152600061219560408301846137b2565b83600f0b815282600f0b6020820152606060408201526000613d17606083018461376a565b60208152600061342a602083018461376a565b60208082526012908201527118d85b1b195c881a5cc81b9bc819da5d995960721b604082015260600190565b60208082526032908201527f4552433732313a207472616e7366657220746f206e6f6e20455243373231526560408201527131b2b4bb32b91034b6b83632b6b2b73a32b960711b606082015260800190565b6020808252818101527f4f776e61626c653a2063616c6c6572206973206e6f7420746865206f776e6572604082015260600190565b60208082526031908201527f4552433732313a207472616e736665722063616c6c6572206973206e6f74206f6040820152701ddb995c881b9bdc88185c1c1c9bdd9959607a1b606082015260800190565b60208152600061342a60208301846137b2565b600082198211156140ce576140ce6141f8565b500190565b600060ff821660ff84168060ff038211156140f0576140f06141f8565b019392505050565b6000826141075761410761420e565b500490565b6000816000190483118215151615614126576141266141f8565b500290565b60008282101561413d5761413d6141f8565b500390565b60005b8381101561415d578181015183820152602001614145565b8381111561171a5750506000910152565b600181811c9082168061418257607f821691505b602082108114156141a357634e487b7160e01b600052602260045260246000fd5b50919050565b60006000198214156141bd576141bd6141f8565b5060010190565b600060ff821660ff8114156141db576141db6141f8565b60010192915050565b6000826141f3576141f361420e565b500690565b634e487b7160e01b600052601160045260246000fd5b634e487b7160e01b600052601260045260246000fd5b634e487b7160e01b600052604160045260246000fd5b6001600160e01b031981168114610c1e57600080fdfe4142434445464748494a4b4c4d4e4f505152535455565758595a6162636465666768696a6b6c6d6e6f707172737475767778797a303132333435363738392b2f496e766974696e67207468652074616c656e74656420796f7520746f206265636f6d652061206c6f6f747665727365206275696c64657220666f7220746865206e6578742031302079656172732c20416e6420466f7220796f75206f6e206d79207369646520626f756768743aa2646970667358221220e22ede88b45d92ec759a4d57070700d1bff02cc84e9557910ee019e88149facd64736f6c634300080400334552433732313a207472616e7366657220746f206e6f6e204552433732315265",
  "devdoc": {
    "kind": "dev",
    "methods": {
      "approve(address,uint256)": {
        "details": "See {IERC721-approve}."
      },
      "balanceOf(address)": {
        "details": "See {IERC721-balanceOf}."
      },
      "getApproved(uint256)": {
        "details": "See {IERC721-getApproved}."
      },
      "isApprovedForAll(address,address)": {
        "details": "See {IERC721-isApprovedForAll}."
      },
      "name()": {
        "details": "See {IERC721Metadata-name}."
      },
      "owner()": {
        "details": "Returns the address of the current owner."
      },
      "ownerOf(uint256)": {
        "details": "See {IERC721-ownerOf}."
      },
      "renounceOwnership()": {
        "details": "Leaves the contract without owner. It will not be possible to call `onlyOwner` functions anymore. Can only be called by the current owner. NOTE: Renouncing ownership will leave the contract without an owner, thereby removing any functionality that is only available to the owner."
      },
      "safeTransferFrom(address,address,uint256)": {
        "details": "See {IERC721-safeTransferFrom}."
      },
      "safeTransferFrom(address,address,uint256,bytes)": {
        "details": "See {IERC721-safeTransferFrom}."
      },
      "setApprovalForAll(address,bool)": {
        "details": "See {IERC721-setApprovalForAll}."
      },
      "supportsInterface(bytes4)": {
        "details": "See {IERC165-supportsInterface}."
      },
      "symbol()": {
        "details": "See {IERC721Metadata-symbol}."
      },
      "tokenByIndex(uint256)": {
        "details": "See {IERC721Enumerable-tokenByIndex}."
      },
      "tokenOfOwnerByIndex(address,uint256)": {
        "details": "See {IERC721Enumerable-tokenOfOwnerByIndex}."
      },
      "tokenURI(uint256)": {
        "details": "See {IERC721Metadata-tokenURI}."
      },
      "totalSupply()": {
        "details": "See {IERC721Enumerable-totalSupply}."
      },
      "transferFrom(address,address,uint256)": {
        "details": "See {IERC721-transferFrom}."
      },
      "transferOwnership(address)": {
        "details": "Transfers ownership of the contract to a new account (`newOwner`). Can only be called by the current owner."
      }
    },
    "version": 1
  },
  "userdoc": {
    "kind": "user",
    "methods": {},
    "version": 1
  },
  "storageLayout": {
    "storage": [
      {
        "astId": 129,
        "contract": "contracts/LootLand.sol:LootLand",
        "label": "_name",
        "offset": 0,
        "slot": "0",
        "type": "t_string_storage"
      },
      {
        "astId": 131,
        "contract": "contracts/LootLand.sol:LootLand",
        "label": "_symbol",
        "offset": 0,
        "slot": "1",
        "type": "t_string_storage"
      },
      {
        "astId": 135,
        "contract": "contracts/LootLand.sol:LootLand",
        "label": "_owners",
        "offset": 0,
        "slot": "2",
        "type": "t_mapping(t_uint256,t_address)"
      },
      {
        "astId": 139,
        "contract": "contracts/LootLand.sol:LootLand",
        "label": "_balances",
        "offset": 0,
        "slot": "3",
        "type": "t_mapping(t_address,t_uint256)"
      },
      {
        "astId": 143,
        "contract": "contracts/LootLand.sol:LootLand",
        "label": "_tokenApprovals",
        "offset": 0,
        "slot": "4",
        "type": "t_mapping(t_uint256,t_address)"
      },
      {
        "astId": 149,
        "contract": "contracts/LootLand.sol:LootLand",
        "label": "_operatorApprovals",
        "offset": 0,
        "slot": "5",
        "type": "t_mapping(t_address,t_mapping(t_address,t_bool))"
      },
      {
        "astId": 1068,
        "contract": "contracts/LootLand.sol:LootLand",
        "label": "_ownedTokens",
        "offset": 0,
        "slot": "6",
        "type": "t_mapping(t_address,t_mapping(t_uint256,t_uint256))"
      },
      {
        "astId": 1072,
        "contract": "contracts/LootLand.sol:LootLand",
        "label": "_ownedTokensIndex",
        "offset": 0,
        "slot": "7",
        "type": "t_mapping(t_uint256,t_uint256)"
      },
      {
        "astId": 1075,
        "contract": "contracts/LootLand.sol:LootLand",
        "label": "_allTokens",
        "offset": 0,
        "slot": "8",
        "type": "t_array(t_uint256)dyn_storage"
      },
      {
        "astId": 1079,
        "contract": "contracts/LootLand.sol:LootLand",
        "label": "_allTokensIndex",
        "offset": 0,
        "slot": "9",
        "type": "t_mapping(t_uint256,t_uint256)"
      },
      {
        "astId": 7,
        "contract": "contracts/LootLand.sol:LootLand",
        "label": "_owner",
        "offset": 0,
        "slot": "10",
        "type": "t_address"
      },
      {
        "astId": 2139,
        "contract": "contracts/LootLand.sol:LootLand",
        "label": "_lands",
        "offset": 0,
        "slot": "11",
        "type": "t_array(t_struct(Land)3346_storage)dyn_storage"
      },
      {
        "astId": 2143,
        "contract": "contracts/LootLand.sol:LootLand",
        "label": "_packedXYToTokenId",
        "offset": 0,
        "slot": "12",
        "type": "t_mapping(t_uint256,t_uint256)"
      },
      {
        "astId": 2147,
        "contract": "contracts/LootLand.sol:LootLand",
        "label": "_packedXYToIsBuyed",
        "offset": 0,
        "slot": "13",
        "type": "t_mapping(t_uint256,t_bool)"
      },
      {
        "astId": 2151,
        "contract": "contracts/LootLand.sol:LootLand",
        "label": "_gived",
        "offset": 0,
        "slot": "14",
        "type": "t_mapping(t_address,t_uint256)"
      },
      {
        "astId": 2156,
        "contract": "contracts/LootLand.sol:LootLand",
        "label": "_buyLandTokenIds",
        "offset": 0,
        "slot": "15",
        "type": "t_mapping(t_address,t_array(t_uint256)dyn_storage)"
      },
      {
        "astId": 2161,
        "contract": "contracts/LootLand.sol:LootLand",
        "label": "buyLandCount",
        "offset": 0,
        "slot": "16",
        "type": "t_mapping(t_address,t_uint8)"
      }
    ],
    "types": {
      "t_address": {
        "encoding": "inplace",
        "label": "address",
        "numberOfBytes": "20"
      },
      "t_array(t_struct(Land)3346_storage)dyn_storage": {
        "base": "t_struct(Land)3346_storage",
        "encoding": "dynamic_array",
        "label": "struct ILootLand.Land[]",
        "numberOfBytes": "32"
      },
      "t_array(t_uint256)dyn_storage": {
        "base": "t_uint256",
        "encoding": "dynamic_array",
        "label": "uint256[]",
        "numberOfBytes": "32"
      },
      "t_bool": {
        "encoding": "inplace",
        "label": "bool",
        "numberOfBytes": "1"
      },
      "t_int128": {
        "encoding": "inplace",
        "label": "int128",
        "numberOfBytes": "16"
      },
      "t_mapping(t_address,t_array(t_uint256)dyn_storage)": {
        "encoding": "mapping",
        "key": "t_address",
        "label": "mapping(address => uint256[])",
        "numberOfBytes": "32",
        "value": "t_array(t_uint256)dyn_storage"
      },
      "t_mapping(t_address,t_bool)": {
        "encoding": "mapping",
        "key": "t_address",
        "label": "mapping(address => bool)",
        "numberOfBytes": "32",
        "value": "t_bool"
      },
      "t_mapping(t_address,t_mapping(t_address,t_bool))": {
        "encoding": "mapping",
        "key": "t_address",
        "label": "mapping(address => mapping(address => bool))",
        "numberOfBytes": "32",
        "value": "t_mapping(t_address,t_bool)"
      },
      "t_mapping(t_address,t_mapping(t_uint256,t_uint256))": {
        "encoding": "mapping",
        "key": "t_address",
        "label": "mapping(address => mapping(uint256 => uint256))",
        "numberOfBytes": "32",
        "value": "t_mapping(t_uint256,t_uint256)"
      },
      "t_mapping(t_address,t_uint256)": {
        "encoding": "mapping",
        "key": "t_address",
        "label": "mapping(address => uint256)",
        "numberOfBytes": "32",
        "value": "t_uint256"
      },
      "t_mapping(t_address,t_uint8)": {
        "encoding": "mapping",
        "key": "t_address",
        "label": "mapping(address => uint8)",
        "numberOfBytes": "32",
        "value": "t_uint8"
      },
      "t_mapping(t_uint256,t_address)": {
        "encoding": "mapping",
        "key": "t_uint256",
        "label": "mapping(uint256 => address)",
        "numberOfBytes": "32",
        "value": "t_address"
      },
      "t_mapping(t_uint256,t_bool)": {
        "encoding": "mapping",
        "key": "t_uint256",
        "label": "mapping(uint256 => bool)",
        "numberOfBytes": "32",
        "value": "t_bool"
      },
      "t_mapping(t_uint256,t_uint256)": {
        "encoding": "mapping",
        "key": "t_uint256",
        "label": "mapping(uint256 => uint256)",
        "numberOfBytes": "32",
        "value": "t_uint256"
      },
      "t_string_storage": {
        "encoding": "bytes",
        "label": "string",
        "numberOfBytes": "32"
      },
      "t_struct(Land)3346_storage": {
        "encoding": "inplace",
        "label": "struct ILootLand.Land",
        "members": [
          {
            "astId": 3333,
            "contract": "contracts/LootLand.sol:LootLand",
            "label": "x",
            "offset": 0,
            "slot": "0",
            "type": "t_int128"
          },
          {
            "astId": 3335,
            "contract": "contracts/LootLand.sol:LootLand",
            "label": "y",
            "offset": 16,
            "slot": "0",
            "type": "t_int128"
          },
          {
            "astId": 3337,
            "contract": "contracts/LootLand.sol:LootLand",
            "label": "slogan",
            "offset": 0,
            "slot": "1",
            "type": "t_string_storage"
          },
          {
            "astId": 3339,
            "contract": "contracts/LootLand.sol:LootLand",
            "label": "buyedAddress",
            "offset": 0,
            "slot": "2",
            "type": "t_address"
          },
          {
            "astId": 3341,
            "contract": "contracts/LootLand.sol:LootLand",
            "label": "givedAddress",
            "offset": 0,
            "slot": "3",
            "type": "t_address"
          },
          {
            "astId": 3343,
            "contract": "contracts/LootLand.sol:LootLand",
            "label": "isBuyed",
            "offset": 20,
            "slot": "3",
            "type": "t_bool"
          },
          {
            "astId": 3345,
            "contract": "contracts/LootLand.sol:LootLand",
            "label": "isGived",
            "offset": 21,
            "slot": "3",
            "type": "t_bool"
          }
        ],
        "numberOfBytes": "128"
      },
      "t_uint256": {
        "encoding": "inplace",
        "label": "uint256",
        "numberOfBytes": "32"
      },
      "t_uint8": {
        "encoding": "inplace",
        "label": "uint8",
        "numberOfBytes": "1"
      }
    }
  }
}